:1000000019C033C032C031C030C02FC02EC02DC087
:100010002CC02BC02AC0A0C028C027C026C025C025
:1000200024C023C000C2C1C120C043C01EC01DC027
:100030001CC01BC011241FBECFEFD2E0DEBFCDBF5E
:1000400011E0A0E0B1E0E2E9F5E002C005900D9218
:10005000A032B107D9F711E0A0E2B1E001C01D92D2
:10006000AB32B107E1F702D092C2CACFBAD083E374
:1000700090E064D183B7816083BF889583B78E7F1A
:1000800083BFF8CF8FEA80937A0010927B0080E6DE
:1000900080937C00089580917900089520917800E4
:1000A00040917900942F80E030E0282B392BC90152
:1000B00008951F920F920FB60F9211240F931F9362
:1000C0002F933F934F935F936F937F938F939F9360
:1000D000AF93BF93EF93FF938091790090E024E674
:1000E00030E0AC01429FC001439F900D529F900DA4
:1000F00011246FEF70E014D2CB0104E211E0B801DB
:100100004AE050E020D28CE060E00AD1C801FCD087
:1001100080E091E0F9D0FF91EF91BF91AF919F9175
:100120008F917F916F915F914F913F912F911F918F
:100130000F910F900FBE0F901F90189516BC089549
:1001400093E0899F90011124C901089598EC899F3B
:1001500090011124C90108951F920F920FB60F92BA
:1001600011240F931F932F933F934F935F936F939C
:100170007F938F939F93AF93BF93EF93FF9386B536
:1001800080932A0116BCE1ECF0E0208120622083FC
:1001900028EC829FC00111249093230180932201B7
:1001A00004E211E0B8014AE050E0CDD186E061E020
:1001B000B7D0C801A9D084E091E0A6D0FF91EF911B
:1001C000BF91AF919F918F917F916F915F914F916F
:1001D0003F912F911F910F910F900FBE0F901F9085
:1001E000189584E8809366008FEF84B98BB953D05B
:1001F0007ED080E060E094D08FE091E085D080E018
:1002000061E08ED086E191E07FD087E085BD81EE10
:1002100098E0909389008093880082E080936F003B
:100220008DE080938100789408952FB7F894982FEB
:10023000907F95B92B9A91E0392F3A95F1F72B9849
:1002400032E03A95F1F78295807F85B92B9A9A959D
:10025000F1F72B982FBF8AE68A95F1F708952FB70B
:10026000F894982F907F946095B92B9A91E0392F4C
:100270003A95F1F72B9832E03A95F1F78295807F25
:10028000846085B92B9A9A95F1F72B982FBF8AE64F
:100290008A95F1F7089515B880E395E70197F1F78E
:1002A00098E395B921E0822F8A95F1F780E385B92B
:1002B000E8E0F0E23197F1F795B9322F3A95F1F78E
:1002C00085B9E8ECF0E03197F1F795B9922F9A955E
:1002D000F1F785B99AE6892F8A95F1F788E285B911
:1002E0002A95F1F780E285B99A95F1F7089588E2A9
:1002F0009CDF86E09ADF8CE098DF81E096DF80ED7E
:100300009CE00197F1F70895CF93DF93EC0102C0D1
:100310002196A5DF88818823D9F7DF91CF910895B1
:10032000623031F0633031F0613029F4805C03C019
:100330008C5E01C08C5A806878DF08959093C50068
:100340008093C40088E18093C1008EE28093C20054
:100350000895982F8091C00085FFFCCF9093C60030
:1003600008958091C00087FFFCCF8091C60008955A
:1003700002C08091C6008091C00087FDFACF089529
:10038000FC0107C08091C00085FFFCCF319690939F
:10039000C60090819923B1F70895FC018091C600B1
:1003A00080838091C000847008951F920F920FB6D1
:1003B0000F9211248F9380912001813061F0813060
:1003C00028F0823069F0833009F511C085E680930A
:1003D000C60081E009C080E78093C60082E004C0C7
:1003E00086E68093C60083E08093200116C080914A
:1003F0002A018093C600109220018091C1008F7D58
:100400008093C1008091C100806805C010922001D6
:100410008091C1008F7D8093C1008F910F900FBE9E
:100420000F901F9018951F920F920FB60F921124E4
:100430001F932F933F934F935F936F937F938F936C
:100440009F93AF93BF93EF93FF931091C60080915A
:10045000C00082FF05C08BE060E062DF8AE204C07A
:100460008BE060E05DDF80E2FADE80912101813087
:1004700059F0813028F0823059F0833049F50EC0B0
:10048000153641F581E007C0103711F582E003C051
:100490001636F1F483E0809321011CC084E6189F96
:1004A000C00111246FEF70E027D0CB0164E271E04E
:1004B0004AE050E048D084E291E026DF8BE191E011
:1004C00023DF8091C1008F778093C10010922001BB
:1004D00010922101FF91EF91BF91AF919F918F9168
:1004E0007F916F915F914F913F912F911F910F904D
:1004F0000FBE0F901F901895AA1BBB1B51E107C0A0
:10050000AA1FBB1FA617B70710F0A61BB70B881FA3
:10051000991F5A95A9F780959095BC01CD01089532
:1005200097FB092E07260AD077FD04D0E5DF06D019
:1005300000201AF4709561957F4F0895F6F7909515
:1005400081959F4F0895FB019F0142306CF0453229
:100550005CF4642F7727D0DF805D8A330CF0895DEF
:100560008193CB010097A9F71082C90100C0DC017B
:10057000FC01672F71917723E1F7329704C07C91DA
:100580006D9370836291AE17BF07C8F30895F89416
:02059000FFCF9B
:10059200252020002072706D20202020202000477E
:1005A200617365733A005265763A00252020000097
:00000001FF
