:1000000012C024C023C022C021C020C01FC01EC0F7
:100010001DC01CC01BC01AC019C018C017C016C014
:1000200015C014C013C011241FBECFE5D4E0DEBF3D
:10003000CDBF10E0A0E6B0E0E0EFF1E002C0059037
:100040000D92AE37B107D9F702D0D0C0D9CF0F93F8
:100050001F93CF93DF9384E881BF8FEF87BB73D06B
:100060009ED080E060E0B4D080E690E0A5D080E053
:1000700061E0AED088EB9BE028EC30E0F9013197ED
:10008000F1F70197D9F788E028D088E893E128ECC8
:1000900030E0F9013197F1F70197D9F78CE01DD0E5
:1000A00088E893E128EC30E0F9013197F1F7019706
:1000B000D9F7C0E0D0E008EC10E088E10ED084EC85
:1000C00099E0F8013197F1F70197D9F72196C031FE
:1000D000D1059CF3C0E0D0E0F0CF2FB7F894982F73
:1000E000907F98BBC39A91E0392F3A95F1F7C39866
:1000F00032E03A95F1F78295807F88BBC39A9A9552
:10010000F1F7C3982FBF8AE68A95F1F708952FB7C4
:10011000F894982F907F946098BBC39A91E0392F00
:100120003A95F1F7C39832E03A95F1F78295807FDE
:10013000846088BBC39A9A95F1F7C3982FBF8AE66B
:100140008A95F1F7089518BA80E395E70197F1F7DA
:1001500098E398BB21E0822F8A95F1F780E388BB72
:10016000E8E0F0E23197F1F798BB322F3A95F1F7DA
:1001700088BBE8ECF0E03197F1F798BB922F9A95A5
:10018000F1F788BB9AE6892F8A95F1F788E288BB58
:100190002A95F1F780E288BB9A95F1F7089588E2F5
:1001A0009CDF86E09ADF8CE098DF81E096DF80EDCF
:1001B0009CE00197F1F70895CF93DF93EC0102C023
:1001C0002196A5DF88818823D9F7DF91CF91089503
:1001D000623031F0633031F0613029F4805C03C06B
:1001E0008C5E01C08C5A806878DF0895F894FFCF48
:1001F00050727565626120646520746578746F2043
:0E020000656E206D6F76696D69656E746F00B6
:00000001FF
