:1000000041C05BC05AC059C058C057C056C055C047
:1000100054C053C052C051C050C04FC068C04DC042
:100020004CC04BC04AC04C44523A0000504F543A66
:100030000000202020202020202020202020202000
:1000400020200000001F000000001F00001F1010F3
:1000500010101F00001F181818181F00001F1C1C6C
:100060001C1C1F00001F1E1E1E1E1F00001F1F1F26
:100070001F1F1F0003070F1F0F070300181C1E1F61
:100080001E1C180011241FBECFE5D4E0DEBFCDBF7B
:1000900010E0A0E6B0E0E2E7FAE002C005900D92C1
:1000A000AE37B107D9F710E0AEE7B0E001C01D925E
:1000B000A538B107E1F779D0DBC4A2CF3E9A86B16B
:1000C000886886B9089580937E0097B1907F982BB9
:1000D00097B986B1886486B97894089520E080E263
:1000E0009EE40197F1F72F5F2436C9F708951F9218
:1000F0000F920FB60F9211240F931F932F933F93DC
:100100004F935F936F937F938F939F93AF93BF931F
:10011000EF93FF9384B105B110E0102F0027080F73
:10012000111D40917E0060E082E390E096D0409106
:100130007E00E42FF0E0EE0FFF1FE459FF4F60E078
:10014000808191818AD01F930F9380E690E09F93E6
:100150008F9391D10F900F900F900F90FF91EF918F
:10016000BF91AF919F918F917F916F915F914F91CF
:100170003F912F911F910F910F900FBE0F901F90E5
:10018000189580E790E090938200809381001FD1C2
:100190003CD060E080E053D03E9A86B1886886B952
:1001A00008951BD080E090E008950F931F93E9DF3E
:1001B00083E690E09F938F935ED190DF0F900F9036
:1001C00080E081DF00E61AEEC8010197F1F781E0D7
:1001D0007ADFC8010197F1F7F3CF82BBC09AC29AC8
:1001E00088EE93E0FC013197F1F7C298C09801972F
:1001F000F1F7089582BBC29A88EE93E0FC01319733
:10020000F1F7C2980197F1F7089581E0F3DF0895BF
:1002100082E0F0DF08950F931F93CF93DF93062FB3
:10022000009741F0EC0110E003C08991D6DF1F5F19
:100230001017D9F7DF91CF911F910F910895623078
:1002400031F0633031F0613029F4805C03C08C5EA2
:1002500001C08C5A8068CEDF08950F931F93CF930F
:10026000DF938C01862F642FEADFC0E0D0E001C06D
:10027000B4DFF801EC0FF11D849121968823C1F7BA
:10028000DF91CF911F910F910895EF92FF920F93FD
:100290001F93CF93DF937C01162F110F110F110FB6
:1002A0001064C0E0D0E0FE01EE0DFF1D0491812F2F
:1002B0008C0FA0DF802F91DF2196C830D10599F7F0
:1002C000DF91CF911F910F91FF90EF9008950F93C1
:1002D0001F93082F10E003C08EE18CDF1F5F101703
:1002E000D9F71F910F9108950F931F93082F10E0D6
:1002F00003C088E17FDF1F5F1017D9F71F910F91AF
:1003000008958EE077DF08958FE074DF08958CE024
:1003100071DF089588E06EDF08958CE06BDF08954B
:100320000F931F93082F10E003C080E163DF1F5F6E
:100330001017D9F71F910F9108950F931F93082F4E
:1003400010E003C084E156DF1F5F1017D9F71F913B
:100350000F910895DF92EF92FF920F931F93CF9327
:10036000DF93D42E96E0899FC0011124242F30E022
:1003700070E0AC01429FC001439F900D529F900DD1
:1003800011242CD3EB01CB0166E070E013D3E82EEF
:10039000FF2400E010E011C0C8010596C817D90776
:1003A00010F085E006C0C017D10710F08E2D01C0F7
:1003B00080E013DFF3940A5F1F4FFD1469F7DF91AC
:1003C000CF911F910F91FF90EF90DF9008950F93C1
:1003D0001F93CF93DF9388E99AE30197F1F712BA5D
:1003E00018BA81B38FEF81BB87B3876087BB20E3E7
:1003F00022BBC29A88EE93E0FC013197F1F7C298D4
:10040000FC013197F1F722BBC29AFC013197F1F759
:10041000C298FC013197F1F722BBC29AFC013197D7
:10042000F1F7C298FC013197F1F728E322BBC29A99
:10043000FC013197F1F7C298FC013197F1F72CE0FC
:1004400022BBC29A0197F1F7C29888E893E101971D
:10045000F1F704E410E0C0E0D0E06C2FC80115DF34
:100460002196085F1F4FC830D105B9F7DF91CF91B2
:100470001F910F910895A2E0B0E0E0E4F2E0D1C254
:10048000FE01379661917191FA83E983AF01809102
:1004900081009091820003D0E2E02296DEC22F928A
:1004A0003F925F926F927F928F929F92AF92BF9294
:1004B000CF92DF92EF92FF920F931F93CF93DF9330
:1004C000CDB7DEB72B970FB6F894DEBF0FBECDBF0A
:1004D0003C014B016A01FC0117821682838181FD78
:1004E00003C08FEF9FEFAEC11E010894211C311C89
:1004F000F3013381F40133FD859133FF81914F0185
:10050000882309F49CC1853239F433FD859133FF8A
:1005100081914F01853221F4B30190E0C1D1E8CF40
:10052000982FAA2410E055241032B0F49B3269F0C1
:100530009C3228F4903251F0933271F40BC09D320A
:1005400039F0903349F411602AC01260146027C05A
:10055000186025C0106123C017FD2AC0292F205321
:100560002A3088F416FF07C08AE0A89EC001112433
:10057000A22EA80E14C08AE0589EC0011124522E4B
:10058000580E10620CC09E3221F416FD58C1106442
:1005900006C09C3611F4106802C0983649F4F40184
:1005A00033FD959133FF91914F01992309F0BCCF11
:1005B000892F8554833018F08052833038F424E03A
:1005C00030E0C20ED31E8FE389830FC0933631F023
:1005D000933781F0933509F052C01FC0F601808136
:1005E000898322E030E0C20ED31E710181E0A82E83
:1005F000B12C11C0F601E080F18016FD03C06FEF51
:100600007FEF02C06A2D70E022E030E0C20ED31E00
:10061000C7013BD15C011F7712C0F601E080F18079
:1006200016FD03C06FEF7FEF02C06A2D70E022E07D
:1006300030E0C20ED31EC7011DD15C01106813FF4C
:1006400006C019C0B30180E290E02AD15A94852DEA
:1006500090E0A816B906B0F30EC0F70117FD85911A
:1006600017FF81917F01B30190E01AD151105A9484
:100670000894A108B108A114B10479F7DDC094363B
:1006800011F0993661F517FF0AC0F601608171819A
:100690008281938124E030E0C20ED31E0DC0F601AA
:1006A000808191819C01B901882777FD8095982FE1
:1006B00042E050E0C40ED51E012F0F7697FF08C010
:1006C00090958095709561957F4F8F4F9F4F0068F3
:1006D0002AE030E0A10110D1B82EB2183CC0953705
:1006E00021F41F7E2AE030E01CC0197F9F3661F0A4
:1006F000903720F4983509F0A2C00FC0903739F038
:10070000983709F09CC004C028E030E00AC01061AE
:1007100014FD146020E130E004C014FD166020E1F7
:1007200032E017FF08C0F6016081718182819381F8
:1007300044E050E008C0F60180819181BC0180E076
:1007400090E042E050E0C40ED51EA101D5D0B82EF5
:10075000B218012F0F7706FF09C00E7FBA1430F4CC
:1007600004FF06C002FD04C00F7E02C01B2D01C0A5
:100770001A2D04FF0CC0FE01EB0DF11D80818033AA
:1007800011F4097E08C01F5F02FF05C003C0802F5F
:10079000867809F01F5FE02E03FD13C000FF0EC036
:1007A000151510F0AB2C0AC0AB2CA50CA11A152DF9
:1007B00005C0B30180E290E073D01F5F1515C8F348
:1007C00004C0151510F4511A01C05524E4FE0FC0E1
:1007D000B30180E390E064D0E2FE1CC0E1FE03C000
:1007E00088E590E002C088E790E0B3010CC08E2D50
:1007F000867881F0E1FE02C08BE201C080E207FD55
:100800008DE2B30190E04CD005C0B30180E390E0ED
:1008100047D0AA94BA14C8F3BA94F101EB0DF11DB4
:100820008081B30190E03CD0BB2031F0F5CFB30123
:1008300080E290E035D05A945520C9F759CEF301A3
:10084000868197812B960FB6F894DEBF0FBECDBF81
:10085000DF91CF911F910F91FF90EF90DF90CF909C
:10086000BF90AF909F908F907F906F905F903F90E0
:100870002F900895FC010590615070400110D8F749
:10088000809590958E0F9F1F0895FC0161507040D8
:1008900001900110D8F7809590958E0F9F1F0895B5
:1008A0000F931F93CF93DF938C01EB018B8181FF1B
:1008B0001BC082FF0DC02E813F818C819D81281736
:1008C000390764F4E881F9810193F983E88306C06C
:1008D000E885F985802F0995892B31F48E819F81D8
:1008E00001969F838E8302C00FEF1FEFC801DF9137
:1008F000CF911F910F910895FA01AA27283051F145
:10090000203181F1E8946F936E7F6E5F7F4F8F4F40
:100910009F4FAF4FB1E03ED0B4E03CD0670F781F9F
:10092000891F9A1FA11D680F791F8A1F911DA11D84
:100930006A0F711D811D911DA11D20D009F46894BD
:100940003F912AE0269F11243019305D3193DEF665
:10095000CF010895462F4770405D4193B3E00FD01B
:10096000C9F7F6CF462F4F70405D4A3318F0495D06
:1009700031FD4052419302D0A9F7EACFB4E0A695E9
:100980009795879577956795BA95C9F7009761050B
:10099000710508959B01AC010A2E06945795479561
:1009A00037952795BA95C9F7620F731F841F951F56
:1009B000A01D0895AA1BBB1B51E107C0AA1FBB1FA6
:1009C000A617B70710F0A61BB70B881F991F5A95DB
:1009D000A9F780959095BC01CD01089597FB092E4C
:1009E00007260AD077FD04D0E5DF06D000201AF4F0
:1009F000709561957F4F0895F6F7909581959F4F7B
:100A000008952F923F924F925F926F927F928F92B2
:100A10009F92AF92BF92CF92DF92EF92FF920F938D
:100A20001F93CF93DF93CDB7DEB7CA1BDB0B0FB697
:100A3000F894DEBF0FBECDBF09942A883988488854
:100A40005F846E847D848C849B84AA84B984C884EA
:100A5000DF80EE80FD800C811B81AA81B981CE0FE1
:100A6000D11D0FB6F894DEBF0FBECDBFED010895C6
:020A7000FFCFB6
:100A720025640041444320546573740026002C0011
:0E0A82000000000200000000D1000000000093
:00000001FF
