:1000000019C033C032C031C030C02FC02EC02DC087
:100010002CC02BC02AC0FAC028C027C026C025C0CB
:1000200024C023C022C021C020C06BC11EC01DC07F
:100030001CC01BC011241FBECFEFD2E0DEBFCDBF5E
:1000400011E0A0E0B1E0E6E2F4E002C005900D921C
:10005000AC31B107D9F711E0ACE1B1E001C01D92BC
:10006000A532B107E1F702D0DCC1CACF0FD132D13E
:1000700083B7816083BF889583B78E7F83BFF8CFB6
:100080002FB7F894982F907F95B92B9A91E0392F3C
:100090003A95F1F72B9832E03A95F1F78295807F07
:1000A00085B92B9A9A95F1F72B982FBF8AE68A95F6
:1000B000F1F708952FB7F894982F907F946095B931
:1000C0002B9A91E0392F3A95F1F72B9832E03A9537
:1000D000F1F78295807F846085B92B9A9A95F1F724
:1000E0002B982FBF8AE68A95F1F7089515B880E31B
:1000F00095E70197F1F798E395B921E0822F8A956A
:10010000F1F780E385B9E8E0F0E23197F1F795B9CE
:10011000322F3A95F1F785B9E8ECF0E03197F1F735
:1001200095B9922F9A95F1F785B99AE6892F8A9514
:10013000F1F788E285B92A95F1F780E285B99A95B9
:10014000F1F7089588E29CDF86E09ADF8CE098DF83
:1001500081E096DF80ED9CE00197F1F70895CF9361
:10016000DF93EC0102C02196A5DF88818823D9F7AF
:10017000DF91CF910895623031F0633031F061301A
:1001800029F4805C03C08C5E01C08C5A806878DFE3
:1001900008959093C5008093C40088E18093C100C6
:1001A0008CE08093C2000895982F8091C00085FF55
:1001B000FCCF9093C60008958091C00087FFFCCFCC
:1001C0008091C600089502C08091C6008091C00051
:1001D00087FDFACF0895FC0107C08091C00085FF1C
:1001E000FCCF31969093C60090819923B1F7089582
:1001F00016BC089593E0899F90011124C9010895C8
:1002000098EC899F90011124C90108951F920F92C3
:100210000FB60F9211240F931F932F933F934F9379
:100220005F936F937F938F939F93AF93BF93EF935E
:10023000FF9386B58093240116BC28EC829FC001F1
:10024000112490931D0180931C010EE111E0B8016F
:100250004AE050E0C2D086E061E08DDFC8017FDF78
:1002600080E091E07CDFFF91EF91BF91AF919F9192
:100270008F917F916F915F914F913F912F911F913E
:100280000F910F900FBE0F901F90189584E88093E8
:1002900066008FEF84B98BB929DF54DF80E060E01E
:1002A0006ADF8BE091E05BDF80E061E064DF82E1A8
:1002B00091E055DF87E085BD81EE98E0909389005D
:1002C0008093880082E080936F008DE080938100AE
:1002D000789408958FEA80937A0010927B0080E6EC
:1002E00080937C0008958091790008952091780092
:1002F00040917900942F80E030E0282B392BC90100
:1003000008951F920F920FB60F9211240F931F930F
:100310002F933F934F935F936F937F938F939F930D
:10032000AF93BF93EF93FF938091790090E024E621
:1003300030E0AC01429FC001439F900D529F900D51
:1003400011246FEF70E022D0CB010EE111E0B80173
:100350004AE050E042D08CE060E00DDFC801FFDEF3
:1003600087E191E0FCDEFF91EF91BF91AF919F910A
:100370008F917F916F915F914F913F912F911F913D
:100380000F910F900FBE0F901F90189597FB092E9D
:1003900007260AD077FD04D00CD006D000201AF42E
:1003A000709561957F4F0895F6F7909581959F4FD1
:1003B0000895AA1BBB1B51E107C0AA1FBB1FA617AC
:1003C000B70710F0A61BB70B881F991F5A95A9F7FE
:1003D00080959095BC01CD010895FB019F014230AD
:1003E0006CF045325CF4642F7727E3DF805D8A335D
:1003F0000CF0895D8193CB010097A9F71082C901A8
:1004000000C0DC01FC01672F71917723E1F732977F
:1004100004C07C916D9370836291AE17BF07C8F3DF
:060420000895F894FFCFDF
:100426002072706D202020202020004761736573A4
:0C0436003A005265763A002520200000B4
:00000001FF
