:100000000C9422030C943F030C943F030C943F0385
:100010000C943F030C943F030C943F030C943F0358
:100020000C943F030C943F030C943F030C943F0348
:100030000C943F030C943F030C943F030C943F0338
:100040000C943F030C943F030C943F030C943F0328
:100050000C943F03000000000000000000000000BE
:100060000000000000000000183C3C3C181800187C
:100070001800000000000000666666000000000036
:10008000000000000000000036367F3636367F362E
:1000900036000000000018183C666030180C066638
:1000A0003C18180000000070D8DA760C18306E5B2F
:1000B0001B0E000000000000386C6C38606F666634
:1000C0003B000000000000001818180000000000AD
:1000D00000000000000000000C18183030303030F4
:1000E00018180C00000000003018180C0C0C0C0C38
:1000F00018183000000000000000361C7F1C36007D
:100100000000000000000000000018187E18180011
:1001100000000000000000000000000000001C1CA7
:100120000C180000000000000000007E000000002D
:1001300000000000000000000000000000001C1C87
:100140000000000000000006060C0C18183030609B
:10015000600000000000001E333737333B3B331E86
:10016000000000000000000C1C7C0C0C0C0C0C0CA3
:10017000000000000000003C6666060C1830607E3F
:10018000000000000000003C6666061C0666663C37
:10019000000000000000003030363636667F06066C
:1001A000000000000000007E6060607C06060C78A5
:1001B000000000000000001C18307C666666663C8B
:1001C000000000000000007E060C0C1818303030D3
:1001D000000000000000003C6666763C6E66663CEF
:1001E000000000000000003C666666663E0C1838A1
:1001F0000000000000000000001C1C0000001C1C8F
:100200000000000000000000001C1C0000001C1C7E
:100210000C180000000000060C18306030180C06A6
:10022000000000000000000000007E007E000000D2
:10023000000000000000006030180C060C18306050
:10024000000000000000003C66660C18180018183A
:10025000000000000000007EC3C3CFDBDBCFC07F07
:1002600000000000000000183C6666667E66666658
:10027000000000000000007C6666667C6666667CA6
:10028000000000000000003C666660606066663C3E
:1002900000000000000000786C66666666666C7898
:1002A000000000000000007E6060607C6060607E96
:1002B000000000000000007E6060607C60606060A4
:1002C000000000000000003C666660606E66663EEE
:1002D00000000000000000666666667E6666666670
:1002E000000000000000003C181818181818183CEE
:1002F0000000000000001E0C0C0C0C0CCCCCCC78C8
:100300000000000000000066666C6C786C6C66662D
:100310000000000000000060606060606060607E5F
:10032000000000000000006363776B6B6B63636326
:10033000000000000000006363737B6F676363630A
:10034000000000000000003C666666666666663C6B
:10035000000000000000007C6666667C60606060F3
:10036000000000000000003C666666666666663C4B
:100370000C0600000000007C6666667C6C666666A3
:10038000000000000000003C666030180C06663C6F
:10039000000000000000007E18181818181818181F
:1003A0000000000000000066666666666666663CE1
:1003B00000000000000000666666666666663C181F
:1003C000000000000000006363636B6B6B36363621
:1003D0000000000000000066663418182C6666668F
:1003E00000000000000000666666663C18181818D9
:1003F000000000000000007E06060C183060607EE1
:10040000000000000000003C303030303030303030
:1004100030303C000000006060303018180C0C06D2
:10042000060000000000003C0C0C0C0C0C0C0C0C2A
:100430000C0C3C0000183C660000000000000000AE
:1004400000000000000000000000000000000000AC
:100450000000FF000038180C000000000000000041
:100460000000000000000000003C06063E66663EFC
:100470000000000000000060607C66666666667CC6
:100480000000000000000000003C66606060663C08
:100490000000000000000006063E66666666663ED6
:1004A0000000000000000000003C66667E60603CCA
:1004B000000000000000001E3030307E3030303050
:1004C0000000000000000000003E66666666663EB2
:1004D00006067C0000000060607C666666666666F4
:1004E0000000000000001818007818181818187E6E
:1004F0000000000000000C0C003C0C0C0C0C0C0C60
:100500000C0C7800000000606066666C786C6666B3
:100510000000000000000078181818181818187E3D
:100520000000000000000000007E6B6B6B6B6B63D3
:100530000000000000000000007C666666666666DB
:100540000000000000000000003C66666666663C35
:100550000000000000000000007C66666666667CA5
:100560006060600000000000003E66666666663EF1
:10057000060606000000000000666E7060606060A5
:100580000000000000000000003E60603C06067CA9
:100590000000000000000030307E30303030301E6F
:1005A0000000000000000000006666666666663EA9
:1005B00000000000000000000066666666663C18E9
:1005C000000000000000000000636B6B6B6B3636B0
:1005D00000000000000000000066663C183C6666F3
:1005E0000000000000000000006666666666663C6B
:1005F0000C18F00000000000007E060C1830607E31
:10060000000000000000000C1818183060301818A6
:10061000180C0000000000181818181818181818DE
:1006200018181800000000301818180C060C1818BC
:100630001830000000000071DB8E00000000000098
:100640000000000011241FBECFE5D8E0DEBFCDBF03
:1006500015E1A0E6B0E0E8E3F7E102C005900D92F5
:10066000A638B107D9F715E1A6E8B5E101C01D929A
:10067000AA38B107E1F70E9441030C949A0B0C943D
:1006800000000F931F938D9882B38FEF82BB84BBC2
:100690000E949A0480E098EF0E94530484E190E065
:1006A00066E970E040E650E02FEF3FEF00E018EF22
:1006B0000E942504FFCF089508950F931F938C0186
:1006C000C29ADF98DE98C39A81E090E00E945B03B3
:1006D00015BB81E090E00E945B03C398C39A81E060
:1006E00090E00E945B0305BB81E090E00E945B0309
:1006F000C398DE9A1F910F9108951F93182FC29AE5
:10070000DF9ADE98C39A95BB81E090E00E945B037C
:10071000C398C39A81E090E00E945B0315BB81E01F
:1007200090E00E945B03C398DE9A1F910895AF92F8
:10073000BF92CF92DF92FF920F931F93CF93DF93DD
:10074000182F5B016A0182E290E00E945D03C12FD5
:10075000D0E084E0CC0FDD1F8A95E1F7CC5AD14080
:10076000FF24FE01049110E007FF02C0C50101C093
:10077000C6010E947D031F5F183011F0000FF4CFF7
:10078000F3942196F0E1FF1661F7DF91CF911F916D
:100790000F91FF90DF90CF90BF90AF9008950F938F
:1007A0001F938B010E945D03C8010E947D031F916E
:1007B0000F9108950F931F939C018B0180E290E0AD
:1007C000B9010E94CF0381E290E0B8010E94CF03FB
:1007D0001F910F910895AF92BF92CF92DF92EF9247
:1007E000FF920F931F938C015B016A017901E61A56
:1007F000F70A87E391E0E80EF91EC801B7010E94ED
:10080000DA0380E590E0B8010E94CF030150104068
:100810000C0D1D1D81E590E0B8010E94CF0368E337
:1008200071E06A197B0982E590E00E94CF0383E5BD
:1008300090E0B7010E94CF031F910F91FF90EF90BE
:10084000DF90CF90BF90AF900895AF92BF92CF92BC
:10085000DF92EF92FF920F931F93CF93DF937C0170
:100860005B01EA01690111C0C501B7014FE050E029
:1008700028E030E00E94EB038991B601A8010E94B4
:10088000970388E090E0E80EF91E8881882361F7DD
:10089000DF91CF911F910F91FF90EF90DF90CF905C
:1008A000BF90AF9008950F931F938C0180E290E06A
:1008B00060E070E00E94CF0381E290E060E070E0D1
:1008C0000E94CF0380E590E060E070E00E94CF03DB
:1008D00081E590E06FEE70E00E94CF0382E590E04A
:1008E00060E070E00E94CF0383E590E06FE371E089
:1008F0000E94CF0382E290E00E945D03C29ADF9AD9
:10090000DE9880E090E0A0E0B0E0C39A15BBC39809
:10091000C39A05BBC3980196A11DB11D80302CE27E
:10092000920721E0A20720E0B20779F7DE9A1F9133
:100930000F9108958E9AD69AD79ABB9ABA9AB99A75
:10094000C19884E690E00E945C03C19A84E690E03E
:100950000E945C0383EE90E068E070E30E94CF03A6
:1009600087EE90E062E170E00E94CF038FEE90E0AE
:1009700061E372E10E94CF0380E090E061E070E00B
:100980000E94CF0381E090E060E070E00E94CF031E
:1009900082E090E060E077E00E94CF0383E090E0A7
:1009A00068E170E10E94CF0384E090E060E070E0D5
:1009B0000E94CF0388E090E064E074E00E94CF03DF
:1009C00089E090E060E070E00E94CF038AE090E070
:1009D00060E070E00E94CF0380E190E060E870E0AA
:1009E0000E94CF0381E190E067E070E00E94CF03B6
:1009F00082E190E060E070E00E94CF0383E190E04C
:100A000060E070E00E94CF0387E090E061E070E07A
:100A10000E94CF0380ED97E00E945C0380E190E0AC
:100A200060E975E10E94CF0381E190E067E272E046
:100A30000E94CF0388EE93E00E945C0382E190E085
:100A40006EE170E00E94CF0388EE93E00E945C03A9
:100A500083E190E060E075E10E94CF0389E290E0DD
:100A600068E270E00E94CF038BE290E06FE070E0FC
:100A70000E94CF0384EF91E00E945C0380E290E04B
:100A800060E070E00E94CF0381E290E06FE371E0EC
:100A90000E94CF0380E390E067E070E00E94CF0304
:100AA00081E390E067E077E00E94CF0382E390E08B
:100AB00067E071E00E94CF0385E390E066E072E0BA
:100AC0000E94CF0386E390E066E074E00E94CF03CB
:100AD00087E390E061E071E00E94CF0388E390E05B
:100AE00061E071E00E94CF0389E390E067E072E08B
:100AF0000E94CF038CE390E064E075E00E94CF0396
:100B00008DE390E066E078E00E94CF0380E590E01E
:100B100060E070E00E94CF0381E590E06FEE70E04E
:100B20000E94CF0382E590E060E070E00E94CF0376
:100B300083E590E06FE371E00E94CF0380E690E0F0
:100B400060E077E20E94CF0381E690E061E070E030
:100B50000E94CF038AE690E060E070E00E94CF033D
:100B600080E890E060E070E00E94CF0381E890E0D0
:100B700060E070E00E94CF0382E890E060E070E007
:100B80000E94CF0383E890E060E070E00E94CF0312
:100B900084E890E060E070E00E94CF0385E890E098
:100BA00060E070E00E94CF0380E990E060E170E0D7
:100BB0000E94CF0382E990E060E076E00E94CF03DC
:100BC00083E990E063E070E00E94CF0385E990E064
:100BD00060E171E00E94CF0387E990E060E070E09F
:100BE0000E94CF0388E990E060E070E00E94CF03AC
:100BF00087E090E063E771E00E94CF0380E090E03F
:100C00000E94530480ED97E00E945C03969A089539
:100C1000AF92BF92CF92DF92EF92FF920F931F930A
:100C200080E290E060E070E00E94CF0381E290E01B
:100C300060E070E00E94CF03EE24FF24870180E58E
:100C400090E060E070E00E94CF0381E590E06FEEFD
:100C500070E00E94CF0382E590E060E070E00E94C7
:100C6000CF0383E590E06FE371E00E94CF0382E25F
:100C700090E00E945D03AA24BB246501E114F10405
:100C80000105110529F48FE190E00E947D031FC04A
:100C900081E0E816F1040105110529F480E098EFE0
:100CA0000E947D031DC082E0E816F10401051105D4
:100CB00029F480EE97E00E947D031BC083E0E816D4
:100CC000F1040105110519F48FEF97E01AC084E0D3
:100CD000E816F1040105110519F48FE198EF11C030
:100CE00085E0E816F1040105110519F480EE9FEF87
:100CF00008C086E0E816F1040105110521F480E042
:100D000090E00E947D030894A11CB11CC11CD11C61
:100D100080E0A8168CE2B80681E0C80680E0D8061C
:100D200009F0ACCF84E690E00E945C030894E11CDB
:100D3000F11C011D111D87E0E816F10401051105E4
:100D400009F07DCF1F910F91FF90EF90DF90CF9032
:100D5000BF90AF900895EF92FF920F931F939C0165
:100D60008B017A0180E290E0B9010E94CF0381E219
:100D700090E0B8010E94CF0382E290E00E945D0300
:100D8000C7010E947D031F910F91FF90EF9008957E
:100D9000AF92BF92CF92DF92FF920F931F93CF93A8
:100DA000DF93FC01CB01F42E59016801BF014FE034
:100DB00050E028E030E00E94EB0382E290E00E94E5
:100DC0005D03CF2DD0E094E0CC0FDD1F9A95E1F7C5
:100DD000CC5ADE4F00E0FE01F49010E0F7FE02C0B6
:100DE000C50101C0C6010E947D031F5F183011F0CC
:100DF000FF0CF4CF0F5F2196003169F7DF91CF919F
:100E00001F910F91FF90DF90CF90BF90AF9008950A
:100E1000089508952FEF24BB95BBC398C39A85BB53
:100E2000C398C39A81E00895DF98C29A90E00E9427
:100E30000A0708950F931F938B01DE980E941407F1
:100E4000DF9AC29AC8010E940A07DE9A1F910F9189
:100E500008958D9882B38FEF82BB84BBDE9880E0CB
:100E60000E941407DF9AC39A14BAC29833B3C29A85
:100E7000C29823B3932F80E030E0282B392BC29AFD
:100E8000DE9A309389152093881585E4213338073D
:100E900009F09DC080E061E070E00E941A0780E1E7
:100EA00068E276E00E941A0782E166E070E00E9444
:100EB0001A0783E162E37AE00E941A0781E160E4A5
:100EC00070E00E941A0785E160E570E00E941A0751
:100ED00082E166E170E00E941A0780E160E676E553
:100EE0000E941A0783E16EE47AE20E941A0781E009
:100EF00060E071E00E941A0782E060E073E00E9407
:100F00001A0783E060E370E10E941A0788E062E05C
:100F100072E00E941A078AE060E070E00E941A07FF
:100F200080E360E070E00E941A0781E362E074E011
:100F30000E941A0782E366E071E00E941A0783E3C9
:100F400060E077E00E941A0784E364E071E00E94A9
:100F50001A0785E361E073E00E941A0786E367E001
:100F600077E00E941A0787E365E073E00E941A07A2
:100F700088E368E072E00E941A0789E36BE07FE093
:100F80000E941A0781E462E070E00E941A0780E67E
:100F900060E077E20E941A0781E661E070E00E945B
:100FA0001A0780E969E171E00E941A0782E96AE0A4
:100FB00071E00E941A0783E964E070E00E941A075A
:100FC00080EA60E071E00E941A0780EA04C12052C2
:100FD000334909F004C185EE60E070E80E941A0709
:100FE00080E061E070E00E941A0781E060E071E05B
:100FF0000E941A0782E060E077E00E941A0783E00F
:1010000060E370E10E941A0784E060E070E00E94F3
:101010001A0788E062E072E00E941A0789E060E047
:1010200070E00E941A078AE060E070E00E941A07F0
:101030008CE060E070E00E941A078DE060E070E0F4
:101040000E941A078FE060E070E00E941A0780E1BA
:1010500060E070E00E941A0781E160E070E00E94A9
:101060001A0782E160E070E00E941A0783E160E005
:1010700070E00E941A0780E160EB77E10E941A0796
:1010800081E167E371E00E941A0782E169E371E0A0
:101090000E941A0783E160E07DE10E941A0789E25D
:1010A00063E170E00E941A0780E260E070E00E9455
:1010B0001A0781E260E070E00E941A0780E366E0B0
:1010C00070E00E941A0781E361E071E00E941A0754
:1010D00082E363E070E00E941A0785E366E071E056
:1010E0000E941A0786E362E07BE00E941A0787E30A
:1010F00062E073E00E941A0788E367E077E00E94ED
:101100001A0789E367E070E00E941A078CE360E049
:1011100076E00E941A078DE36BE072E00E941A07E6
:1011200080E560E070E00E941A0781E56FEE70E0F4
:101130000E941A0782E560E070E00E941A0783E5CA
:101140006FE371E00E941A0780E660E077E20E9498
:101150001A0781E661E070E00E941A078AE660E003
:1011600070E00E941A0780E860E070E00E941A07B1
:1011700081E860E070E00E941A0782E860E070E0B9
:101180000E941A0783E860E070E00E941A0784E872
:1011900060E070E00E941A0785E860E070E00E945D
:1011A0001A0780E960E170E00E941A0782E960E0B6
:1011B00070E00E941A0783E963E070E00E941A075A
:1011C00085E960E171E00E941A0787E960E070E05C
:1011D0000E941A0788E960E070E00E941A0783E025
:1011E00068E370E10E941A0787E063E771E00E94FC
:1011F0001A07089580E560E070E00E941A0781E513
:101200006FEE70E00E941A0782E560E070E00E94D5
:101210001A0783E56FE371E00E941A0708950F93A0
:101220001F938C0180E20E941A076FE371E0601B3C
:10123000710B81E20E941A07DE9882E20E94140775
:101240008091861590918715DF9AC29A0E940A07AD
:10125000DE9A1F910F9108959093871580938615BC
:10126000089590938515809384150895EF92FF92C9
:101270000F931F93CF93DF93EC010E94FA0880E253
:1012800060E070E00E941A0781E260E070E00E9476
:101290001A07DE9882E20E941407DF9AEE24FF24E8
:1012A0008701CE010E940A070894E11CF11C011D70
:1012B000111D80E0E8168CE2F80681E0080780E066
:1012C000180779F7DE9ADF91CF911F910F91FF9068
:1012D000EF900895CF92DF92EF92FF920F931F93BA
:1012E000CF93DF937B016A0100E311E0081B190B28
:1012F00080E50E941A07B701695E7F4F81E50E9471
:101300001A0782E5B8010E941A07B801615F7F4F92
:1013100083E50E941A0780E2B7010E941A0781E262
:10132000B8010E941A07DE9882E20E941407DF9A31
:1013300000E010E081E0E82EF12C27C0C7010C2E60
:1013400002C0880F991F0A94E2F7F60120813181CB
:1013500082239323892B29F48091841590918515FC
:1013600004C080918615909187150E940A072197E5
:10137000FFEFCF3FDF0711F70F5F1F4F0831110558
:1013800039F082E090E0C80ED91ECFE0D0E0D6CF91
:10139000DE9ADF91CF911F910F91FF90EF90DF9038
:1013A000CF9008959B01BC01660F771F680F791FCE
:1013B00053E0660F771F5A95E1F7405280E3489F4C
:1013C000A00111244C575F4FC90124E0880F991FD9
:1013D0002A95E1F70E946A090895CF92DF92EF9271
:1013E000FF920F931F93CF93DF936C01EB017A0170
:1013F0000E94FA080BC08E010F5F1F4F0894E11C7A
:10140000F11CC601BE010E94D209E801F70140812A
:10141000442389F7DF91CF911F910F91FF90EF90B7
:10142000DF90CF9008950F931F938C010E94FA08CC
:10143000C80160E070E04FE650E00E94ED091F91A6
:101440000F9108954F925F926F927F928F929F9229
:10145000AF92BF92CF92DF92EF92FF920F931F93C2
:10146000CF93DF935B016A012901EE24FF24E81A80
:10147000F90A80E491E0E80EF91EE41AF50A80E525
:101480000E941A07B501695E7F4F81E50E941A0725
:1014900082E5B7010E941A073601089461087108B5
:1014A000B3016E0D7F1D83E50E941A070C9D40015C
:1014B0000D9D900C1C9D900C1124892C99248694D0
:1014C000869480E2B5010E941A0781E2B7010E946A
:1014D0001A07DE9882E20E941407DF9AC0E0D0E08B
:1014E00015C0830110C00815190528F080918415D6
:1014F0009091851504C080918615909187150E9462
:101500000A070150104017FFEECF2196C415D505EC
:1015100040F3DE9ADF91CF911F910F91FF90EF90F2
:10152000DF90CF90BF90AF909F908F907F906F9003
:101530005F904F9008956F927F928F929F92AF929B
:10154000BF92CF92DF92EF92FF920F931F93CF93B0
:10155000DF937B016A013901480100271127081B2D
:10156000190B005C1E4F041B150B80E50E941A0727
:10157000B70161507040660D771D81E50E941A0722
:1015800082E5B8010E941A07B60161507040600FF1
:10159000711F83E50E941A0780E2B7010E941A07B3
:1015A00081E2B8010E941A07DE9882E20E941407C5
:1015B000DF9A0894C108D1089601220F331F0894BE
:1015C000C11CD11C86010F5F1F4F000F111F020F9E
:1015D000131FC601880F991F081B190B820E931E3B
:1015E000AA24BB2416C07401C0E0D0E00AC0F701F1
:1015F000808191812EEF3FEFE20EF31E0E940A07D9
:101600002196CC15DD0598F30894A11CB11C800E21
:10161000911EA614B70438F3DE9ADF91CF911F9183
:101620000F91FF90EF90DF90CF90BF90AF909F9081
:101630008F907F906F9008956F927F928F929F927C
:10164000AF92BF92CF92DF92EF92FF920F931F93D0
:10165000CF93DF936B015A014901780100271127CD
:10166000081B190B005C1E4F041B150B80E50E9424
:101670001A07B60161507040680D791D81E50E941E
:101680001A0782E5B8010E941A07B501615070403F
:10169000600F711F83E50E941A0780E2B6010E9465
:1016A0001A0781E2B8010E941A07DE9882E20E94BE
:1016B0001407DF9A8A9C80018B9C100D9A9C100D58
:1016C000112401501048000F111F0E0D1F1DCC24B6
:1016D000DD24C501880F991F66247724681A790ACA
:1016E00012C0F701808191812EEF3FEFE20EF31ED1
:1016F0000E940A072196CA15DB0598F3060D171DEF
:101700000894C11CD11CC814D90420F47801C0E08D
:10171000D0E0F1CFDE9ADF91CF911F910F91FF9032
:10172000EF90DF90CF90BF90AF909F908F907F9081
:081730006F900895F894FFCFBB
:10173800657066205375706572736F6E69630020FB
:101748002020202020202020202020202020202091
:101758002020200000000000000000000000000021
:101768000000000000000000000000000000000071
:101778000000000000000000000000000000000061
:1017880000000000000080018001800180018001CC
:101798008001800180018001800180018001800139
:1017A800000000008001800100000000000000002F
:1017B8000000000000000000CC00CC00CC00CC00F1
:1017C800CC00CC0000000000000000000000000079
:1017D8000000000000000000000000000000000001
:1017E80000000000000000000000000000000000F1
:1017F800600C600C600C30063006FE1FFE1F3006C1
:1018080038071803FE1FFE1F180318038C018C01EC
:101818008C01000000008000E003F80F9C0E8C1C77
:101828008C188C009800F801E007800E801C8C183A
:101838008C189C18B80CF00FE003800080000000A2
:10184800000000000000000000000E181B0C110C26
:1018580011061106110311039B018E01C038C06CDB
:1018680060446044304430441844186C0C3800001C
:10187800000000000000E001F00338071806180611
:101888003003F001F000F8009C310E33061E061CF0
:10189800061C063FFC73F021000000000000000059
:1018A80000000000000000000C000C000C000C0000
:1018B8000C000C0000000000000000000000000008
:1018C8000000000000000000000000000000000010
:1018D800000000000000000200038001C000C000FA
:1018E8006000600030003000300030003000300010
:1018F8003000300060006000C000C00080010003BC
:1019080000020000000020006000C000800180018B
:101918000003000300060006000600060006000695
:10192800000600060003000380018001C00060007B
:10193800200000000000000000000000000000007F
:10194800C000C000D806F807E001300338070000DF
:10195800000000000000000000000000000000007F
:10196800000000000000000000000000000000006F
:1019780080018001800180018001FC3FFC3F8001E3
:10198800800180018001800100000000000000004B
:10199800000000000000000000000000000000003F
:1019A800000000000000000000000000000000002F
:1019B800000000000000800180010001000180009B
:1019C800000000000000000000000000000000000F
:1019D800000000000000000000000000E007E00731
:1019E80000000000000000000000000000000000EF
:1019F80000000000000000000000000000000000DF
:101A080000000000000000000000000000000000CE
:101A1800000000000000C000C0000000000000003E
:101A2800000000000000000C000C00060006000684
:101A38000003000300038003800180018001C000CF
:101A4800C000C0006000600000000000000000004E
:101A5800000000000000E003F007380E180C0C1816
:101A68000C180C180C180C180C180C180C180C184E
:101A7800180C380EF007E00300000000000000001A
:101A880000000000000000018001C001F001980181
:101A9800880180018001800180018001800180012E
:101AA800800180018001800100000000000000002A
:101AB800000000000000E003F80F180C0C180C18C8
:101AC80000180018000C000600038001C000600028
:101AD80030001800FC1FFC1F000000000000000080
:101AE800000000000000E001F807180E0C0C0C0CB8
:101AF800000C0006C003C007000C001800180C18E2
:101B08000C18180CF807E0030000000000000000A3
:101B1800000000000000000C000E000F000F800DF8
:101B2800C00C600C600C300C180C0C0CFC3FFC3F1B
:101B3800000C000C000C000C00000000000000006D
:101B4800000000000000F80FF80F180018000C0043
:101B5800EC03FC071C0E001C0018001800180C18D9
:101B68001C0C180EF807E00300000000000000003D
:101B7800000000000000C007F00F381C18181800FB
:101B88000C00CC03EC0F3C0E1C1C0C180C180C1889
:101B9800181C380EF007E0030000000000000000E9
:101BA800000000000000FC1FFC1F000C00060006DF
:101BB800000380038001C001C000E00060006000F5
:101BC800700030003000300000000000000000000D
:101BD800000000000000E003F007380E180C180C95
:101BE800180C3806F007F007180C0C180C180C180D
:101BF8000C18380CF80FE00300000000000000008B
:101C0800000000000000E003F007380E1C0C0C1860
:101C18000C180C181C1C381EF81BE0190018000CB6
:101C2800000C1C0EF807F001000000000000000086
:101C3800000000000000000000000000000000009C
:101C4800800180010000000000000000000000008A
:101C5800000000008001800100000000000000007A
:101C6800000000000000000000000000000000006C
:101C7800800180010000000000000000000000005A
:101C880000000000800180010001000180000000C8
:101C9800000000000000000000000000000000003C
:101CA800000000000010001C800FE003F80018007E
:101CB800F800E003800F001C001000000000000086
:101CC800000000000000000000000000000000000C
:101CD80000000000F81F000000000000F81F0000CE
:101CE80000000000000000000000000000000000EC
:101CF80000000000000000000000000000000000DC
:101D08000000000008003800F001C007001F00189C
:101D1800001FC007F00138000800000000000000A4
:101D2800000000000000E003F80F180C0C180C1855
:101D38000018000C000600038001C000C000C000AD
:101D480000000000C000C00000000000000000000B
:101D58000000000000000000E00718180420C22955
:101D6800224A114409440944094409221113E20C86
:101D7800024004201818E0070000000000000000DE
:101D880000000000000080038003C006C006C006F3
:101D9800600C600C301830183018F83FF83F1C7091
:101DA8000C600C6006C006C00000000000000000C7
:101DB800000000000000FC03FC0F0C0C0C180C18B1
:101DC8000C180C0CFC07FC0F0C180C300C300C30E9
:101DD8000C300C18FC1FFC0700000000000000007D
:101DE800000000000000C007F01F38381C300C70DD
:101DF80006600600060006000600060006000660EB
:101E08000C701C30F01FE00700000000000000000C
:101E1800000000000000FE03FE0F060E061806185C
:101E28000630063006300630063006300630061812
:101E38000618060EFE0FFE0300000000000000005A
:101E4800000000000000FC3FFC3F0C000C000C00F0
:101E58000C000C00FC1FFC1F0C000C000C000C00FC
:101E68000C000C00FC3FFC3F0000000000000000DC
:101E7800000000000000F83FF83F180018001800A4
:101E880018001800F81FF81F18001800180018008C
:101E980018001800180018000000000000000000DA
:101EA800000000000000E00FF83F3C780E6006E0FC
:101EB80007C00300030003FE03FE03C007C006C0FB
:101EC8000EC03CF0F83FE00F0000000000000000EA
:101ED8000000000000000C300C300C300C300C30CE
:101EE8000C300C30FC3FFC3F0C300C300C300C300C
:101EF8000C300C300C300C300000000000000000EA
:101F08000000000000008001800180018001800144
:101F180080018001800180018001800180018001B1
:101F280080018001800180010000000000000000A5
:101F3800000000000000000600060006000600067B
:101F48000006000600060006000600060006180641
:101F580018063807F003E001000000000000000048
:101F680000000000000006300618060C06060603EE
:101F78008601C60066007600DE008E0106030606AE
:101F8800060C06180630066000000000000000007D
:101F980000000000000018001800180018001800C1
:101FA8001800180018001800180018001800180069
:101FB80018001800F81FF81F0000000000000000BB
:101FC8000000000000000EE01EF01EF01EF036D8E3
:101FD80036D836D836D866CC66CC66CCC6C6C6C621
:101FE800C6C6C6C686C386C300000000000000003F
:101FF8000000000000000C301C303C303C306C30DD
:102008006C30CC30CC308C310C330C330C360C3675
:102018000C3C0C3C0C380C300000000000000000A8
:10202800000000000000E007F81F1C380E70066072
:1020380003C003C003C003C003C003C003C00660DD
:102048000E701C38F81FE0070000000000000000B8
:10205800000000000000FC0FFC1F0C380C300C3096
:102068000C300C300C18FC1FFC070C000C000C008A
:102078000C000C000C000C00000000000000000028
:10208800000000000000E007F81F1C380E70066012
:1020980003E003C003C003C003C003C007E0066336
:1020A8000E3F1C3CF83FE0F700C0000000000000B5
:1020B800000000000000FE0FFE1F06380630063044
:1020C80006300638FE1FFE0706030606060C06182D
:1020D8000618063006300660000000000000000008
:1020E800000000000000E003F80F1C0C0C180C188E
:1020F8000C001C00F803E00F001E00380630063004
:102108000E301C1CF80FE007000000000000000063
:10211800000000000000FE7FFE7F8001800180013A
:10212800800180018001800180018001800180019F
:102138008001800180018001000000000000000093
:102148000000000000000C300C300C300C300C305B
:102158000C300C300C300C300C300C300C300C3097
:102168000C301818F81FE0070000000000000000FD
:1021780000000000000003600630063006300C182E
:102188000C180C18180C180C380E3006300670078E
:1021980060036003C001C0010000000000000000EF
:1021A8000000000000000360C361C361C3616633BF
:1021B800663366336633663366336C1B6C1B6C1B85
:1021C8002C1A3C1E380E380E0000000000000000DB
:1021D8000000000000000FE00C7018303018700C80
:1021E800600EC00780038003C003E006700C301C3B
:1021F80018180C300E6007E0000000000000000016
:1022080000000000000003C006600C301C383818BD
:10221800300C6006E007C003800180018001800166
:1022280080018001800180010000000000000000A2
:10223800000000000000FC7FFC7F006000300018F8
:10224800000C000600038001C00060003000180088
:102258000C000600FE7FFE7F00000000000000006A
:10226800000000000000E003E00360006000600080
:102278006000600060006000600060006000600056
:102288006000600060006000600060006000E003C3
:10229800E0030000000030003000600060006000D3
:1022A800C000C000C000C00180018001800100039F
:1022B8000003000300060006000000000000000004
:1022C800000000000000E003E00300030003000337
:1022D80000030003000300030003000300030003DE
:1022E8000003000300030003000300030003E003EE
:1022F800E003000000000000C001C00160036003AB
:10230800600330063006180C180C000000000000AE
:1023180000000000000000000000000000000000B5
:1023280000000000000000000000000000000000A5
:102338000000000000000000000000000000000095
:10234800000000000000FFFFFFFF00000000000089
:102358000000000000000C000C000C000C000C0039
:102368000C00000000000000000000000000000059
:102378000000000000000000000000000000000055
:102388000000000000000000000000000000000045
:10239800F003F8071C0C0C0C000FF00FF80C0C0CD9
:1023A8000C0C1C0FF80FF0180000000000000000D3
:1023B800000000000000180018001800180018009D
:1023C800D803F80F380C18181818181818181818EF
:1023D8001818380CF80FD80300000000000000009F
:1023E80000000000000000000000000000000000E5
:1023F800C003F007300E180C180018001800180059
:10240800180C300EF007C0030000000000000000A8
:10241800000000000000001800180018001800183C
:10242800C01BF01F301C181818181818181818187E
:102438001818301CF01FC01B00000000000000002E
:102448000000000000000000000000000000000084
:10245800C003F00F300C1818F81FF81F18001800E8
:102468003818301CF00FC007000000000000000002
:10247800000000000000800FC00FC000C000C000B6
:10248800F007F007C000C000C000C000C000C000D6
:10249800C000C000C000C000000000000000000034
:1024A8000000000000000000000000000000000024
:1024B800E00DF80F180E0C0C0C0C0C0C0C0C0C0C82
:1024C8000C0C180EF80FE00D000C0C0C1C06F8078D
:1024D800F00100000000180018001800180018008B
:1024E800D807F80F381C18181818181818181818BA
:1024F8001818181818181818000000000000000014
:10250800000000000000C000C00000000000000043
:10251800C000C000C000C000C000C000C000C000B3
:10252800C000C000C000C0000000000000000000A3
:10253800000000000000C000C00000000000000013
:10254800C000C000C000C000C000C000C000C00083
:10255800C000C000C000C000C000C000C000F8003B
:102568007800000000000C000C000C000C000C00AF
:102578000C0C0C060C038C01CC006C00FC009C01BC
:102588008C030C030C060C0C00000000000000007B
:10259800000000000000C000C000C000C000C00073
:1025A800C000C000C000C000C000C000C000C00023
:1025B800C000C000C000C000000000000000000013
:1025C8000000000000000000000000000000000003
:1025D8007C3CFF7EC7E383C183C183C183C183C1C0
:1025E80083C183C183C183C10000000000000000D3
:1025F80000000000000000000000000000000000D3
:102608009807F80F381C18181818181818181818D8
:1026180018181818181818180000000000000000F2
:1026280000000000000000000000000000000000A2
:10263800C003F00F300C18181818181818181818A4
:102648001818300CF00FC003000000000000000054
:102658000000000000000000000000000000000072
:10266800D803F80F380C181818181818181818184C
:102678001818380CF80FD80318001800180018009C
:10268800180000000000000000000000000000002A
:10269800C01BF01F301C181818181818181818180C
:1026A8001818301CF01FC01B00180018001800185C
:1026B80000180000000000000000000000000000FA
:1026C800B007F003700030003000300030003000F8
:1026D8003000300030003000000000000000000032
:1026E80000000000000000000000000000000000E2
:1026F800E003F003380E180C3800F003C007000C94
:10270800180C380EF007E00300000000000000007D
:1027180000000000000000008000C000C000C000F1
:10272800F007F007C000C000C000C000C000C00033
:10273800C000C000C00780070000000000000000C3
:102748000000000000000000000000000000000081
:1027580018181818181818181818181818181818F1
:102768001818381CF01FE0190000000000000000D5
:102778000000000000000000000000000000000051
:102788000C18180C180C180C3006300630066003AC
:1027980060036003C001C0010000000000000000E9
:1027A8000000000000000000000000000000000021
:1027B800C141C141C36163636363636336363636BF
:1027C80036361C1C1C1C1C1C0000000000000000ED
:1027D80000000000000000000000000000000000F1
:1027E8001C38381C300C6006C003C003C003C0038B
:1027F8006006300C381C1C38000000000000000087
:1028080000000000000000000000000000000000C0
:102818001830301830187018600C600CE00CC006C6
:10282800C00680038003800380018001C001F0009E
:102838007000000000000000000000000000000020
:10284800FC1FFC1F000C000600038001C000600094
:1028580030001800FC1FFC1F0000000000000000F2
:1028680000000000000000038001C000C000C0009C
:10287800C000C000C0006000600030006000400080
:10288800C000C000C000C000C000C000800100033C
:1028980000000000000080018001800180018001AB
:1028A8008001800180018001800180018001800118
:1028B8008001800180018001800180018001800108
:1028C8008001000000006000C000C001800180019C
:1028D800800180018001000300030006000300015D
:1028E800800180018001800180018001C0006000BA
:1028F80000000000000000000000000000000000D0
:1029080000000000F010F81F080F00000000000091
:1029180000000000000000000000000000000000AF
:10292800000000000000000000000000000000009F
:10293800000000000000000000000000000000008F
:10294800000000000000000000000000000000007F
:102958000000000000000000000000000000C003AC
:10296800300C0810042004200240024002400240BB
:102978000240042004200810300CC00300000000AE
:102988000000000000000000000000000000C0037C
:10299800F00FF81FFC3FFC3FFE7FFE7FFE7FFE7FAF
:1029A800FE7FFC3FFC3FF81FF00FC0030000000053
:1029B800000000000000000000000000000000000F
:1029C8000000E007F00F1818181818181818181829
:1029D8001818F00FE00700000000000000000000D9
:1029E80000000000000000000000000000000000DF
:1029F8000000E007F00FF81FF81FF81FF81FF81F76
:102A0800F81FF00FE00700000000000000000000C1
:102A180000000000000000000000000000000000AE
:102A28000000000000000000000000008001C0035A
:102A38006006300C18181818F81FF81F000000005E
:102A4800000000000000000000000000000000007E
:102A58000000000000000000000000008001C0032A
:102A6800E007F00FF81FF81FF81FF81F000000001C
:102A7800000000000000000000000000F81FF81F20
:102A880018181818300C6006C003800100000000F8
:102A9800000000000000000000000000000000002E
:102AA800000000000000000000000000F81FF81FF0
:102AB800F81FF81FF00FE007C003800100000000B6
:102AC80000000000000000000000000000000000FE
:102AD80000000000000000000000000000000000EE
:102AE8000000E001F00198018C01860186018C014B
:102AF8009801F001E0010000000000000000000063
:102B080000000000000000000000000000000000BD
:102B18000000E001F001F801FC01FE01FE01FC01EA
:102B2800F801F001E00100000000000000000000D2
:102B3800000000000000000000000000000000008D
:102B480000008007800F80198031806180618031AA
:102B58008019800F800700000000000000000000BE
:102B6800000000000000000000000000000000005D
:102B780000008007800F801F803F807F807F803F1C
:102B8800801F800F80070000000000000000000088
:102B9800000000000000C0012002200240013006B1
:102BA800080808080808080808080808080820028B
:102BB80020022002200220022002200220022002FD
:102BC800200200000000C001E003E003C001F0079C
:102BD800D80DD80DD80DD80DD80DD80DD80D600347
:102BE80060036003600360036003600360036003C5
:102BF800600300000000C0012002200240013006EE
:102C080008080808080804100220022040012002D1
:102C180020021004080808080410041004200440C6
:102C2800000000000000C001E003E003C001F0075D
:102C3800D80DD80DD80DCC19C631C261C0016003BA
:102C480060037006380C180C0C180C180C300C604B
:062C580000000000FFFF78
:00000001FF
