:100000000C94402D0C9488320C945B2D0C945B2D39
:100010000C945B2D0C945B2D0C945B2D0C945B2D40
:100020000C945B2D0C945B2D0C945B2D0C945B2D30
:100030000C945B2D0C945B2D0C945B2D0C945B2D20
:100040000C945B2D0C945B2D0C945B2D0C945B2D10
:100050000C945B2D3A0440D0121432801716180409
:1000600019021A7B03060C003E0070007100721129
:100070007300A20211827A207B1C7C287D3C7E5575
:100080007F68807681808288838F849685A386AFFF
:1000900087C488D789E813E0000010000D001428F9
:1000A000A505AB072475256326A59F78A068A10345
:1000B000A6DFA7DFA8F0A990AA9413E50E610F4B65
:1000C00016021E37210222912907330B350B371DEB
:1000D0003871392A3C784D404E2069006B407419C4
:1000E0008D4F8E008F0090009100920096009A80B4
:1000F000B084B10CB20EB382B80A431444F0453454
:1001000046584728483A59885A885B445C675D4995
:100110005E0E640465206605940495086C0A6D55AE
:100120006E116F9F6A400140024013E715004F8037
:10013000508051005222535E5480589E41083F0027
:10014000750576E14C0077013DC24B09C960413825
:10015000564034113B02A48996009730982099307C
:100160009A849B299C039D4C9E3F78047901C8F09A
:10017000790FC8007910C87E790AC880790BC80148
:10018000790CC80F790DC8207909C8807902C8C0D8
:100190007903C8407905C830792609033B4200003D
:1001A000000000000000000000000000000000004F
:1001B000000000000000000000000000000000003F
:1001C000000000000000000000000000000000200F
:1001D0000000002000210002000200020023086449
:1001E000000100010000000000610000002000008C
:1001F00000000000000000000000000000000000FF
:1002000000000000000000000000000000000000EE
:1002100000000000000000000000000000000020BE
:1002200000000020000084307BCF39C700000001AF
:100230000842000100000000000000000000000073
:100240000020000000000000082000000000000066
:1002500008820020002010E1004000200040000043
:100260000000082100000822000100010000000039
:10027000000000000000000000000000000000007E
:10028000000000000000000000000000000000006E
:10029000000000000000000000000000002000003E
:1002A00000000000000100020843000200010001FC
:1002B00010A300000000000000000000000000008B
:1002C000000000000000000000000000000000002E
:1002D000000000000000000000000000000000001E
:1002E000000000000000000000000000000000000E
:1002F000084100005AEB4A494208422910630001B4
:1003000008410000000000200020086100000000FB
:10031000000000000000000008200820002100006C
:10032000006100200020002008A0002000000841FB
:1003300008010000000100000000000000000000B3
:1003400000000000000000000000000000000000AD
:10035000000000000000000000000000000000009D
:100360000000000000000000000000200860000005
:100370000000084200000000000000000000002013
:1003800000200861000000000021000000000000C3
:10039000000000000000000000000000000000005D
:1003A000000000000000000000000000000000004D
:1003B000000000000000000000000000000000201D
:1003C0001082632C422839E74A49422939A70000A4
:1003D000108100000000000000000000000000018B
:1003E00000011083000000000000000200021083E2
:1003F000000000200040002000200000000000005D
:1004000000000000002000000000000000000000CC
:1004100000000000000000000000000000000000DC
:1004200000000000000000000000000000000000CC
:1004300000000000000000000000000010815AAA27
:10044000C617082000000020086008800040000057
:10045000000000000000000000000000000000009C
:10046000000000000000000000000000000000008C
:10047000000000000000000000000000000000007C
:10048000000000000000000008410000000031A64C
:100490008430630C42082966210431A7630C0020D4
:1004A0000000002000200000000000010802000100
:1004B000000100010000082200020002000100000B
:1004C00000000060000018C26B2D00010001000058
:1004D000000000400020002000000000000000009C
:1004E000000000000000000000000000000000000C
:1004F00000000000000000000000000000000000FC
:10050000000000000000000018A20800C617F7BE97
:10051000FFFE738C08A00020002000200840084047
:1005200000000000000100000000000000000000CA
:1005300000000000000000000000000000000000BB
:1005400000000001000000000000000000000000AA
:1005500000000000000000000000000042087BEFE7
:100560006B6D5ACB42282945296610815AEB39C652
:1005700008400000000000210822000200020002E2
:10058000108300010001000210430001188308419C
:10059000AD33FFFFFFFFFFDF2925106200000000E1
:1005A00000000020004000000000000000000000EB
:1005B000000000000000000000000000000000003B
:1005C000000000000000000000000000000000002B
:1005D000000000000000000062ECFFFFFFFFF7BE1C
:1005E000FFFEE77B52E83A05002000000000000013
:1005F00000010801000000000000000000000000F1
:1006000000000000000000000000000000000001E9
:1006100000010000000000000000000000000000D9
:10062000000000000000000000004A697BCF73AEAC
:100630006B4D4A694A49294539E710C239E74227D3
:100640002103000000000001000100010001000181
:100650000000000020A441E86B2CFFFEFFFDFFFD21
:10066000FF7BFFDEFFDF49E80001000000200020E3
:10067000002000200000000000000000000000003A
:10068000000000000000000000000000000000006A
:10069000000000000000000000000000000000005A
:1006A000000000000021A4F4FFDFFFFFC65AF7FF9F
:1006B000F7FFEFBEDF3B844F0040084100001063AE
:1006C000000000000000000000000000000000002A
:1006D0000000000000000000000000000000000119
:1006E000000000000000000000000000000000000A
:1006F00000000000000008616B6D8C517BEF6B6D9A
:100700004A6931874209294539C62123294439E7F5
:100710004A4908420000106300000821082062EBEB
:10072000A4D1CE16FFFCFFDAFF99FF98FFFAFF581D
:10073000FF9BFF9C9431000000000000002000405F
:100740000020000000000000000000000000000089
:100750000000000000000000000000000000000099
:100760000000000000000000000000000000000089
:10077000000039E7EF9FF7FFD6FE29CA7413E7BFE1
:10078000F7FFEFDFF7FFCEBBBDF800000000084128
:100790000000000000000000000000000000000059
:1007A0000000000000000000000000000000000049
:1007B0000000000000000000000000000000000039
:1007C0000000084118E38C718C717BCF73AE632DF0
:1007D000526A31A731A6318539C6296521242124E1
:1007E0006B4D0021000020E3BDD6CE78FFFDFFFC5D
:1007F000FFFAFFB6FFF7FFF6FF32E64FD5F0FF37FF
:10080000FFFCFFBD1062000100000000006000203E
:1008100000000000000000000000000000000000D8
:1008200000000000000000000000000000000000C8
:100830000000000000000000000000000000002098
:100840007C31F7DFEFFF4AF0218C116C196C6BF5EE
:10085000DF9FF7FFEFDFF7FFFFFF7C1100200000B5
:100860000000002000000020000000000000000048
:100870000000000000000000000000000020000058
:1008800000000000000008410000002000000000FF
:10089000000018C3AD7584108C717BCF6B4D52ABCB
:1008A00042093186296531A631A531853185084057
:1008B0005289C617EF5BEF5AFFFCFFFCFFF8FFB44D
:1008C000F74FFF2EE68BFEECF68CC529F6D2FFFA29
:1008D000FFFD20C300000001004200000061000095
:1008E0000000000000000000000000000000000008
:1008F00000000000000000000000000000200000D8
:100900000000000000000000086100200020F7FF48
:10091000F7FFBE7D2A0E19AF21F121F1118F21CFF2
:100920007477C6DFEFBFF7FFFFFFFFFF52EB2986AB
:10093000000000000840000000000820082000001F
:1009400000000000000000000000000000000000A7
:1009500000000000000000000020084108410000E5
:100960004A69949294B284308C517BAF5AED4A4AD2
:1009700039A731A631A631A5318529654A4810A18C
:10098000294383EDC614D6B5CE53DEF2DE8CDE6885
:10099000FF0AFF4AF687F668EE2ACD49FF56F73878
:1009A000CE3710820001002200210000000000006C
:1009B0000000000000000000000000000000000037
:1009C0000000000000000000000000000000000027
:1009D0000000084100000000000094F2F7FFD75F1C
:1009E0007476090C21F219D219D221F2096F198DEE
:1009F000196B532FADD9FFFFF7FFFFFFE79F6BAFD9
:100A000010C30000000008400000000000000000CB
:100A10000000000000200020002000200000000056
:100A200000200020084100000000000008418C5117
:100A30009CD38C719CD384306B6E6B2E528B39C8D7
:100A40003186318631A63185318531A5296421026F
:100A500018E14A658C6CA54EBDCDBDA7E687FF2881
:100A6000FEE6FE85FE65EDC5D527FF33FF99FFFD48
:100A70000000000100010001000100000000000072
:100A80000000000000000000000000000000000066
:100A90000000000000000000000000200000000036
:100AA00000200020000018E3F7FFF7FFC6BD198BF8
:100AB00000CB19B1119211B32234119000EB6C16D6
:100AC000BE7D5B2E3A29C659EFFFE7BFF7FFD6DCA4
:100AD000BE39000000000020084000200000000097
:100AE00000000000000000200000000000200000C6
:100AF0000000000000000861000008619CF39CD326
:100B00008C7194B2841094927BAF62ED422931864D
:100B10002965318531A639A6296539E74227296338
:100B2000210029615AC5AD4CB525D5A4FEE7FE8448
:100B3000FE83FE84E542E587EE2EFFF9FFBC4A49BD
:100B40000842000200010000000000000000000058
:100B50000000000000000000000000000000000095
:100B6000000000000000000008410000000000003C
:100B70000841000094B2F7FFDF7EEFFFE7FF8D5DD5
:100B8000094F2233225411B1221163F6DF9FE79FF0
:100B9000FFFFB5B719054AEED75FEFDFF7FFE77F35
:100BA000FFFF8C7200000000000000000040088180
:100BB00000600000000000000000000000000020B5
:100BC00000200000000000200000AD559CD3AD7552
:100BD000422839C75ACB7BAF6B4D528A39E73186F1
:100BE00031853186318642282965316539C639C556
:100BF00018E018E062E4ACA69BA0CCE1FE86FE44BF
:100C0000FE23FE05D4C3D529FF76FFBBCE17000017
:100C100000010001000000000000000000000000D2
:100C200000000000000000000000000000000000C4
:100C3000000000000000000000000841000000006B
:100C400018E3E73DF7FFEFBF9D799D9BC6FF959E9B
:100C500011B0012D32D31A0F3AD1E7FFF7FFFFFF92
:100C6000F79FDF1E08E8196B63D4ADDBEFDFF7BF3A
:100C7000FFDFF7BF630D39A7084100000000000047
:100C800000000000002000000000000008410000FB
:100C90000020000010A229659CD39CF3A5144A698A
:100CA00039E74A4952AB52AB528A422839C631A67B
:100CB0003186318639A731873186292539A6420602
:100CC000294228E0AC68ABC292C0E4E2FE04FDA277
:100CD000FE06D482DD49F693FFFBDE990821000071
:100CE00000000841000000000000000000000000BB
:100CF00000000000000000000000000000000000F4
:100D0000000000000000000008610000000073AE59
:100D1000F79EF7DFA5579517A5DCAE3EAE5F32D242
:100D20003B139E1E8D7B6C35CEFFE75FF7DFFFDF49
:100D3000FFDFADFD42D2114B21AC5B52CE7DEF9F68
:100D4000FFFFFFFFCE7A7BCF31A7086100000000D4
:100D50000861000000200000000010820000632CE9
:100D60008410BDD7CE79A534A5147BCF528A4A69A9
:100D700052AA4A4952AA52CA4A4839C631863187CC
:100D800031873188292739C941C9398731862944B2
:100D90004183A3C9BC079AC0AAC0F4E2FDA4F5230D
:100DA000ED05D4E8D56EFFFBF77C6B2C10820000BC
:100DB000082000000000000000000000000000000B
:100DC0000000000000000000000000000000000023
:100DD000000000000000000000002965E75CFFFF44
:100DE000CEFD8CF7745584F995BDA63F9DFE6C9899
:100DF0008D5AE7FFC6DED71EF7DFFFBFF77FFFDFA5
:100E0000F7FF4B1111297C35B5DBF7FFBE1BB5DAB7
:100E1000F7DFFFFFFFFFE75E9D1442490861000016
:100E200000000000000039C7B596B596FFFFF7BE79
:100E3000DEDBBDD88410A514AD544A2862EB738D57
:100E40006B4C738D6B6C52A939C62965318631A7FD
:100E500039A8292739C939A829263166318541633E
:100E60008AC69262D4669A80BB20FE07F4A3F50777
:100E7000CC479B66FF17FFFD7BCE00001061000092
:100E80000000000000000000000000000000000161
:100E9000000100010001000100010000000000014C
:100EA00000000000088100206BCCFFFDEFFF6C7597
:100EB0004BD443743B9554185C5853F66436957A7A
:100EC000ADFBD6FED6BCDF1EFFFFF77FEF5FFFFF57
:100ED000CE5AA556E75FF7FFF7FFC69D320B42AE2D
:100EE000B63BF7FFE77FFFFFEF9EA51441E7000049
:100EF000CE58FFFFF79FFFDFFFDEE73CF7BECE9C3B
:100F000094D59CF5A5558C909CD17B8C83EE944F09
:100F100083EE736C5ACA4A2831A631863187296616
:100F200031A73186318739C631852944416371C182
:100F30009A40CC44C3E1CBE0AAC0EC44FD0ADC29D2
:100F40008A22EE33FFFBD6B82964000100010000BD
:100F5000000000000000000000000000000100018F
:100F60000001000100010001000000000000086114
:100F7000000000001923F7FEEFBDBE9A2A8E7D5BAC
:100F80007D5B1A71123122B31A304354851AA5DBE6
:100F9000D6FEE75FE73EE75FEF7FFFFFFFFFFFDE85
:100FA000FFDFFFFFE77FE79FEFDFBE7D533021AA22
:100FB000428D9D37D6DCD6BBEF3DFFFFFFFFFFFF25
:100FC000F79FFFBFF77CF79BE739AD749CF4845320
:100FD000A5369CF49CF2AD329CB194709470840E52
:100FE000738C630B4A6939E731863186318639C79C
:100FF000318631A631A53185212351E479E1A2C1A1
:10100000E507DCE5AB20B2E088E0F3E8BA637900FD
:10101000ABA9FF99FFFC3A07000200220000000084
:1010200000000000000000000000000000000000C0
:101030000000000000000000000000000020002070
:10104000000094B3FFFFE73FC67DC67DEFFFDFBF23
:1010500053B609AF1A9309F209F143B7855BC6FF8E
:10106000EFFFF7FFEF9FEF7EEF5DF79EF7BEFFFF0D
:10107000FFFFE77FEFBFEFDFEFFFEFFF532F29EA1F
:101080009D37D6DDE73EF79FF7BFEFDFC69FD6FF60
:10109000E73DC615C5F2EF35D653AD12A4D3B577EB
:1010A0009CB39CF394B29D148C7294918C2F7BCD45
:1010B0006B4C52AA420831A7318631A739C7318615
:1010C0003185318539A520E262877201BC07C405EC
:1010D000DCA5CBC2FC66A960B9E1DB06B244B3482B
:1010E000FF99FFDB8C6F0041000100000000000051
:1010F00000000000000000000000000000000000F0
:101100000000000000000000000000000000296650
:10111000FFDFDEDED69FBDBCFFBFE75FF7FFB67F18
:101120008D9E9E7F755E547A3B96751C8D9CAE3D60
:10113000CF1FEFFFFFFFF7DFD6FCD6DCE77EEFBF68
:10114000F7FFEFDFD73FDF5FF7FFA5999517DF3F89
:10115000E75FF7DFEF9FD71FBEBFBEDFCEDFBE1951
:10116000C613B54CBD4BACCAACAFACB1A4D4A4F55E
:10117000A5358CB39D1594D494B28C5083EE738DA9
:101180005AEB4A4931C73186318631A631663186FC
:10119000318539C520E26AE87A84A344BBE5F529A4
:1011A000EC66C280B160DA84CA24BA659203EDD2DB
:1011B000FF39F77C006100A3000000000000000080
:1011C000000000000000000000000000000000001F
:1011D0000000000000000000108200009CB3FFFF30
:1011E000EF5FB5797BB483F7C63FE77FB67FCFBFAC
:1011F000DFFFA6DF859C9E5F9E1F6C384B335BB381
:101200009578D77ED77DC69BCEDDCEBDE79FF7DF35
:10121000DF1FD71FE79FDF3FBE3BADB9DF5FE79F13
:10122000D71EB61AB65DA63FAE7FAE1EA596E736B0
:10123000E6D1BD49A447A40BB491AC93B536A555EE
:10124000A576951584B394D28C71840F7BCE632CD4
:101250004A8A39E8318631863186318639A6318528
:10126000318429026AC8598171A0D448CB43C26035
:10127000CA61CA22E2E6F369DB498120BBAAFF9B6F
:10128000FFBC002000210000000000000000000062
:10129000000000000000000000000000000000004E
:1012A00000000000000100012926D6BBF77DEF3CBD
:1012B0009CD084307BF473B584B8A5FCA65D95DA28
:1012C00085599E3DA61E9DDD7C9953733A8F3ACE7B
:1012D0005BD16C32A5B9B63BBE5CCEFED6FFC67CF8
:1012E000D6FEE77FCE9DADBA8CD6BE1BEFDFE77F83
:1012F000B61AB67EA69F961FAE5EC67AEF77F73215
:10130000C56AA427AC2CCD34B4B48C117BEF9D7589
:101310009555951494D3949184307BEF6B6E52ABBA
:10132000420831A731A6318639A639A639A5292325
:1013300039856246828558A08120CAE3DB03D282C8
:10134000E305DAC5D2C6A1C270C0A2A6FEF8FFDDD1
:10135000AD5400000000000000000000000000008C
:10136000000000010000000000000020000000005C
:101370000001000300039454EF3DEF7AB5AF9D09DF
:10138000ADCDADF4A5F89DB884F753D46C77853A0C
:101390004B524B317475A5DA9D787C7563D35372CB
:1013A00053727C968D38ADFBA5DAADDAC67DC65C8E
:1013B000C65CC65CCEBDBE1BADB9D71FD75FBE9D98
:1013C000AE3CA6BF9E5EAE7CBE59C634D651B4CBF1
:1013D0009BE9AC4EBCF39C3241C82964638C849079
:1013E000A5B59CF394B28C71843073AE5AEC42492B
:1013F00039C731A73186318639A539A520C25A6847
:1014000062059285C326A1A0D2C3E304C220EBC823
:10141000914099C0792089C19264D4CFFF7BFFDFCE
:1014200000000000000000000000000000000000BC
:101430000002000200000000002000200000000167
:1014400000032929DE9DFF9DF7B8A528A5649D43CB
:101450009D49954E8D31C71CCF3F853A853B9DBC3C
:1014600053519558D75FBE7B9D99ADFB9D7B9D7B6E
:101470006C357CB7B65D8D188CF7CE9DBE1BBDFB61
:10148000B5FAB5B99D378495C6BDE7BFDF7FA61B0A
:101490009E7CCFFFCF7F8D1452C8526549C17B28F7
:1014A000BCF2ACB3941110610000088032057C2FAF
:1014B0009D1394B38C72845173CF5B0C4A6939E8E5
:1014C00031A631653185398541C620C2732B62262C
:1014D000A2A6CAE5CA82D261FBC7CA61CB05812038
:1014E00081A09A83AAE49A84C44CFF19F71B39C7D8
:1014F00000000000000000000000000000000003E9
:101500000002000000000040004000000001000256
:1015100083F2EF3DF79BB5CDA545BE43A580AD82D7
:10152000AD65AD8BADB09D959579959C9DDED7BF92
:10153000AE5EC6FFDF9FEFFFE77FEFDFD73FE7FF3E
:10154000AE5E747674556BD3F7FFF7BFEF7FC65B63
:10155000B5D98CB5530EB63BD75FD77FBEFDBF1C48
:101560005C0F0946008310C2318418A05A88ACF37E
:10157000B5358C0F000031A3086018A05AC99CD261
:1015800094B38C9284517BF06B6E52AB422831A69F
:101590003186318639853164316449E672679A64EF
:1015A000BA83B1A0EB24DAA2EB8699A070E09AA3EB
:1015B000A2E4AB249AC49B47EE35FFFEB5B600000B
:1015C00000200000000000200000000000020001D8
:1015D0000000000000400020006000200862EF3D95
:1015E000F7BCF7B88C86AD65A560BE00C5A0C56127
:1015F000BD65B5CAADD09D938D3585177CF77496C2
:101600007C96A5FB8D18BE5DC6DFD73FE7FFDFDF09
:10161000A61C95598495C67DF7FFE75FF7DFDF3F8E
:101620008474426C42ADEFFFDF9F95770143004029
:10163000008308E5004218E329848C4FA5349CF30D
:10164000842F318363286B29394362899CD39CD3CF
:1016500094B38C717C106B8E5AEB424931A631A643
:1016600039A639A63965314441A559E59264A221CC
:101670009960DB25DB04C28280E09A21AAC3AB44D7
:10168000A2E2AB6582C4CD92F77CBE1700000000D9
:1016900000000000084100200000000000000000E1
:1016A00000000000000000400020842EFFFBE756F1
:1016B000842784449CE4A543AD42CDA3D5A3CDC4E7
:1016C000C5A5AD85A588B62EC6D484B084B395587B
:1016D00095398D198D7BA63D95BB95BB9DDBCF1FA5
:1016E000EFFFDF7F8CF7BE1BD6BDCE9DCE9CA557EE
:1016F0007C3321A9DF5FDF5F6C3100600080112542
:10170000194710E408A329A59532A57494F29D11F8
:101710007C0C8C2DA4AF51C7836FA4D49CD494B3FC
:101720008C72843073AF630C4A6A39C731A6318634
:1017300039A639853144314441847A6479C09A416B
:10174000DBC8C2E4B222998099C1AAA3B303A2E282
:10175000ABC57B03A4ACEF9BDF3B5B0B086108418F
:101760000000000000000020000000200000000039
:101770000000002000000880E758EFB7E7747C0500
:10178000634084438C62B545B4C3BCE3CD63CE04EF
:10179000CE24C604B5C5AD87BDCCB5B0C636A576DA
:1017A000A5DA959B8DDB64568D7A53727C9695599C
:1017B000CEFFC6BDB5FAA578D6DDDF3FF7FFE77FE0
:1017C0007412A597F7FFC69A1964194410E50884A6
:1017D000216608C221A49D739D949512A593AD9294
:1017E0009CAFA49072ABB4B5A4D49CF49CB3949277
:1017F0008C517BEF634D52CA420831A6318539A620
:1018000039A631653145394330807A84A367B3679F
:10181000B2E6894080C0B2A5AA83A282AB63A3C40A
:1018200093A57366E779F7DC842F000000000000C1
:101830000000000000200000000000000000000088
:10184000088200006BABF7FADF34C69094E784445B
:101850007C027BC28402AD06BD67C5E7CDE5CDE362
:10186000CDC2D602DE43CDE4D628BD8AB5AF9D52A7
:10187000BEBB9E3D8D7B9DBB6C146C146392743417
:101880008CD69D58BE5CC67CDF3FF7DFBE3A73F056
:10189000424ADF3DDF5D3207006108A408A411045D
:1018A00000814AC89D739D74951394F1A573A53169
:1018B000A4D1A452B515A4D4A4D39CB394928C51B2
:1018C00084106B6D5AEB424839C72965318639A6B9
:1018D000398631653985396328C051E382C77A2555
:1018E00069218983A225AA64A2A2B3A3AC049C05A2
:1018F00062C2CE12F79BBDD610A2000000200020CD
:101900000000000008200000000008410001000065
:1019100010C3D6D9EF99CEB373E67C25B5A9A547F8
:101920009CE56B60424063408C62AD44BDA4CDC277
:10193000CDC1D5A0D5C0E603D5E5C5A8B5ADC65384
:10194000B657AE39B65CCEDEC69DC6BE8CD642AEAC
:101950005B707C54ADFAE7BFE77FCEDCBE598C925A
:10196000EF9EE79E8CD2006108E5214608A210C1D7
:101970008C8F95129D14A5769D149CF2A532AD32E4
:10198000B534A492A4D3A4D39CB394928C71843024
:1019900073AE632C4A6939E72965318639A639A7C0
:1019A000398639A739C73985188020A062267A4739
:1019B00081E5A2879A43AB04A382BCA59C248364DF
:1019C000AC8CFF39FF9D5ACB0000000000000000E6
:1019D0000000080000000000080100010001632D64
:1019E000EF7DD6D9AD9152C38CA86BA0B5C7AD849D
:1019F000ADA57C6163A052E05B408C82BDC6D6473A
:101A0000D605D5A2DDC3EE45D583E628BD46C589FA
:101A1000AD4D9D33ADDA95379D78BE7DC69DB63C04
:101A20007C5484959D579D56C67BE75DBDF7BE17D8
:101A3000C699CEFA092400A310E419032983AD73D3
:101A40009D139CF5A537A5379D159D12A532A4F1D0
:101A5000A4D2A4D3A4D39CD39CB294728C5073CE42
:101A60006B4C52AA42083186318631A731873186C4
:101A700039A7294739C939E8298518C241647A2824
:101A800092888223A3449B82B484AC459BC59B2649
:101A9000FE76DE997BCF00000841000000000000C8
:101AA000000000000801000000011083B5D8DF1C11
:101AB000CEB832036387636331E074209D43ADE5A4
:101AC000B607ADC794E463604A8063009C82CDC6CC
:101AD000D5C5DDE4D5A2E624E604DE25CD83CDCA56
:101AE000AD519D36BE3A94F694F68CB59517BE5B13
:101AF000BE5B7C737411ADB6D6DAA5349CD2EF5CB4
:101B0000DF5C3A89110310E2424739E59CD1AD759B
:101B1000AD368C749494A535A534B5748C50B575D8
:101B2000A4F3A4F49CD39CB294928C517BCF6B6DA4
:101B30005ACB422931A731A631A63186316531868B
:101B400039883188214631C729862903288159A43B
:101B50007A658B4593C493C3AC8693438221DD5051
:101B6000FF5BBDD710A2000000000000002008208D
:101B7000000008410000000031C6F7DEDF1AA5B200
:101B8000426442C442E24B015BA184E584A39D040C
:101B9000C5E7BD86BDA6B5258BE073408BE0BD448F
:101BA000CDE6CDC5CDC5DE46D605CDE5C5C9D654F5
:101BB000B5755A8B10420822000108433A0AAD97C6
:101BC000DF5D52EB6B8CA532946FAD12CDF6DE9BD0
:101BD000A5144A674224B5B373CC9CD2A514949142
:101BE00010C12963842FA4D4BD989C95A4D6A4D5F4
:101BF000A4F49CD49CD394B38C72841073AF630C04
:101C00004A6A39C72966318531C531A529843186AB
:101C10003187318731A731A731863165314420A022
:101C200062658BC883857B038B639BA593A7EF3A83
:101C3000E71C000000200000002000000000000061
:101C4000000000200881B5B5D6F9EF9B6BAA53269A
:101C500032415344118053A3538284E69CC3A4E2CF
:101C6000AD03BD65CDE7AD25BD87C5A79422942200
:101C7000AD05C5A7B546BDA7D64AC5AB730820A11B
:101C80000800080008000000000100010882A59576
:101C9000BE3719029CD09C6D9C2BACEFDE59DE9AAE
:101CA00062E921004A6694B09CF3A5347BEE2142A0
:101CB000002010805A8B8C32B537AD169CF49CF402
:101CC0009CF49CD394B29492841073AF632D528B86
:101CD00039C8318631A531C531C431A431A5318629
:101CE000318631A731A731A73186296539A520E191
:101CF00031216AC583877B047AE28B87CE36E71C65
:101D0000A514000008610020000000000000000091
:101D1000086018E3F7DDD6D9A5723A453A4421C0E8
:101D200032623AA153A43AE053405B009CE2A5031F
:101D3000AD44C608C5E9B568A507AD08BDABC5CCBF
:101D4000A4C99447BD6C9C6839800840000000001D
:101D50001061000000010842000000204267CE58D8
:101D600039C562E8DE53BD49B509BD92C5B66B0BF6
:101D7000292318C194B19D13B596422821241082BD
:101D800018E318E252A8A511A531A513A5139CF3D9
:101D90009CD294B2949184307BCF6B6D5ACB420825
:101DA00031A631A531A531C531A531A6318631869F
:101DB000318631A731A731A63186294439A531634F
:101DC00028C0416172C5834772E6A4D1D69AF79EB6
:101DD0000000002000000000000008400820000073
:101DE000C638DEDABE1652C83225196129E11980DB
:101DF00032622200430263E3742194E384619D25EF
:101E0000A547A568A549BDEDC60FCE31B54F9CAD20
:101E1000946C7BAA312008000000006000400000A4
:101E20000001002200010000006000209CF383EE0E
:101E30001000D5EFDE48D647B58BBDD183CC20E36B
:101E40003165A513B5B58C5073CE18E3086152A95E
:101E500018E07BEBB5B29CF09D12A5139CF39CD2CD
:101E60009CD294B18C507BEF738E630C422831A6C8
:101E7000318631A631A631A631A631A6318631860A
:101E800031A731A731A731A631A641C639A5310204
:101E900028C041425A256AA87BCEBDF7D69A31A602
:101EA0000020000000200000000000006B6DEF5DCE
:101EB000E71BD6BA94D152E929C429C25B883A8378
:101EC0002A212A0042C15B8184A4ADEA7C65950980
:101ED00094EACEB2AD8F94ADB5B3C5F59CB14A28A6
:101EE00029250000082100200020002000200021DA
:101EF00000010001088110E010C07BCE7B6D2080C6
:101F0000AC88F6E6DE80C6439D2483E87B8C738F25
:101F100062ED94B2CE789D12634A73EC8C8E2120D0
:101F20007C0CA532A533A513A5139D129CF29CD25F
:101F300094D18C70840F73AE632C4A6939C7318693
:101F40003186318631A631A631A63186318631A659
:101F500031A731A731A739C72945316549E741A6DE
:101F600030E330C241656B2CAD55BDF794B2002013
:101F70000020002018A2000000000000C638C6188B
:101F8000DEFADF1BE77C9D324AE863CA29E229E1D9
:101F900021E1324119A063E52A0053447449A5B0F8
:101FA00031E2002000204247AD55949218A441E947
:101FB000524B318808C30020008000800001086374
:101FC00031A831E742453A045ACA7B8D41428363C6
:101FD000FF66E6E0E746B5C7422062E9C5D7A4D46C
:101FE000528952C9A533A553B5B4636B4A8794D1BE
:101FF0009D14A5559D13A5139D139CF29CD29CD2B4
:102000008C90842F7BCE6B4C52AA39E73186316697
:102010003186318731A63186318631A631A631A687
:1020200029A629A6212531A739C7316639664187F6
:10203000392620A48C10A534DEDBAD55000000202D
:1020400000000000000018C30000000021247BEF06
:10205000BE17C678D71AC697A5B36BEC3A4532239C
:1020600029E232633AA55B685B8984AE00400020B8
:1020700008810000000073AFA515294639A8420960
:1020800039E93208194400A000200883420A4A8B2B
:10209000298531E429825289942F206051E0F70785
:1020A000EF06D68C39A083CBFFDDE6FAEF3AEF5A84
:1020B0009CD142087BB0AD789CF6AD77A55694D400
:1020C0009D15A514A5149CF39CF39CD39CD39491CB
:1020D0008C507BEE6B8D5ACA422831A631863187EF
:1020E000318731873186318631A631A631A62986DE
:1020F000298531C62986296631673147312631471E
:1021000041A88C728C51AD55632C0000002000005A
:10211000084100000000084100200000002029655F
:102120005B0BC678D6FAD6F9BE5695315B4A3204B7
:1021300029E4090142A8742E0060002008C20000B2
:102140000000002152AB73AF210539C831A74A49BD
:102150003A284AA931C52164422931A818E431C678
:10216000214210C04A686AEA39426AC3F70CC5A71F
:102170005A825245E6D6FFD9E6F3D6B1DEF3E7162A
:10218000CE77738F39AA7BD3A517AD579D15A5348C
:10219000A514A5149CF49CD49CD49CD494928C51EA
:1021A0007C0F73AD5B0B4A4839C631863186318767
:1021B00031873187318631A631A631A62985216440
:1021C0003A07296519042945318731883167314734
:1021D0004A2931A6294508610000000000000000DE
:1021E00000000000000000000000000000000020CF
:1021F00010A273CECEB9CEB9CED9CED99D5352EB63
:102200004ACA63AE192400200000006200000000EA
:10221000000039E88410086194B239E7318539E764
:102220004228422739C639C718E4000018E310C213
:1022300010C14A685AC96B2A83A9DE716AE4184042
:10224000D614FFD5EF8EF7ABEFAAEFADD6CDD6D231
:10225000F79ABDD74A2B39A99493C636A553A5340E
:10226000949394B4A516A4F694B4949394928C5039
:102270007BCE630A4A4839C6318631863187318739
:1022800031873187318631A629852985216431E658
:102290002985424831A6210431A7296631A70000CB
:1022A000000000000000000000000000000000002E
:1022B00000000000000000000000000000000020FE
:1022C00000000061636CC678D6FACEB9CEDAA57587
:1022D00019040020006200410000000000000021FD
:1022E00042084A49528AFFDE9491316541E731A69E
:1022F00041E74A28526A3146000000202144216407
:1023000042484A88A5328C0D62A741837B6BF71641
:10231000FFF0F7C9F7E6F7E5FFE9EF8BEF6FCE6F58
:10232000E6F6FFBCB55539C74227A513AD75BDF814
:10233000AD5794949CD69CD68C5384327BEF73AE6D
:10234000634B52A9420731A6318631663187318706
:102350003187318731A629A52985216442684AA899
:102360004AA929852124214418E3420800000000DD
:10237000000000000000000000000000000000005D
:10238000000000000000000000000020000000200D
:102390000000000010C24269A554B5F652C90020E1
:1023A00008A10000000000000020000000004A49D1
:1023B00029259CB3FFFFD69A947141E739A641E7DE
:1023C00041E84A0849E818A30000086210E342689F
:1023D0004AA8D6D952A939863143DE73FFD2FFAA63
:1023E000F7C6FFE5F7A5FFE9F7CAFFECF7ADE70E83
:1023F000DED2EF59E6DB9C7341C95ACA8430AD7610
:10240000AD57949594759CB59CB48C51840F6B8D8D
:1024100052C9420731A631863187318731873187EA
:102420003187318629A6298529643A0608A100004A
:1024300000404A6831C510C1424800000000000059
:10244000000000000000000000000000000000008C
:1024500000000000000000000041000000410000FA
:1024600000000041002019238CB000200000002053
:102470000000000010A200000020000052AB29253F
:10248000C619DEBBE6FCEF5DBD9562EA31653966D3
:102490004A0841C818A308210000002042484AA960
:1024A000DF3B422739A683CBFF92FFACF766FFC51F
:1024B000FFC5F7A5FFE8F787EF65FFE8FFEBF78EAD
:1024C000EF12E6B5D657CDF67BCC4A87632BA53500
:1024D000BDB8A4F694748C538C728410738D5AC951
:1024E000420731A63186318731873187318631867F
:1024F0003186318629852965298508A10020214357
:102500004AA9190210C14247000000000000000063
:1025100000000000000000000000000000000000BB
:102520000000000000000000086100410000086198
:10253000000000005B0B31C418E1190100000040ED
:102540000020000000200000108252AB3187E71D00
:10255000DEBBE6FCDEDBDEFBDEDAB57552482904C5
:1025600049E8292500000000006129865B0CE73C52
:102570004A682941E6F2FF8DF7A8FFA6FFE6FFC6ED
:10258000FFA5FFE6F784FFE3FFE4FFE4F786F76AC1
:10259000F76EF750E731E734BE325AE731A48410C2
:1025A000B598A5169CD58C318410738D5B0A4A684A
:1025B00039E73186294631A6318631863186318622
:1025C000318631862985212439C74A483A07298529
:1025D00010C231A518C20000000000000000000079
:1025E00000000000000000000000000000000000EB
:1025F0000000000008410000000000200041000031
:1026000010C36B8D00404A4710C1084000200000F5
:10261000000000200000296639E8630CF79EDEDB2D
:10262000D6BBCE79DEFBD6DAE75BDEB99CB34A09CE
:10263000082210620000004019059493DEDB084078
:102640008C68F7AFF7A8FFC5FFC6FFC7FF86FFA6D8
:10265000FFC6FFA4FFE5F7A2F782FFE5FFE8F7A8B2
:10266000EF49F78DD6EED712EFB7A550296439E8B8
:1026700094B49CF59CD48C717BEE632B4A6839C76B
:102680003186318631A631A5318631863186318653
:102690003186316629662104294529452945294481
:1026A00052A900000000000000000000000000002F
:1026B000000000000000000000000000000000001A
:1026C000000000000000084108610000084152CBF2
:1026D00039E873AE4A49000000000000002108629A
:1026E000000008624A692965A534E75CC658CE78BF
:1026F000DEFACEBABE58CEB8EF7CFFBFB55729463A
:102700000000000000002946CE3B9CD418A0FFF139
:10271000EFA8FFE4FFC3FFA6FF67FF68FF88FF661F
:10272000FFA6F724FFA6FFE7FFA6F765FFA7FFE9CF
:10273000FFCBE78DDF70CED1E777EF9B7C0F29666B
:10274000528B84118430840F6B6C4A8939C731876E
:1027500031A731A631A531A5318631863187318740
:10276000316739C82106292631A7318610A2528A3D
:102770000000000000000000000000000000000059
:102780000000000000000000000000000000000049
:102790000000088100000000002110C35ACB42084D
:1027A0007BCF0021000100000000000000000000BD
:1027B0000041634D2965CE79DF1BCE99CE98CEB905
:1027C000D6FBD6FACEB8CE98E73DBDD94229000057
:1027D0000020088039C8DEBC5A88B56CFFCBFFE604
:1027E000FFE3FFC3FF86FF68FFA9FF88FF46FFA640
:1027F000FF87FF67FF67FF66FFA6FFA6FFA6F787B5
:10280000F7EBEFACE76DD6EFD6D2E737C5F5736DD2
:1028100039C75ACB7BCE7BEF632B422829862966AA
:1028200031C631A531A5318531A531A63186318634
:102830003187398831683167318818C452AB00005C
:102840000000000000000000000000000000000088
:102850000000000000000000000000000000004137
:10286000000000000000000029866B8E634D5AEBCB
:1028700000200000084100000000084100005ACB81
:1028800031865AEBEF9DD6DACE79CE79CE79CE9AD3
:10289000CE79D6B8D6B9E71CAD3529440000000082
:1028A000002062EDCE37AD0BFFAEFFA7FFE4FFA423
:1028B000FFA5FF86FF86FF87FF66FF66FF65FF6651
:1028C000FF66FF66FF86FF85FF86FF86FFA6F7A6E9
:1028D000F7A6F7C7F7C8EF6BE70EDEB3D657BD977D
:1028E00062AD212642495B2C4269218629A639E83E
:1028F000294539E63184296339A4296331842904BF
:10290000316639A929282949292731870000000083
:1029100000000000000000000000000000000000B7
:102920000000000000000000000000000000002186
:102930000021000000013A084A8A73AE18E3000043
:102940000000000000000020000018C36B4D18C3F9
:10295000AD75DEFBC638CE79D6BAD69AD699DEDA10
:10296000D6BADEDAD6BB73AE00400020000010A25B
:102970008C31C5F4C60AFFCAF764FFE5FFA5FF86E0
:10298000FF86FF86FF66FF66FF65FF65FF65FF65E3
:10299000FF65FF65FF65FF65FF85FF85FF84FFA479
:1029A000FFA4FFC6FFA8F76BEF2EEEF2D673E6D8B2
:1029B000AD544A692165424942691924214539E8E3
:1029C000212431C631A4294239E510603145292539
:1029D000210639A93168294729460862000000000C
:1029E00000000000000000000000000000000000E7
:1029F00000000000000000000000000000210000B6
:102A00000000108273CF42297BF018E30000002001
:102A100000000020000000007BEF21040000B5B69C
:102A2000B5B6B596C638CE79CE99BE16CE78C6194B
:102A3000DEDCD6BB5ACA00000020000018E3CE3806
:102A4000AD4FDEEBFFE9F785FFE5FF85FF86FF86EB
:102A5000FF86FF66FF65FF65FF65FF65FF65FF6534
:102A6000FF45FF45FF45FF45FF64FF63FF64FF68C7
:102A7000FF6AFF6AFF89FFA8F7A8EF6AD6ABCE51BD
:102A8000C6158C5239E9190429A5298631A73A08B7
:102A90002966212429652104002118A418A418C43A
:102AA000318521022964106200000000000000004E
:102AB0000000000000000000000000000000000016
:102AC00000000000000000000000002000000000E6
:102AD0000861A53439E7630C1082000008410861E1
:102AE0000000000039C75ACB0861294531862945C5
:102AF00029655ACB8C71C638DEF9DEFACE5BDEDD95
:102B0000AD55294400000040000041E7EF39A50B16
:102B1000EF6AFFE8FFE7FFA5FFA6FF86FF86FF86B7
:102B2000FF86FF65FF65FF65FF45FF45FF45FF45E4
:102B3000FF25FF25FF25FF24FF44FF45FF27FF2832
:102B4000FF28FF46FF84FFA3FFE6EF68D68BCE2F5A
:102B5000D654BDB57BAD31A5294518E431C82966E9
:102B6000216531C700220001000210834228294359
:102B700021015287106100000000000000000000E9
:102B80000000000000000000000000000000000045
:102B900000000000000000000000084108410000A3
:102BA000A513318618E3000000000000002000009B
:102BB000210484100000086139E71082294518E3D8
:102BC0002124318642078C8FB594DEBDE71F7BF14F
:102BD0000840000000000001A513B58FB5A8F7AAB2
:102BE000FFE7FFE7FFC7FFA6FFA6FF86FF86FF867A
:102BF000FF86FF66FF65FF45FF45FF45FF25FF2573
:102C0000FF04FF04FEE5FF06FF05FF03FF02FF22AE
:102C1000FF22FF23FF24F744FFA7FFE9FFABDEAB52
:102C2000BD8CACCFA49262CE420B10A2216331C501
:102C3000298531C80063000100205B0B18E22923BD
:102C40005ACA1060080000000000000000000000E8
:102C50000000000000000000000000000000000074
:102C60000000000000200000000008400000AD341B
:102C700052690000002000000000000008619CF381
:102C80000861210431A62124296531A62124294582
:102C90002965210318E1422784139CB64A4B004161
:102CA0000000000020A4FF7C7BC3D6A8FFE9FFC67C
:102CB000F7A6FFE8FFC6FFC6FFA6FFA6FFA6FF8692
:102CC000FF86FF86FF65FF45FF45FF25FF05FF04E3
:102CD000FEE4FEC4FEC5FEE4FEE1FEE0FEE0FEE131
:102CE000FEE3FEE4F6C3FF23F722EF03FF48FF6D88
:102CF000DE2FACCEAD127BAD4A4731C52144214514
:102D000031E83A080081004052CA10C2212439C675
:102D1000000008200000000000000000000000008B
:102D200000000000000000000000000000000000A3
:102D3000000008200000000000001061AD34947114
:102D40004A280000002010821082949218E3086143
:102D5000108221040020294521042104294531A69F
:102D6000296421222143294718C6002300010000BD
:102D700010618BF1C5B39CC3F7A8FFE8FFC7FFC77D
:102D8000FFE7FFC6FFC6FFC6FFC6FFC6FFA6FFA63A
:102D9000FF86FF86FF65FF45FF25FF04FEE4FEE496
:102DA000FEE3FEC1FEC0FEC1FEA1FE82FE82FE82E7
:102DB000FE82FEE2FEA1F681F6A2FF06FF49FF4A6F
:102DC000F70BC5C79CA79CAE6B0D41CA31A910C2B9
:102DD000194329C521843A07296531862124000039
:102DE00008200000000000000000000000000000BB
:102DF00000000000000000000000000000000000D3
:102E000000001081000000000820840FC5F7B5966F
:102E100052AA18C34A499CD3296508610861210454
:102E200010A2296521242104212418E32104296406
:102E3000296431A52125000208630822000031041D
:102E4000FF5C5A21F749FFE7FF86FFC7FFE8F765F8
:102E5000FFE6FFE6FFC6FFC6FFC6FFC6FFA6FFA64A
:102E6000FF86FF65FF65FF45FF25FF04FEE4FEE3E7
:102E7000FEC1FEC0FEA1FE62FE42FE41FE20FE40FB
:102E8000F620FE40FE61FE83F642EE22F683FF2529
:102E9000FF87E6A8ACC88BCA730B5A6B52892144D2
:102EA000214431E610E229A5298510C20000000066
:102EB0000000000000000000000000000000000012
:102EC00000000000000000000000000000000841B9
:102ED00000000000000000008C507BAECE59BDD732
:102EE000B5B67BEF294500000861108218C310A217
:102EF00018C318C318E318E3210421042124296509
:102F000021242104084100000001100272ECA44CAD
:102F100093C3FF67FFC6FF67FFA8FFA6FFE6FFA6F4
:102F2000FFC6FFE7FFE7FFE7FFC6FFA6FFA6FFA676
:102F3000FF86FF65FF65FF65FF45FF04FEC3FEA337
:102F4000FE83FE62FE62FE41FE20FE20FE20FE00A9
:102F5000FE00FE01FE01F601F620F620EE40F682AC
:102F6000FEE4F6E6D5C69C266AC6522A522C39C91A
:102F700031A629A4194231E61904000110C5000048
:102F80000000000000000000000000000000000041
:102F90000000000000000000000000000000000031
:102FA000084100200000296539E7738E6B6D31A65A
:102FB00000000000084110A2084100201082108289
:102FC00010A210A218C318E318E320E4292418A2C1
:102FD00010A200000000104130E693AE4100DDC6B3
:102FE000FF05FF23FF46FF46FFA6FF65FFC6FFC69E
:102FF000FFC6FFC6FFA6FFC6FFC6FFE7FFE7FFC687
:10300000FFA6FF86FF86FF45FF24FEE4FEA5FE85A2
:10301000FE63FE42FE20FE20FE00FE00FDE0FDE01D
:10302000FDE1FDE1FE00FE00F620F620F600F620B0
:10303000FEC1FF24F6C9C54972E7394449E841E7B2
:1030400052C9190229A508A200620001000000006F
:103050000000000000000000000000000000000070
:103060000000000000000000000010820841000085
:1030700000000041000018E40000002000000020D3
:10308000000000000000002008610841086108619C
:10309000108210A218C318C318E32104106208207C
:1030A00010A10000106049A938A18B40FF27DD80E6
:1030B000E580F622F642FF24FFC6FF86FF86FFA6C4
:1030C000FFA6FFA6FFC6FFC6FFE7FFE7FFC6FFC6D6
:1030D000FFA6FF86FF65FF45FF05FEC6FE86FE6470
:1030E000FE42FE20FE00FE00FDE0FDC0FDC1FDC170
:1030F000FDC1FDE1FDE0FE00FE00FDE0F5A0EDA05C
:10310000F600FE83F684DE05BD4762A2312139A6B2
:1031100041C84A4A31A700000061000000000000D9
:10312000000000000000000000000000000000009F
:10313000000000000000000073AF6B6E632D632D74
:103140006B8E4A8A6B8E3A08210400000841000009
:103150000000000000000000002008410841086154
:10316000108210A218C318C3188300000000086062
:103170000020314249874920F667EDE0ED60F5A176
:10318000EDA0FE22EE00F682FEE4FF05FF66FF865C
:10319000FFA7FFA6FFA6FFA6FFC6FFC6FFA6FFA6C6
:1031A000FF86FF86FF65FF46FEE6FEC6FE84FE62E2
:1031B000FE40FE00FDE0FDC0FDC0FDA1FDC1FDC162
:1031C000FDE0FDE0FE00FE00FE00FDE0FDC1F5C0FB
:1031D000F5E0F620F6A0FEE5D5C79C2649E23122AF
:1031E00020C24A6931A60000000000000000000073
:1031F00000000000000000000000000000000000CF
:10320000000000000000FFFFFFFFFFFFFFFFF7FFD0
:10321000D6FCBE5A8C9384310000000000000841A7
:103220000000000008410000002000200841086163
:1032300008611082108200000000000000002921B7
:1032400041A22060AC27F624D4E0FE23FD61ED20EE
:10325000FDE1EDC0E580F601FE42FEA4FF05FF455D
:10326000FF66FF86FFA6FFA6FFA6FFC6FFA6FFA676
:10327000FFA6FF86FF86FF25FF04FEE3FEA1FE609A
:10328000FE20FDE1FDC2FDA2FDA2FDC0FDC0FDE0EE
:10329000FDE0FDE0FDE0FDC0FDE1FDE1FE01FE2001
:1032A000FE20F600E600F6C1FF06C56583A339607F
:1032B00010005A8A00010000000000000000000019
:1032C00000000000000000000000000000000000FE
:1032D00000000000FFFFF7FFF7FFF7FFF7FFEFDF4A
:1032E000C69B95159CF308410841000000000000B2
:1032F000000000200000000000000000002000206E
:103300000020082100001021082018C05267080082
:103310005A20D567E560ED40FD60ECA0FD60F5400A
:10332000F5C1F5C1F580FDA0FDE1FE22FE83FEE4BE
:10333000FF45FF86FF86FFA6FFC7FFC7FFA6FFA6C4
:10334000FF86FF85FF64FF44FF23FEE2FEA2FE42EC
:10335000FE02FDE2FDC1FDC0FDC0FDE0FDE0FDE0BF
:10336000FDE0FDE0FDC0FDA0FD80FD80FDA0FDE0D5
:10337000FE20FE60E5C0EE40F6C3F6C9C56A51E125
:10338000080062AA00000000000000000000000029
:10339000000000000000000000000000000000002D
:1033A0000000F7FFF7FFDF5EADF99D578CF5745312
:1033B000638F94B300000000000000000841084142
:1033C00000000000000000000000000000000000FD
:1033D00000000801080000002941290320A0D5C9E8
:1033E000E5E4DCE0F540EC80FD00FDE3F520ED20B8
:1033F000F580FD40FD40FD60FD80F5C1FE22FE83AD
:10340000FEC4FF04FF45FF86FFA6FFA6FFA6FF86BA
:10341000FFA5FFA3FF83FF64FF24FEC4FE83FE41DC
:10342000FE00FDE0FDE0FDE0FDE0FDE0FDE0FDE093
:10343000FDE0FDE0FDE0FE01FDE1FDA2FD81FDA05E
:10344000FDE0FE80FE40E5E0DDE0EEA7F6CE30E0F8
:103450006286000000000000000000000000000084
:10346000000000000000000000000000000000005C
:10347000FFFFF7DFB6198CF6B67CB69CAE5C7C9489
:103480009D3600000040000000000000210331A62E
:1034900000200020000000000000000000000000EC
:1034A0000800080020E031401820A44AD5A6CD002D
:1034B000DCC0F500F4C0F4E0ECA0FD41ED20F580A7
:1034C000FD40FD40FD60FD80F580F5A0EDC0EDC044
:1034D000F662FEC3FF24FF65FF86FF86FF86FFA519
:1034E000FFA3FFA4FF85FF65FF05FEC4FE62FE404B
:1034F000FE00FE00FE00FDE0FDE0FDC0FDC1FDC0E0
:10350000FE00FDE0FDA0FDA1FDC2FDE2FDE1FDE04C
:10351000F5A0FE00FE40FE40E600F6A7C56A418029
:10352000000000000000000000000000000000009B
:103530000000000000000000000000000000FFFF8D
:10354000EFDFADF98D379DBA9DFC8D7A6C559D7876
:1035500010E400200000000010A031A45AC9296521
:1035600008A2000000010000000008000800080098
:103570003103418218006A20DD89CCA1D4C0DCC0AF
:10358000E4C0E4E0E4E0E4E0E500E520ED40ED2027
:10359000F540F540F560F560F560FD80FDA0F5A013
:1035A000F5C0FE01FE62FEA3FF04FF45FFA6FF85F6
:1035B000FFA5FFA5FF86FF65FF24FEE3FEA2F64000
:1035C000F620FE00FDE0FDC0FDA0FD80FDA0FDC0D9
:1035D000FDC0FDA1FDA1FDC0FDE0F600F600F5E097
:1035E000FE00FDA1FDA0FE60E5E1DE4D080000004B
:1035F00000000000000000000000000000000000CB
:10360000000000000000000000000000F7DFF7FFEE
:10361000C69C9D998D597D196CB853D485164ACC9A
:1036200000000020082008404A26420631C6110446
:10363000006200420001000108000800186241A574
:10364000100059C0CCE7C441D4A1D4A0D4A0DCA0C0
:10365000DCC0DCC1DCE0DCE0E500E520E520ED409D
:10366000ED40F540F540F540FD60FD80FD80FDA09A
:10367000FDC0FDE0FE01FE41FE82FEC3FF45FF6589
:10368000FF85FF85FF85FF44FF04FEE3F661F641F9
:10369000FE20FDE0FDC0FDC0FDC0FDC0FDC0FDC0C1
:1036A000FDA1FDA1FDE0FE00F620F620F5E0FDC144
:1036B000FDA3FD81FE00EE22ACC708000000000063
:1036C00000000000000000000000000000000000FA
:1036D00000000000000000000000FFFFF7FFC6BD73
:1036E0009DB98D7A855A74F95C359577847200415D
:1036F0000000104010605AA94A48296631C81105D7
:10370000004200420000000018823103100038E03F
:10371000AC27D507BC20C440CC40CC60D480D4A01A
:10372000D4A0D4A0DCC0DCE0DCE0E500E520ED20A6
:10373000ED20F520F540F540FD60FD80FD80FDA009
:10374000F5A0F5A0F5C0F5E0F600FE82FEA3FEE4CC
:10375000FF24FF45FF45FF24FF24FEC3FEA2FE41D8
:10376000FE00FDE0FDC0FDC0FDE0FDE0FDE0FDA1CF
:10377000FDA1FDC0FDE0F600F600FDE0FDA0FDA20C
:10378000FD81F5A0EE466AE20000000000000000A6
:103790000000000000000000000000000000000029
:1037A0000000000000000000FFFFEFDFBE5B959906
:1037B00095BA8DBB857B6C9684D594D45AEB082042
:1037C000000039A55AAA4A28296629A729C82987A5
:1037D00018E41082106120C1182018009BC8B4871B
:1037E000A380C482BC00C420C440C460CC60CC8030
:1037F000D480D4A0DCA0DCC0DCE0E500E500ED2056
:10380000ED00ED20F540F540F540F560F560F58000
:10381000F580F5A0F5C0F5E0F5E0F600FE41FE828A
:10382000FEC3FEE3FF04FF24FF04FEE3FEA2FE410D
:10383000FE00FDE0FDE0FDE0FE00FDE0FDC1FDC19C
:10384000FDC0FDE0FE00FDE0FDE0FDA0FDC1FDA22C
:10385000F5C3E5E95201000000000000000000008F
:103860000000000000000000000000000000000058
:10387000000000000000EFBFEFDFC6BC9DDA8D9AAC
:10388000857A7D5A6CB66BF19D14AD5539C7000031
:1038900041E762CB4A49420918E5298731A7084028
:1038A00008602922184020408B46B448A3C3ABC10E
:1038B000B3E0BC00C460BC20C440C460CC60CC6039
:1038C000D480D4A0DCA0DCC0DCE0DD00E500E500B5
:1038D000ED00ED20F520F520F540F560F580F58050
:1038E000F5A0F5C0FDE0F5A0FDA0FDC0FDE0FE21C6
:1038F000FE41FE82FEA2FEE3FEE3FEC2FE81FE402A
:10390000FE20FE00FDE0FE00FE00FDC1FDC1FDC188
:10391000FDC0FDE0FDE0FDC0FDC0FDA0FDA2F5C7BE
:10392000D56B5A45000000000000000000000000B8
:103930000000000000000000000000000000000087
:1039400000000000FFFFEFFFAE1A85167CF7751828
:10395000751864755B8F8451B5B6B5B7734E41C8A1
:10396000524A528A296642294A4939E6294308209F
:10397000080018207AC4B4489B639B81B3E1A380FC
:10398000B420B420B400BC20BC40C440C440CC40EF
:10399000D460D480D4A0D4C0D4C0DCE0DCE0E4E0C7
:1039A000ED00ED00ED20F520F540F560F560F580C7
:1039B000F5A0FDA0FDA0FDA0FD80FDA0FDA0FDE007
:1039C000FE00FE20FE61FE61FE81FE81FE61FE4082
:1039D000FE40FE20FE00FE00FDE1FDC1FDC1FDC177
:1039E000FDC0FDC0FDA0FDE0FDA0FDE2DD48C50E6F
:1039F00062E900000000000000000000000000007C
:103A000000000000000000000000000000000000B6
:103A10000000F7FFE79F9DB874B57D378599859ABB
:103A200074F65BB063AF7C31D6DCDEDC7BF0630D1B
:103A30005AAB6B4D7BCE39C50000104010403100B1
:103A40008BA6AC2782C09341A3819B40A380ABC0CF
:103A5000ABC0ABE0AC00B400B420BC20C420CC4070
:103A6000D460CC60CC80D4A0D4A0DCA0DCC0E4C006
:103A7000E4E0ED00ED00ED20ED20ED40ED40ED60E7
:103A8000F560FD80FD80FD80FD80FDA0FDA0FDC0F6
:103A9000F5E0F5E0F600FE20FE40FE40FE40FE4070
:103AA000FE20FE20FE20FE00FDE0FDC1FDA1FDA0E8
:103AB000FDC0FDC0FDE0F5C0F623AC07C532630BC9
:103AC00000000000000000000000000000000000F6
:103AD00000000000000000000000000000000000E6
:103AE000EFBFF7FFD75EBEDDBF1EBF3FBF5FB6DDD6
:103AF0009DF884B33229426A9D36C65AAD779493B5
:103B000062EB20C210001000100041808344832229
:103B10007AA08AE09B409B409B609B609B60A3C017
:103B2000A3C0A3C0ABE0B3E0B400C400CC00CC2081
:103B3000C440C460CC80CC80D480D4A0DCC0DCC0C5
:103B4000E4C0E4E0E500ED20ED20ED20ED40F5409F
:103B5000F540FD40FD60FD80FDA0FDA0FDA0F5A0AD
:103B6000F5A0F5C0FDE0FE00FE00FE20FE20FE20D8
:103B7000FE20FE20FE00FDE0FDC1FDA1FDA0FDA098
:103B8000FDE0FDC0EDC0F6448305C5755AEC0001AB
:103B90000000000000000000000000000000000025
:103BA0000000000000000000000000000000F7FF1F
:103BB000E7BFD73EBEDCC71EBF1FA67CA65B8D56E7
:103BC0008514538E0925004219262125000008007E
:103BD00018201000412072A283437AE0728082C0D4
:103BE00082A082C08AE093009B409B609B609B8088
:103BF0009B80A3C0ABC0B3C0BBC0C3E0C400C420A3
:103C0000BC40C460C460CC60CC80D480D4A0DCA0B4
:103C1000DCC0E4C0E4E0E4E0E500ED20ED20F540A8
:103C2000F540F560F560F580F580F5A0FDC0FDC0BC
:103C3000FDC0FDC0FDE0FDE0FDE0FDE0FE00FE207A
:103C4000FE20FE20FE00FDE2FDC2FDC0FDC0FDE045
:103C5000F5A0F640C5217B06C5974A4A0021000021
:103C60000000000000000000000000000000000054
:103C7000000000000000000000000000EFBFDF7E39
:103C8000C6BCA5D9A5F99DFA8D9995B88D76749283
:103C90005BCF4B0D2A0908C4004218A2102049A38B
:103CA0006A848B257AA172607AC08B2082C082E000
:103CB0008B009300930092E08B008B0093609380C5
:103CC0009BA0A3A0ABA0B3A0BBA0BBC0BC00BC206A
:103CD000BC20C440C440C460CC60CC80D480D4A09C
:103CE000DCC0DCC0DCE0E4E0E500ED20ED20ED40F0
:103CF000ED40F560F560F560F580F580FDA0FDA074
:103D0000FDA0FDC0FDC0FDC0FDC0FDE0FE00FE2029
:103D1000FE20FE00FDE1FDC1FDC0FDC0FDA0F5E0FF
:103D2000FF049C2083AAC5D831A800010000000030
:103D30000000000000000000000000000000000083
:103D400000000000000000000000F7FFEFFFC6BC0D
:103D5000A5B8A5F9AE3BAE5BB6BCB69AAE7A95B740
:103D60007CD46C32532E52CB6B4C940E72C77AC5F6
:103D70007A8282C18B0182E072407A807A807A8076
:103D80007A80828082A08AE093408B208B4093606F
:103D90009B80A380AB80B380B3A0B3C0B3E0B4007A
:103DA000BC00BC20BC20C440C460CC60CC80D480AB
:103DB000D4A0DCA0DCC0DCE0E500E500E520E540C7
:103DC000E540ED40ED40F560F560F580FD80FD805B
:103DD000FD80FDA0FDA0FDA0FDC0FDE0FE00FE00F9
:103DE000FE00FDE1FDE1FDC0FDC0FDC0FE21EE6471
:103DF0008BE1BD918C3218E500000000000000004E
:103E000000000000000000000000000000000000B2
:103E10000000000000000000E77DE77EA5B77432D7
:103E20007452745374336C53A5F8BE9A9576538FBD
:103E3000534E532D426A4207522630C06A227262A4
:103E40007240726082E18B228321830182C082A052
:103E5000828082A082C08AE082E083008B2093204F
:103E600093409B40A360AB60ABA0ABC0ABC0B3E0E2
:103E7000B3E0B400BC20C420C440C460CC80CC807B
:103E8000D480D4A0D4C0DCE0DCE0DD00DD00E5209F
:103E9000E520E520ED40ED40F560F560FD60FD803A
:103EA000FD80FD80FDA0FDA0FDC0FDE0FE00FE0048
:103EB000FDE0FDE1FDC0FDC0FE20F622DE0683E34D
:103EC000D696630C000100210000000000000000F5
:103ED00000000000000000000000000000000000E2
:103EE000000000000000F7DFEF9F8C93426B426BF5
:103EF00042AC4AEE4AED530C6BEF5B8E4B0D5B6EA2
:103F0000532D4A6A5289628718004900724382C45D
:103F100072837262622072A172A07AA182C18AC287
:103F20008AC182807A6082A082C082E083008B0096
:103F300093209B20A341A360A380ABA1ABC1ABC0E6
:103F4000B3E0B400BC20BC20BC40C460C460CC6002
:103F5000CC80CCA0D4C0D4C0D4C0DCE0DCE0E50090
:103F6000E500E500ED20F540F540F560FD60FD6001
:103F7000FD80FD80FD80FDA0FDA0FDE0FDE0FDE0F9
:103F8000FDC0FDC0FDC0FE00F644D60A7BC7B5D318
:103F900052CA000000010000000000000000000004
:103FA0000000000000000000000000000000000011
:103FB00000000000DEFCEF9F9CF55B2E5B4E52CDB7
:103FC000320A192642285AEB52EC4AAB426A31C8EF
:103FD0002945398628C1100059A28B27726449608F
:103FE00062237B266AA26AA16A817281828282A28E
:103FF00082A182A07A807AA082C082C082E08AE018
:10400000930093219B409B40A360A380ABA0ABC0D7
:10401000ABC0B3E0B400B400BC20BC40C440C4603A
:10402000C480CC80CC80D4A0D4A0DCC0DCC0DCE0D8
:10403000E4E0E500ED20ED20ED20F540F560F560D1
:10404000FD80FD80FD60FD80FDA0FDC0FDC0FDC0C8
:10405000FDC0FDC0F5E0FEC88BC4AD4F94F010E28A
:1040600010620000000000000000000000000000DE
:104070000000000000000000000000000000000040
:104080000000F7BFF7BF6B6F004200020002004361
:1040900000010000082008410000000100010000AC
:1040A0000000182038E17AC8AC2D59E41000100047
:1040B000186062A46AC37AC47AA37A838262828215
:1040C0008AC182A082C082C07AC07AA082C08AC01F
:1040D0008AE092E093009B209B409B60A380A3A07A
:1040E000ABC0ABC0ABE0B400B400BC20BC20BC4053
:1040F000C460CC60CC60D480D480D4A0DCA0DCC010
:10410000E4E0E500E500E500ED20ED40ED60ED6068
:10411000F560FD40FD40FD80F5A0F5C0FDC0FDA0AF
:10412000FDC0F601F6685200D6B75B290020106288
:10413000000100000000000000000000000000007E
:10414000002000000000000000000000000000004F
:10415000DF1CEF5E6B2D000100010001000100007B
:10416000184108000800106208620842082108008F
:1041700049646A277AA8A3AC59A41800080008006B
:10418000080020A051C16A6472847A637A627A82DC
:1041900082C182C082C07AA07AA07AA082A082C0A6
:1041A0008AC08AE09300932093209B409B60A38069
:1041B000A3A0ABC0ABC0B3E0B3E0B400BC20BC2054
:1041C000C440CC40CC60D480D480D480DCA0DCA0BF
:1041D000E4C0E4C0E4E0E500E520E540ED40ED406A
:1041E000FD40FD40F560F580FDA0FDA0FDA1FDC1F5
:1041F000F623BCE47307CE5908C119030000000080
:10420000000000000000000000000000000000406E
:104210000020000000000000000000000000EF3D52
:10422000D65A838E18201020316510A1002010204E
:1042300008000800082000000000080010008B0B98
:10424000382071C569859B6C18001000102008008B
:10425000182010002060392272C772A56A6372822A
:10426000728082C08B0082E082E082E07AA07AA035
:1042700082C08AE08B008B008B209340A380A380B8
:10428000A380ABA0ABA0ABA0B3A0BBC0BC00BC20C4
:10429000BC40C440C440CC40D460D461DC81E481E3
:1042A000E4A1E4C1E4E0E4E0E500E520ED40ED4018
:1042B000ED00FDA2ECE0FDA0F560F560F604E6255A
:1042C0006260D6365A8D0844000110A0002000001C
:1042D000000000000000000000000000004000207E
:1042E000000000000800000000000000E71CEF1CB8
:1042F0009C1018002881836B7BAB5AC77B2A832ACA
:104300005A4741C52922314230C138C040807183AB
:1043100079A47163A34A69E4100010001000100032
:104320000800186008001040396272E77AE572A24E
:1043300072607A807AA072807AA082E082E082A0A5
:104340007A607A808AE093208B008AC093409B40F9
:10435000A360A380ABA0ABA0B3C0B3C0B400B42033
:10436000BC20BC20C420CC20D441D441DC61DC8101
:10437000E4A0DCA0DCC0E4E0E500E520E500F560B9
:10438000E4C0F560FD60F560E520F625C545628076
:10439000D658000218C70043002008800000000023
:1043A00000000000000000000000004000200000AD
:1043B00000000800000000000000CE59E6DBBD341C
:1043C00059E738C1390128E041616223A40B8327F2
:1043D00049A16264B4CEA3EA69A14860712071204A
:1043E0009223BBC9D4EE6A0328801840080000005D
:1043F00010600000104020801000412072A482C490
:104400006A0072618B237AE2724082A08AA08AA03D
:1044100082A0828082A082C08AE08AE08B009340E2
:104420009B609B80A3A0A3A0A3A0A3C0ABE0B3E02C
:10443000B400BC00BC20C420CC40CC40D460D480AC
:10444000D480D4A0DCA0DCC0DCE0E501E500ED0018
:10445000F540ED00F5A0D500F6467280B4EF316569
:1044600018C400020001000000200000000000004D
:1044700000000000000000000020002000000800F4
:104480000800000000000000E75CD658AC7082C94C
:104490007206492138E06223596069C18B26496060
:1044A0002840A40AE5B06140588068C0AA83B326BA
:1044B000BB87D4CDB40A7285628741C549E64A07F5
:1044C000316441C549A5288028204900598072429D
:1044D0008AC472426A018B0482608AA18AC182A165
:1044E0007A807A6082A08AE17AC082E08B008B2099
:1044F0008B40936093809B80A380A3A0ABC1ABC093
:10450000B3E0B400BC20C440C440C440CC60CC8004
:10451000CC80D480D4A0DCA1E4C1E4E0ED20E4E0D0
:10452000E520DD20EE03BCC349406AAA082018E359
:10453000000000000020000000000000000000005B
:10454000000000000000002000000000080008003B
:10455000000000000000D6DAD657A40E72477A0594
:1045600071C369C272238AC67A2482A67AA6B46D00
:10457000AC2C9B49612060E07120A2649203AB27C0
:10458000D4AEA36861A2410020804983732A730AD4
:1045900051E5414338C03840616159004880696045
:1045A0007A237A2382638AC282807A607A8082C088
:1045B00082E07AC072807AA07AC082C082C082E033
:1045C0008B00932093419B41A361A381A3A1ABC026
:1045D000ABE0B420B440BC40BC40C460C460C46024
:1045E000CC60CC81D482D440ED02CC40E500E540E3
:1045F000CCE0F66959C038E11842290500000040B6
:10460000002000000000000000000000000000008A
:104610000000000000000000000008000000000092
:1046200000000020DEF9F73ACD32A34A9AC78A2467
:1046300079E271A18203A3288A8661828AE748A071
:104640006120DCCEAAC66060604089A1A2A6ED30E0
:104650009AE748A07AC76A66622551E451A42020EF
:10466000200040A08AC86982508060E079A3694137
:104670006941822482837A817AA17AA17AC17AC03F
:104680007AC07AA07AC07AC07AA0828082808AA119
:1046900092C292E293019B219B41A380A3A0A3C05D
:1046A000A3E0AC00AC20B420BC40BC40C440C4403B
:1046B000CC41D462DC82CC00D480E520D500EE264B
:1046C0009BC42020182039870001004000200040B2
:1046D00000000001000000000000000000000000D9
:1046E00000000000000000000800000000000000C2
:1046F0000020EF7BE697A3CC92A7B349B327AAE5A6
:10470000A2A4AAE69244AAE79285504058C0AAE71C
:10471000C389D3A989209160BAC6A244DC2C922413
:10472000610038606A6572A74983498318002000D8
:1047300069E59B299AE8820469216921798371627C
:10474000590061A26A2272837AA372A172807AC030
:1047500083007AC082C082A082808A608A6092814F
:10476000928192A092E093009B409B609B809BC0B3
:10477000A3E0A3E0ABE0B400B400BC00BC20C420C4
:10478000CC21DCA3BBA0DD01D4E0C4E1C52730A06F
:10479000184020A218E30041000000200020000083
:1047A0000001000000000000000000000000000008
:1047B00000000000000008000000000000000020D1
:1047C000F7BCFF9BCCF0AB29B328BB06BB46BB466E
:1047D000B326BB479A85924458A09A64B327BB4737
:1047E000D3A9E42ADBC9B2A4CB68E46C60803800AA
:1047F00069C36A664982412172C8308018006A051F
:104800009B099AE89286798258A058C06922614231
:1048100051015121598161E272627AA272A07280C3
:104820007AC082C082C08AA08A808A6092608A80B0
:104830008A808AA092E09300932093409B809B8083
:104840009BA0A3C0ABC0ABE0B3E0BC00C400C400FD
:10485000BBC0D4A2BC20C4A1CD4749801000208495
:104860002944000000000060002000000001000159
:104870000000000000000000000000000000000038
:104880000000000008000000000000000020F7BC4D
:10489000FF9ACCD0AB49C389C347BB46C3A7B32655
:1048A000C3E9CC4AC40ABBA8BBA8BBA8BBA7C387A3
:1048B000CBC7CBA7D3E8E4CCE4CDA2E650C069E3F4
:1048C0004962410138E172C9410238C061E49B2963
:1048D00092A782249AA69AA782048A468A878A8700
:1048E000696358E150E0616148E072427AA37281E5
:1048F0006A408B017A8082A08AE0828092E0828086
:104900008A808AC08AC08AC08AE093209B819340B3
:104910009B60A3A0ABC0B3E0B3E0BBE0BBE0BBE0F7
:10492000BC21BC61BCA56A42206008003146004140
:1049300000200040002000000001000100010000F4
:104940000000000000000000000000000000000067
:10495000000008000000000000200020F7BCFFBBA2
:10496000D551B3ABCBCAC388B305AB05B346BBC8FF
:10497000C409C3E9C3E9C42AC42AC3E9CC29D42998
:10498000C3E7BBA6CC29DCCCD48CBBCA9B49516203
:10499000282028206A2530602000280059008A44F9
:1049A000A2E6AB079AA592649AA692868A048A2404
:1049B00092468A4671A34880200069E39368728317
:1049C0006A406A407B008B6072C072808280828005
:1049D00082A08AC08AC08AC08AE08B009B619B400B
:1049E00093209B20A360ABA0B3E0B3E0ABC0AC01CD
:1049F000C50772A12060080029251083002100202E
:104A00000040002000000001000100010000000043
:104A10000000000000000000000000000000000096
:104A200008000000000000000020FFFEFFDCCD11A8
:104A3000A329B369C3A9C3E9C409AB26BB87C3E9EA
:104A4000C3EACC0ACC0ABBA8AB26AB05B366BB87CE
:104A5000B366B346BB88CC0ACC4CE50EC42B9B078F
:104A600050C048A03820612079C19242CBC7DC49B0
:104A7000DC69E48AE48BBB877960CB85BB04A262E6
:104A8000A284A2C79B0A200059657ACA7B2A6AC6FB
:104A90006AE55AA152605AA083A193618B0082A05B
:104AA0007A607A407A60828082A08AC093009B20DC
:104AB0009B60A360A360A3809B80B462B464728295
:104AC00028600800188408620000002100200020EF
:104AD00000000000000000010001000000000000D4
:104AE00000000000000000000000000000000800BE
:104AF0000000000000000020FFFEFFBCCD52A36AB2
:104B0000B36ABBAABBC9B387BB87C3A8C3A9C3A9E0
:104B1000C389C388B347AAE5AB05C3C8DC6ADC6AAE
:104B2000C3C8B327B327BB69A2A4B367D48BCC2A6D
:104B3000D4ACD4ACDCCCC3E8D407CBC6B2E2B2E38D
:104B4000D3E7E469BB4671009A20C342CB85C38793
:104B5000BB8AC42F38415987C5158B8F102021017E
:104B600052A56B665AE25AC16A6072807AA082C00E
:104B700082C18AC182A0826082608AC09300932031
:104B80008B2093209B809BC1A4237AE11000080016
:104B900020C52126000000000000000000000000E9
:104BA0000000000000010001000000000000000003
:104BB00000000000000000200000000008000000CD
:104BC000000000000020FFFEFFDDD594ABEDB3CC6C
:104BD000BC0CC46CBC2ACBC9CBA8CB67C306BAE655
:104BE000C327CB88D3C9D3C8D409DC4ADC29CB88F6
:104BF000B2E6BAC6C348D3E9B325BBA8CC4AD48B26
:104C0000BBE8BBC7B386C3A6CBA6C386DC28DC291A
:104C1000BB469A427120AAE1C3A3C3C5C408BBEB3B
:104C2000BC4E7AAA6A8BE65BB55700000000108183
:104C3000212239E462E6628372C37AC37AA27A815E
:104C40007A80828082808AC082807A607A807AC00C
:104C500083228B8393A551E018201000082218E4CA
:104C60000000002100000000000000000000000023
:104C70000000000000010000000000000000000033
:104C800000000000002000000000080000000000FC
:104C900000000000FFFFF77CC533934B82A87A86A3
:104CA00082E77A85A307AB07AB07AAC7A2A6A2A78C
:104CB000AB07B348CC2ABBE9B3A8B388AB48AB2851
:104CC000BB4AC3CBB368AB88BC2ABC2BA3A9930651
:104CD000A367ABA8B3C9B387A3069AE68203612092
:104CE00071C38A85A345B3A6B3E8B40A82C66A260F
:104CF0008B8DA472FF7EE6DC000000000000000047
:104D0000106129025A256AA572E572C372817AA0E0
:104D100082C082A082C07AA07AC08B238B857B243C
:104D20005A2139401000186028E410830041002007
:104D30000020000000000000000100010000000051
:104D40000000000000000000000000000000000063
:104D5000000000200020000000000800000000000B
:104D60000000FFFEFFFEFF5CFF3BFF19FEF8FF188F
:104D7000F6D7FF18FF3AFF7CFF9CFF5BFF1AFEF996
:104D8000FF19FF7AFF59FF59FF59FF3AFF3BFF5CBC
:104D9000FF7CFF5AFFBBFF9BF719F719FF9CFF9B96
:104DA000F719FF5AFF5AFF1AFF5BFF1BEEBBFF5EAE
:104DB000FF9FFF5CFEFAFEB9FFBDFF9CF71AFF9C48
:104DC000F77BFFBDFFBD0820082008000800080091
:104DD0000800080020A049C262837B038B438B201C
:104DE00082C07AA07AC08301832372C449C1208023
:104DF00008000801312610820040002000A2002097
:104E00000020000000000000000100010000002060
:104E10000020000000000000000000000000000072
:104E20000020000000000000000000000000000062
:104E3000FFFFFFFFFFBEFFDEFFDDFFBCFFFCFFFD4E
:104E4000FFFEFFFEFFFEFFDFFFBEFFBEFFFFFFFE18
:104E5000FFFEFFFEFFFEFFFEFFFFFFFFFFFFFFFF66
:104E6000FFDEFFFEFFDEFFFEFFFFFFFFFFFFFFFF96
:104E7000FFDEFFFFFFFFFFDFFFDFFFDFFFFFFF9F23
:104E8000FF9FFFBFFFBFFFDFFFDEFFFEFFFDFFFD58
:104E9000FFFDFFFD000008000800100010001000DA
:104EA000080008001020186031205A2072C27B02CE
:104EB0007B0272E26241392010000800082020A322
:104EC00039890002000000200020002008A10020F5
:104ED0000000000000000000000100000020002091
:104EE00000000000000000000000000000000000C2
:104EF000000000000000000000000000000094928C
:104F00009491949194719C719C71949194919471E9
:104F100094719471947194719471947194718C9151
:104F20008C918C918C918C718C7194719471947121
:104F3000947194718C918C718C718C719471947149
:104F4000947194719471947294728C72947294723C
:104F50009472947194719471947194718C9194B1D0
:104F60008C71086100001061000008000000000062
:104F700000000820108118A0106010401060104040
:104F8000080008000000188020E220E318C3000099
:104F90000000000000000000000000000000000011
:104FA0000000000000000000000000000000000001
:104FB00000000000000000000000000000000000F1
:104FC00000000000000000000000000000000000E1
:104FD00000000000000000000000000000000000D1
:104FE00000000000000000000000000000000000C1
:104FF00000000000000000000000000000000000B1
:1050000000000000000000000000000000000000A0
:105010000000000000000000000000000000000090
:10502000000000000000000000000000000018E385
:1050300000000000086100000020002000000000C7
:105040000000002008610861108218E339E731860A
:1050500018E310A210A2108200200000000000003F
:105060000000000000000000000000000000000040
:105070000000000000000000000000000000000030
:105080000000000000000000000000000000000020
:105090000000000000000000000000000000000010
:1050A0000000000000000000000000000000000000
:1050B00000000000000000000000000000000000F0
:1050C00000000000000000000000000000000000E0
:1050D00000000000000000000000000000000000D0
:1050E00000000000000000000000000000000000C0
:1050F0000000000000000000000000000841000067
:1051000008410841000000000000002000000000ED
:1051100000000000000000201082108208610000E2
:10512000000000000000000000000000000000007F
:10513000000000000000000000000000000000006F
:10514000000000000000000000000000000000005F
:10515000000000000000000000000000000000004F
:10516000000000000000000000000000000000003F
:10517000000000000000000000000000000000002F
:10518000000000000000000000000000000000001F
:10519000000000000000000000000000000000000F
:1051A00000000000000000000000000000000000FF
:1051B00000000000000000000000000000000000EF
:1051C0000000000000000000084100000000000096
:1051D00000000000000000000020000000000000AF
:1051E00000000000000000000000000000000000BF
:1051F00000000000000000000000000000000000AF
:10520000000000000000000000000000000000009E
:10521000000000000000000000000000000000008E
:10522000000000000000000000000000000000007E
:10523000000000000000000000000000000000006E
:10524000000000000000000000000000000000005E
:10525000000000000000000000000000000000004E
:10526000000000000000000000000000000000003E
:10527000000000000000000000000000000000002E
:10528000000000000000000000000000000000001E
:10529000000000000000000000000000000000000E
:1052A0000841000000000000000000000020002075
:1052B000000000000000002000200020000000008E
:1052C00000000000000000000000000000000000DE
:1052D00000000000000000000000000000000000CE
:1052E00000000000000000000000000000000000BE
:1052F00000000000000000000000000000000000AE
:10530000000000000000000000000000000000009D
:10531000000000000000000000000000000000008D
:10532000000000000000000000000000000000007D
:10533000000000000000000000000000000000006D
:10534000000000000000000000000000000000005D
:10535000000000000000000000000000000000004D
:10536000000000000020000008610841000000006B
:10537000000000000000000000000000000000002D
:1053800000000020000000000000000000000000FD
:1053900000000020000000000000000000000000ED
:1053A00000000000000000000000000000000000FD
:1053B00000000000000000000000000000000000ED
:1053C00000000000000000000000000000000000DD
:1053D00000000000000000000000000000000000CD
:1053E00000000000000000000000000000000000BD
:1053F00000000000000000000000000000000000AD
:10540000000000000000000000000000000000009C
:10541000000000000000000000000000000000008C
:10542000000000000000000000000000000000007C
:10543000000000000000000000000000000000006C
:10544000002000000000000000000000000000003C
:10545000000000000000000000000000000000004C
:10546000000000000000000000000000000000003C
:10547000000000000000000000000000000000002C
:10548000000000000000000000000000000000001C
:10549000000000000000000000000000000000000C
:1054A00000000000183C3C3C1818001818000000D0
:1054B00000000000666666000000000000000000BA
:1054C0000000000036367F3636367F363600000064
:1054D000000018183C666030180C06663C1818006E
:1054E00000000070D8DA760C18306E5B1B0E0000DE
:1054F00000000000386C6C38606F66663B0000008E
:105500000000000018181800000000000000000053
:10551000000000000C1818303030303018180C0023
:10552000000000003018180C0C0C0C0C181830007F
:10553000000000000000361C7F1C36000000000048
:1055400000000000000018187E181800000000007D
:10555000000000000000000000001C1C0C180000EF
:10556000000000000000007E0000000000000000BD
:10557000000000000000000000001C1C00000000F3
:1055800000000006060C0C181830306060000000A7
:105590000000001E333737333B3B331E0000000052
:1055A0000000000C1C7C0C0C0C0C0C0C000000000F
:1055B0000000003C6666060C1830607E00000000AB
:1055C0000000003C6666061C0666663C00000000A3
:1055D0000000003030363636667F060600000000D8
:1055E0000000007E6060607C06060C780000000011
:1055F0000000001C18307C666666663C00000000F7
:105600000000007E060C0C1818303030000000003E
:105610000000003C6666763C6E66663C000000005A
:105620000000003C666666663E0C1838000000000C
:1056300000000000001C1C0000001C1C00000000FA
:1056400000000000001C1C0000001C1C0C180000C6
:10565000000000060C18306030180C060000000036
:105660000000000000007E007E000000000000003E
:105670000000006030180C060C18306000000000BC
:105680000000003C66660C181800181800000000A6
:105690000000007EC3C3CFDBDBCFC07F0000000073
:1056A000000000183C6666667E66666600000000C4
:1056B0000000007C6666667C6666667C0000000012
:1056C0000000003C666660606066663C00000000AA
:1056D000000000786C66666666666C780000000004
:1056E0000000007E6060607C6060607E0000000002
:1056F0000000007E6060607C606060600000000010
:105700000000003C666660606E66663E0000000059
:10571000000000666666667E6666666600000000DB
:105720000000003C181818181818183C0000000059
:1057300000001E0C0C0C0C0CCCCCCC780000000033
:1057400000000066666C6C786C6C66660000000099
:1057500000000060606060606060607E00000000CB
:105760000000006363776B6B6B6363630000000092
:105770000000006363737B6F676363630000000076
:105780000000003C666666666666663C00000000D7
:105790000000007C6666667C60606060000000005F
:1057A0000000003C666666666666663C0C060000A5
:1057B0000000007C6666667C6C6666660000000021
:1057C0000000003C666030180C06663C00000000DB
:1057D0000000007E1818181818181818000000008B
:1057E00000000066666666666666663C000000004D
:1057F000000000666666666666663C18000000008B
:105800000000006363636B6B6B363636000000008C
:1058100000000066663418182C66666600000000FA
:10582000000000666666663C181818180000000044
:105830000000007E06060C183060607E000000004C
:105840000000003C303030303030303030303C0000
:105850000000006060303018180C0C0606000000D4
:105860000000003C0C0C0C0C0C0C0C0C0C0C3C0048
:1058700000183C660000000000000000000000006E
:105880000000000000000000000000000000FF0019
:105890000038180C000000000000000000000000AC
:1058A00000000000003C06063E66663E0000000068
:1058B00000000060607C66666666667C0000000032
:1058C00000000000003C66606060663C0000000074
:1058D00000000006063E66666666663E0000000042
:1058E00000000000003C66667E60603C0000000036
:1058F0000000001E3030307E3030303000000000BC
:1059000000000000003E66666666663E06067C0095
:1059100000000060607C66666666666600000000E7
:1059200000001818007818181818187E00000000D9
:1059300000000C0C003C0C0C0C0C0C0C0C0C78003B
:10594000000000606066666C786C666600000000AF
:1059500000000078181818181818187E00000000A9
:1059600000000000007E6B6B6B6B6B63000000003F
:1059700000000000007C6666666666660000000047
:1059800000000000003C66666666663C00000000A1
:1059900000000000007C66666666667C60606000F1
:1059A00000000000003E66666666663E060606006B
:1059B0000000000000666E70606060600000000023
:1059C00000000000003E60603C06067C0000000015
:1059D00000000030307E30303030301E00000000DB
:1059E00000000000006666666666663E0000000015
:1059F000000000000066666666663C180000000055
:105A00000000000000636B6B6B6B3636000000001B
:105A1000000000000066663C183C6666000000005E
:105A200000000000006666666666663C0C18F000C2
:105A300000000000007E060C1830607E00000000B0
:105A40000000000C1818183060301818180C0000EE
:105A50000000001818181818181818181818180026
:105A6000000000301818180C060C18181830000028
:105A700000000071DB8E000000000000000000004C
:105A800011241FBECFE5D8E0DEBFCDBF10E0A0E6F9
:105A9000B0E0EAE6F6E602C005900D92A23CB1073E
:105AA000D9F710E0A2ECB0E001C01D92A33CB10711
:105AB000E1F70C94E4320C9400008AB380638ABB53
:105AC0008BB380638BBB0895DD9A84E690E00E94DF
:105AD0009D2EDC9A84E690E00E949D2EDD9884E65F
