:1000000012C02CC02BC045C04FC028C058C026C04D
:1000100025C024C023C097C166C120C01FC01EC018
:100020001DC01CC01BC011241FBECFE5D4E0DEBF25
:10003000CDBF10E0A0E6B0E0E0E8F4E002C005903B
:100040000D92AC37B107D9F710E0ACE7B0E001C0D2
:100050001D92A738B107E1F702D010C2D1CF70D0FE
:1000600083E390E01CD185B7806885BF889585B70C
:100070008F7785BFF8CF12BE089593E0899F9001D6
:100080001124C901089598E2899F90011124C901A2
:1000900008951F920F920FB60F921124A9980F90F6
:1000A0000FBE0F901F9018951F920F920FB60F92D0
:1000B0001124A99A0F900FBE0F901F9018951F92B0
:1000C0000F920FB60F9211240F931F932F933F930C
:1000D0004F935F936F937F938F939F93AF93BF9350
:1000E000EF93FF9382B78093860012BE559A28E261
:1000F000829FC001112490937F0080937E0000E8CE
:1001000010E0B8014AE050E095D186E061E0B9D056
:10011000C801ABD080E690E0A8D0FF91EF91BF91ED
:10012000AF919F918F917F916F915F914F913F918F
:100130002F911F910F910F900FBE0F901F90189548
:1001400086EA81BF8FEF87BB82BB82E084BB54D03D
:100150007FD080E060E095D08BE690E086D080E0B4
:1001600061E08FD082E790E080D027E023BF81EE6E
:1001700098E09BBD8ABD89B7806189BF8DE08EBD47
:1001800025BD89B7806C89BF789408952FB7F894FE
:10019000982F907F98BBC39A91E0392F3A95F1F749
:1001A000C39832E03A95F1F78295807F88BBC39A75
:1001B0009A95F1F7C3982FBF8AE68A95F1F70895CB
:1001C0002FB7F894982F907F946098BBC39A91E0D2
:1001D000392F3A95F1F7C39832E03A95F1F78295C5
:1001E000807F846088BBC39A9A95F1F7C3982FBF2C
:1001F0008AE68A95F1F7089518BA80E395E70197A2
:10020000F1F798E398BB21E0822F8A95F1F780E31C
:1002100088BBE8E0F0E23197F1F798BB322F3A95CE
:10022000F1F788BBE8ECF0E03197F1F798BB922F3B
:100230009A95F1F788BB9AE6892F8A95F1F788E2BB
:1002400088BB2A95F1F780E288BB9A95F1F708956B
:1002500088E29CDF86E09ADF8CE098DF81E096DF21
:1002600080ED9CE00197F1F70895CF93DF93EC01C7
:1002700002C02196A5DF88818823D9F7DF91CF912D
:100280000895623031F0633031F0613029F4805CE0
:1002900003C08C5E01C08C5A806878DF089590BDE1
:1002A00089B988E18AB98EEA80BD08955D9BFECF49
:1002B0008CB908955F9BFECF8CB1089501C08CB1BD
:1002C0005F99FDCF0895FC0104C05D9BFECF319680
:1002D0008CB980818823C9F70895FC018CB1808393
:1002E0008BB1847008951F920F920FB60F92112454
:1002F0008F9380917C00813059F0813028F08230DA
:1003000059F08330B9F40EC085E68CB981E007C09E
:1003100080E78CB982E003C086E68CB983E08093E5
:100320007C000BC0809186008CB910927C0055989F
:10033000579A03C010927C0055988F910F900FBE72
:100340000F901F9018951F920F920FB60F921124C5
:100350001F932F933F934F935F936F937F938F934D
:100360009F93AF93BF93EF93FF931CB15A9B05C02C
:100370008BE060E086DF8AE204C08BE060E081DF32
:1003800080E21EDF80917D00813059F0813028F0BD
:10039000823059F0833031F50EC0153629F581E0F1
:1003A00007C01037F9F482E003C01636D9F483E0B1
:1003B00080937D0019C013BD84E6189FC0011124ED
:1003C0006FEF70E023D0CB0160E870E04AE050E0CE
:1003D00031D080E890E049DF87E790E046DF57982A
:1003E00010927C0010927D00FF91EF91BF91AF9130
:1003F0009F918F917F916F915F914F913F912F913D
:100400001F910F900FBE0F901F901895AA1BBB1B3A
:1004100051E107C0AA1FBB1FA617B70710F0A61B04
:10042000B70B881F991F5A95A9F780959095BC0125
:10043000CD010895FB019F0142306CF045325CF420
:10044000642F7727E3DF805D8A330CF0895D819329
:10045000CB010097A9F71082C90100C0DC01FC01A3
:10046000672F71917723E1F7329704C07C916D93E8
:1004700070836291AE17BF07C8F30895F894FFCF59
:100480002072706D2020202020200047617365734A
:0C0490003A005265763A0025202000005A
:00000001FF
