:100000000C9422030C9437030C9437030C9437039D
:100010000C9437030C9437030C9437030C94370378
:100020000C9437030C9437030C9437030C94370368
:100030000C9437030C9437030C9437030C94370358
:100040000C9437030C9437030C9437030C94370348
:100050000C943703000000000000000000000000C6
:100060000000000000000000183C3C3C181800187C
:100070001800000000000000666666000000000036
:10008000000000000000000036367F3636367F362E
:1000900036000000000018183C666030180C066638
:1000A0003C18180000000070D8DA760C18306E5B2F
:1000B0001B0E000000000000386C6C38606F666634
:1000C0003B000000000000001818180000000000AD
:1000D00000000000000000000C18183030303030F4
:1000E00018180C00000000003018180C0C0C0C0C38
:1000F00018183000000000000000361C7F1C36007D
:100100000000000000000000000018187E18180011
:1001100000000000000000000000000000001C1CA7
:100120000C180000000000000000007E000000002D
:1001300000000000000000000000000000001C1C87
:100140000000000000000006060C0C18183030609B
:10015000600000000000001E333737333B3B331E86
:10016000000000000000000C1C7C0C0C0C0C0C0CA3
:10017000000000000000003C6666060C1830607E3F
:10018000000000000000003C6666061C0666663C37
:10019000000000000000003030363636667F06066C
:1001A000000000000000007E6060607C06060C78A5
:1001B000000000000000001C18307C666666663C8B
:1001C000000000000000007E060C0C1818303030D3
:1001D000000000000000003C6666763C6E66663CEF
:1001E000000000000000003C666666663E0C1838A1
:1001F0000000000000000000001C1C0000001C1C8F
:100200000000000000000000001C1C0000001C1C7E
:100210000C180000000000060C18306030180C06A6
:10022000000000000000000000007E007E000000D2
:10023000000000000000006030180C060C18306050
:10024000000000000000003C66660C18180018183A
:10025000000000000000007EC3C3CFDBDBCFC07F07
:1002600000000000000000183C6666667E66666658
:10027000000000000000007C6666667C6666667CA6
:10028000000000000000003C666660606066663C3E
:1002900000000000000000786C66666666666C7898
:1002A000000000000000007E6060607C6060607E96
:1002B000000000000000007E6060607C60606060A4
:1002C000000000000000003C666660606E66663EEE
:1002D00000000000000000666666667E6666666670
:1002E000000000000000003C181818181818183CEE
:1002F0000000000000001E0C0C0C0C0CCCCCCC78C8
:100300000000000000000066666C6C786C6C66662D
:100310000000000000000060606060606060607E5F
:10032000000000000000006363776B6B6B63636326
:10033000000000000000006363737B6F676363630A
:10034000000000000000003C666666666666663C6B
:10035000000000000000007C6666667C60606060F3
:10036000000000000000003C666666666666663C4B
:100370000C0600000000007C6666667C6C666666A3
:10038000000000000000003C666030180C06663C6F
:10039000000000000000007E18181818181818181F
:1003A0000000000000000066666666666666663CE1
:1003B00000000000000000666666666666663C181F
:1003C000000000000000006363636B6B6B36363621
:1003D0000000000000000066663418182C6666668F
:1003E00000000000000000666666663C18181818D9
:1003F000000000000000007E06060C183060607EE1
:10040000000000000000003C303030303030303030
:1004100030303C000000006060303018180C0C06D2
:10042000060000000000003C0C0C0C0C0C0C0C0C2A
:100430000C0C3C0000183C660000000000000000AE
:1004400000000000000000000000000000000000AC
:100450000000FF000038180C000000000000000041
:100460000000000000000000003C06063E66663EFC
:100470000000000000000060607C66666666667CC6
:100480000000000000000000003C66606060663C08
:100490000000000000000006063E66666666663ED6
:1004A0000000000000000000003C66667E60603CCA
:1004B000000000000000001E3030307E3030303050
:1004C0000000000000000000003E66666666663EB2
:1004D00006067C0000000060607C666666666666F4
:1004E0000000000000001818007818181818187E6E
:1004F0000000000000000C0C003C0C0C0C0C0C0C60
:100500000C0C7800000000606066666C786C6666B3
:100510000000000000000078181818181818187E3D
:100520000000000000000000007E6B6B6B6B6B63D3
:100530000000000000000000007C666666666666DB
:100540000000000000000000003C66666666663C35
:100550000000000000000000007C66666666667CA5
:100560006060600000000000003E66666666663EF1
:10057000060606000000000000666E7060606060A5
:100580000000000000000000003E60603C06067CA9
:100590000000000000000030307E30303030301E6F
:1005A0000000000000000000006666666666663EA9
:1005B00000000000000000000066666666663C18E9
:1005C000000000000000000000636B6B6B6B3636B0
:1005D00000000000000000000066663C183C6666F3
:1005E0000000000000000000006666666666663C6B
:1005F0000C18F00000000000007E060C1830607E31
:10060000000000000000000C1818183060301818A6
:10061000180C0000000000181818181818181818DE
:1006200018181800000000301818180C060C1818BC
:100630001830000000000071DB8E00000000000098
:100640000000000011241FBECFE5D8E0DEBFCDBF03
:1006500010E0A0E6B0E0E8E1FEE002C005900D92F7
:10066000AA37B107D9F70E9439030C940A070C94F2
:1006700000000F931F938D9882B38FEF82BB84BBD2
:100680000E949A0480E098EF0E94530484E190E075
:1006900062E370E040E650E02FEF3FEF00E018EF3C
:1006A0000E94250484E190E066E970E04BE650E0AA
:1006B0002FEF3FEF0E942504FFCF0F931F938C0174
:1006C000C29ADF98DE98C39A81E090E00E94080702
:1006D00015BB81E090E00E940807C398C39A81E0AF
:1006E00090E00E94080705BB81E090E00E940807A7
:1006F000C398DE9A1F910F9108951F93182FC29AE5
:10070000DF9ADE98C39A95BB81E090E00E940807CB
:10071000C398C39A81E090E00E94080715BB81E06E
:1007200090E00E940807C398DE9A1F910895AF9247
:10073000BF92CF92DF92FF920F931F93CF93DF93DD
:10074000182F5B016A0182E290E00E945D03C12FD5
:10075000D0E084E0CC0FDD1F8A95E1F7CC5AD14080
:10076000FF24FE01049110E007FF02C0C50101C093
:10077000C6010E947D031F5F183011F0000FF4CFF7
:10078000F3942196F0E1FF1661F7DF91CF911F916D
:100790000F91FF90DF90CF90BF90AF9008950F938F
:1007A0001F938B010E945D03C8010E947D031F916E
:1007B0000F9108950F931F939C018B0180E290E0AD
:1007C000B9010E94CF0381E290E0B8010E94CF03FB
:1007D0001F910F910895AF92BF92CF92DF92EF9247
:1007E000FF920F931F938C015B016A017901E61A56
:1007F000F70A87E391E0E80EF91EC801B7010E94ED
:10080000DA0380E590E0B8010E94CF030150104068
:100810000C0D1D1D81E590E0B8010E94CF0368E337
:1008200071E06A197B0982E590E00E94CF0383E5BD
:1008300090E0B7010E94CF031F910F91FF90EF90BE
:10084000DF90CF90BF90AF900895AF92BF92CF92BC
:10085000DF92EF92FF920F931F93CF93DF937C0170
:100860005B01EA01690111C0C501B7014FE050E029
:1008700028E030E00E94EB038991B601A8010E94B4
:10088000970388E090E0E80EF91E8881882361F7DD
:10089000DF91CF911F910F91FF90EF90DF90CF905C
:1008A000BF90AF9008950F931F938C0180E290E06A
:1008B00060E070E00E94CF0381E290E060E070E0D1
:1008C0000E94CF0380E590E060E070E00E94CF03DB
:1008D00081E590E06FEE70E00E94CF0382E590E04A
:1008E00060E070E00E94CF0383E590E06FE371E089
:1008F0000E94CF0382E290E00E945D03C29ADF9AD9
:10090000DE9880E090E0A0E0B0E0C39A15BBC39809
:10091000C39A05BBC3980196A11DB11D80302CE27E
:10092000920721E0A20720E0B20779F7DE9A1F9133
:100930000F9108958E9AD69AD79ABB9ABA9AB99A75
:10094000C19884E690E00E940907C19A84E690E08D
:100950000E94090783EE90E068E070E30E94CF03F5
:1009600087EE90E062E170E00E94CF038FEE90E0AE
:1009700061E372E10E94CF0380E090E061E070E00B
:100980000E94CF0381E090E060E070E00E94CF031E
:1009900082E090E060E077E00E94CF0383E090E0A7
:1009A00068E170E10E94CF0384E090E060E070E0D5
:1009B0000E94CF0388E090E064E074E00E94CF03DF
:1009C00089E090E060E070E00E94CF038AE090E070
:1009D00060E070E00E94CF0380E190E060E870E0AA
:1009E0000E94CF0381E190E067E070E00E94CF03B6
:1009F00082E190E060E070E00E94CF0383E190E04C
:100A000060E070E00E94CF0387E090E061E070E07A
:100A10000E94CF0380ED97E00E94090780E190E0FB
:100A200060E975E10E94CF0381E190E067E272E046
:100A30000E94CF0388EE93E00E94090782E190E0D4
:100A40006EE170E00E94CF0388EE93E00E940907F8
:100A500083E190E060E075E10E94CF0389E290E0DD
:100A600068E270E00E94CF038BE290E06FE070E0FC
:100A70000E94CF0384EF91E00E94090780E290E09A
:100A800060E070E00E94CF0381E290E06FE371E0EC
:100A90000E94CF0380E390E067E070E00E94CF0304
:100AA00081E390E067E077E00E94CF0382E390E08B
:100AB00067E071E00E94CF0385E390E066E072E0BA
:100AC0000E94CF0386E390E066E074E00E94CF03CB
:100AD00087E390E061E071E00E94CF0388E390E05B
:100AE00061E071E00E94CF0389E390E067E072E08B
:100AF0000E94CF038CE390E064E075E00E94CF0396
:100B00008DE390E066E078E00E94CF0380E590E01E
:100B100060E070E00E94CF0381E590E06FEE70E04E
:100B20000E94CF0382E590E060E070E00E94CF0376
:100B300083E590E06FE371E00E94CF0380E690E0F0
:100B400060E077E20E94CF0381E690E061E070E030
:100B50000E94CF038AE690E060E070E00E94CF033D
:100B600080E890E060E070E00E94CF0381E890E0D0
:100B700060E070E00E94CF0382E890E060E070E007
:100B80000E94CF0383E890E060E070E00E94CF0312
:100B900084E890E060E070E00E94CF0385E890E098
:100BA00060E070E00E94CF0380E990E060E170E0D7
:100BB0000E94CF0382E990E060E076E00E94CF03DC
:100BC00083E990E063E070E00E94CF0385E990E064
:100BD00060E171E00E94CF0387E990E060E070E09F
:100BE0000E94CF0388E990E060E070E00E94CF03AC
:100BF00087E090E063E771E00E94CF0380E090E03F
:100C00000E94530480ED97E00E940907969A089588
:100C1000AF92BF92CF92DF92EF92FF920F931F930A
:100C200080E290E060E070E00E94CF0381E290E01B
:100C300060E070E00E94CF03EE24FF24870180E58E
:100C400090E060E070E00E94CF0381E590E06FEEFD
:100C500070E00E94CF0382E590E060E070E00E94C7
:100C6000CF0383E590E06FE371E00E94CF0382E25F
:100C700090E00E945D03AA24BB246501E114F10405
:100C80000105110529F48FE190E00E947D031FC04A
:100C900081E0E816F1040105110529F480E098EFE0
:100CA0000E947D031DC082E0E816F10401051105D4
:100CB00029F480EE97E00E947D031BC083E0E816D4
:100CC000F1040105110519F48FEF97E01AC084E0D3
:100CD000E816F1040105110519F48FE198EF11C030
:100CE00085E0E816F1040105110519F480EE9FEF87
:100CF00008C086E0E816F1040105110521F480E042
:100D000090E00E947D030894A11CB11CC11CD11C61
:100D100080E0A8168CE2B80681E0C80680E0D8061C
:100D200009F0ACCF84E690E00E9409070894E11C2A
:100D3000F11C011D111D87E0E816F10401051105E4
:100D400009F07DCF1F910F91FF90EF90DF90CF9032
:100D5000BF90AF900895EF92FF920F931F939C0165
:100D60008B017A0180E290E0B9010E94CF0381E219
:100D700090E0B8010E94CF0382E290E00E945D0300
:100D8000C7010E947D031F910F91FF90EF9008957E
:100D9000AF92BF92CF92DF92FF920F931F93CF93A8
:100DA000DF93FC01CB01F42E59016801BF014FE034
:100DB00050E028E030E00E94EB0382E290E00E94E5
:100DC0005D03CF2DD0E094E0CC0FDD1F9A95E1F7C5
:100DD000CC5ADE4F00E0FE01F49010E0F7FE02C0B6
:100DE000C50101C0C6010E947D031F5F183011F0CC
:100DF000FF0CF4CF0F5F2196003169F7DF91CF919F
:100E00001F910F91FF90DF90CF90BF90AF9008950A
:080E100008950895F894FFCF46
:100E1800486F6C61206972656E6500657066205365
:0A0E280075706572736F6E696300E8
:00000001FF
