:100000000C94FA000C941E010C941E010C941E0119
:100010000C941E010C941E010C941E010C941E01E4
:100020000C941E010C941E010C941E010C941E01D4
:100030000C941E010C941E010C941E010C941E01C4
:100040000C941E010C941E010C941E010C941E01B4
:100050000C941E010C941E010C9458010C941E016A
:100060000C941E010C941E010C941E010C941E0194
:100070000C941E010C941E010C941E010C941E0184
:100080000C941E010C941E010C941E010C941E0174
:100090000C941E010C941E010C941E010C941E0164
:1000A0000C941E010C941E010C941E010C941E0154
:1000B0000C941E010C941E010C941E010C941E0144
:1000C0000C941E010C941E010C941E010C941E0134
:1000D0000C941E010C941E010C941E010C941E0124
:1000E0000C941E010C941E010C941E010C941E0114
:1000F0000C941E010C941E010C941E010C941E0104
:100100000C941E010C941E010C941E010C941E01F3
:100110000C941E010C941E010C941E010C941E01E3
:100120000C941E010C941E010C941E010C941E01D3
:100130000C941E010C941E010C941E010C941E01C3
:100140000C941E010C941E010C941E010C941E01B3
:100150000C941E010C941E010C941E010C941E01A3
:100160000C941E010C941E010C941E010C941E0193
:100170000C941E010C941E010C941E010C941E0183
:100180000C941E010C941E010C941E010C941E0173
:100190000C941E010C941E010C941E010C941E0163
:1001A0000C941E010C941E010C941E010C941E0153
:1001B0000C941E010C941E010C941E010C941E0143
:1001C0000C941E010C941E010C941E010C941E0133
:1001D0000C941E010C941E010C941E010C941E0123
:1001E0000C941E010C941E010C941E010C941E0113
:1001F0000C941E0111241FBECFEFDFE2DEBFCDBF86
:1002000018BE19BE1ABE1BBE10E2A0E0B0E2ECE2BE
:10021000F3E000E00BBF02C007900D92A030B107E1
:10022000D9F71BBE10E2A0E0B0E201C01D92A830D9
:10023000B107E1F70E9420010C9494010C94000096
:10024000DF93CF93CDB7DEB7E0E4F8E081E08283BF
:10025000E0E4F8E082E08783E0E4F8E08FEF848771
:10026000E0E4F8E088EC90E086A397A3E0E4F8E00F
:1002700088EC90E080A791A7E0E4F8E081E1818339
:10028000E0E4F8E081E08083A0EAB0E0E0EAF0E0BA
:100290008281826012968C931297789480910020CC
:1002A0009091012001968093042090930520F6CF31
:1002B0001F920F920FB60F92009038000F921124E8
:1002C000109238002F938F939F93DF93CF93CDB7E6
:1002D000DEB780910020909101200196809300204C
:1002E00090930120809100209091012023E0883E8E
:1002F000920769F4809104209091052001968093E3
:100300000420909305201092002010920120CF919C
:10031000DF919F918F912F910F90009238000F9055
:0C0320000FBE0F901F901895F894FFCFAF
:00000001FF
