:1000000098C6B2C6B1C6B0C6AFC6AEC6ADC6ACC65F
:10001000ABC6AAC6A9C6A8C6A7C6A6C6A5C6A4C674
:10002000A3C6A2C6A1C622080A0E206004020506C5
:10003000070809020303050802040204070407076E
:100040000707070707070202070707080E0908083E
:100050000807070908020708070B08090709090725
:100060000808090D07080804040406080307070622
:100070000707050707020306020A07070707050621
:100080000507070B06070505010507080000000026
:1000900000000000FEFE18181E1E001E1E000000BC
:1000A000000090F89E90F89E1C00001C0000183C78
:1000B00026FF66CC88040C183C180C041C221CC0BB
:1000C000308E408000001804000C100C80CC7E7232
:1000D000F2DE0C80000C1C1010101C0C1C101E1EDC
:1000E0000000F0FC061C7CC006FCF0C07C1C141454
:1000F0000E14140000000000606060FCFC60606092
:100100000000000C0C00000000005838C0C0C0C047
:10011000000000000000181800C038061804000095
:10012000F8FC0E060EFCF8040C1C181C0C04180C31
:10013000FEFE00001C1C181C86C6663E1C181C1CFB
:1001400018181818888C062626FEDC040C1C1818B3
:100150000C04C0E0B88CFEFE80040404041C1C04E3
:10016000707E3E3636F6C60C1C1818180C04F8FCC7
:100170006E6666EECC040C1818181C0C060606E613
:10018000761E0600001C1C0000009CFE666666FED3
:100190009C0C1C1818181C0C3C7E666666FCF80C3F
:1001A0001C18181C0C0418181818181858386060F7
:1001B000F0F098980C0000000004040CD8D8D8D8AF
:1001C000D8D8D8000000000000000C9898F0F0602B
:1001D000600C040400000000080C06C6E6763C181B
:1001E0000000001818000000E03008C4F63A1A1A9F
:1001F000F2FA7E0408F00C30604C9C98988C9C9C21
:1002000090484C2000C0F8BE86BEF8C000181C0400
:10021000040404041C18FEFE66666666FEDC1C1CF4
:10022000181818181C0CF8FC0E06060E9C08040C76
:100230001C18181C0C04FEFE0606060EFCF81C1CFE
:100240001818181C0C04FEFE66666666661C1C18F0
:1002500018181818FEFE66666666061C1C0000006C
:100260000000F8FC0E0606C6CEDCC8040C1C1818EC
:1002700018180C04FEFE60606060FEFE1C1C00008E
:1002800000001C1CFEFE1C1C8080000000FEFE0CFA
:100290001C1818181C0CFEFE603078EC86021C1C22
:1002A000000000041C18FEFE00000000001C1C18CA
:1002B00018181818FEFE0E7CE000E07C0EFEFE1CF6
:1002C0001C00000C1C0C00001C1CFEFE1C78E080B6
:1002D000FEFE1C1C0000040C1C1CF8FC0E0606068E
:1002E0000EFCF8040C1C1818181C0C04FEFE6666A4
:1002F000667E3C1C1C0000000000F8FC0E06860612
:100300000EFCF8040C1C18181C0C1C24FEFE66665F
:10031000E6E6BE1C001C1C0000000C1C18103C7EF5
:10032000666666EECC0C1C1818181C0C060606FE39
:10033000FE0606060000001C1C000000FEFE000079
:100340000000FEFE040C1C18181C0C04021EFCE02D
:1003500000E0FC1E020000001C1C1C00000006FE49
:10036000F800F0FE0EFEF000F8FE0600001C1C1C5B
:100370000000001C1C1C0000060EF8F0F80E061809
:100380001C0400041C18060E38F0F0380E0600009D
:10039000001C1C000000060686E6761E0E06181CD1
:1003A0001C1818181818FEFE0606FCFCC0C00638FB
:1003B000C000000004180606FEFEC0C0FCFC203889
:1003C0000E0E3820000000000000000000000000B9
:1003D0000000808080808080808002060400000011
:1003E0001098D858F8F0000C1C18180C1C10FEFEC1
:1003F000301838F0E01C1C0C181C0C04E0F0181825
:100400003830040C18181C0CE0F0381830FEFE04CC
:100410000C1C180C1C1CE0F0D8D8D8F0E0040C1808
:100420001818180818FCFE1A1A001C1C0000E0F02E
:10043000381830F8F864ECDCD8CCFC7CFEFE3018C0
:1004400018F8F01C1C0000001C1CFAFA1C1C00FA16
:10045000FAC0FC7CFEFEE0F098081C1C00041C188E
:10046000FEFE1C1CF8F81018F8F01818F8F01C1C08
:1004700000001C1C00001C1CF8F8301818F8F01CB8
:100480001C0000001C1CE0F0381838F0E0040C1CC4
:10049000181C0C04F8F8301838F0E0FCFC0C181CA0
:1004A0000C04E0F0381830F8F8040C1C180CFCFCB4
:1004B000F8F83018181C1C00000070F8D8D8D89034
:1004C000081818181C0C18FCFE1818000C1C18181A
:1004D000F8F8000000F8F80C1C18180C1C1C38F870
:1004E000C000C0F83800001C1C1C000018F8E00018
:1004F000F038F000E0F81800001C1C0C000C1C1C6C
:1005000000001838E0E03818181C04041C1818F80B
:10051000E000E0F8180084FCF83C04001898D87853
:10052000381C1C18181880FC7E0606007CFCC0C015
:10053000FEFC06067EFC80C0C0FC7C006030307093
:1005400060603000000000000000FE0202020202B3
:1005500002FE1C1010101010101C0D5F0A09206004
:10056000000103040506060103030305010201035C
:100570000402040405040404040401010304030543
:10058000080604050505040505010405040705051D
:100590000405050405050609050506020302030511
:1005A0000204040404040304040101040107040414
:1005B0000404030402040505040503030103040500
:1005C0005F000300030000007C177C1700000000A0
:1005D0002649FF493200000000000205722E51201A
:1005E000000000000000304E495926500000000075
:1005F000000003007C820100008001827C800000FA
:1006000005030500000010107C1010000000000021
:10061000C000101000004000601C030000007E417C
:10062000413E00000000027F000042615946000088
:10063000000022414936000000001814127F10000B
:10064000000000002C474539000000003E45453AB7
:100650000000000001710D0300000000364949361A
:10066000000000002E51513E000000004400C40074
:1006700008142200000014141414000000002214B6
:1006800008000000020159090600000000007C82F9
:100690007945794DA29C0000808080800000403820
:1006A000161116380000000000007F49493E000086
:1006B00000003E4141412200000000007F414141D5
:1006C0003E00000000007F49494949000000000049
:1006D0007F090901000000003E4141493A00000045
:1006E00000007F0808087F00000000007F006040D5
:1006F000403F000000007F0814224100000000007D
:100700007F404040000000007F06384038067F00F0
:100710000000000000007F0608307F00000000009D
:100720003E4141413E00000000007F09090F0000EA
:1007300000003E4141615E00000000007F09091990
:100740006600000000002649493200000000010157
:100750007F010100000000003F4040403F000000DA
:100760000000030C3040300C000000000000033C8F
:10077000403E013E403C030000000000000000003D
:1007800041361826410000000000010678060100ED
:100790000000000061514945434100000000000095
:1007A000FF018080031C6000000001FF80800601C3
:1007B00006000000000000000080808080800102B0
:1007C00000006454547C000000007F444438000062
:1007D000000038444428000000003844447F0000F2
:1007E00000003854545800000000047E050000004A
:1007F000B84444FC008080007F04047800000000BE
:100800007D00FD007F103844000000007F007C0464
:10081000047C040478000000000000007C040478DC
:10082000000000003844443800000000FC44443814
:1008300080000000384444FC000000807C04040078
:10084000000048545424000000007E4400003C4056
:10085000407C000000000438403804000000000024
:100860003C403C403C00000000004438284400006C
:1008700000000438C03804008000000064544C00BC
:10088000000010EF01008080FF0001EF1080800069
:1008900018081018000000007E4242427E0000004E
:1008A0000000322E20416E616C697A61646F7220A3
:1008B0004C6F6769636F00312E204F7363696C6FF3
:1008C00073636F70696F0053656C656363696F6E06
:1008D000612031206F7063696F6E000000000000BE
:1008E0000000000000000000000000000000000008
:1008F00000000000000000000000000000000000F8
:10090000000000000000000000000000008080E007
:10091000F0F0F0F0F0E0C000000000000000000087
:100920000000000000008080C0E0F0F0F0F0F0E097
:1009300000000000000000000000000000000000B7
:1009400000000000000000000000000000000000A7
:100950000000000000000000000000000000000097
:100960000000000000000000000000000000000087
:100970000000000000000000000000000000000077
:10098000000000000000C0C0E0F0F8FCFFFFFFC75F
:10099000C3FFFFFFFFFFFF0000000000000000C0DA
:1009A000C0E0F0FCFEFF7F3F3F1F7F7F7F7F7F7FA8
:1009B0000000000000000000000000000000000037
:1009C0000000000000000000000000000000000027
:1009D0000000000000000000000000000000000017
:1009E0000000000000000000000000000000000007
:1009F00000000000000000000000000000000000F7
:100A0000C0E0F0F8FE7F3F1F1F0F0707070707072B
:100A100007FFFFFFFFFFFF000080E0E0F0FEFF7F29
:100A20003F1F1F070100181C1E1EFEFEFEFEFEFEDD
:100A300000000000000000000000000000000000B6
:100A400000000000000000000000000000000000A6
:100A50000000000000000000000000000000000096
:100A60000000000000000000000000000000000086
:100A7000000000000000000000000000080C0E0F45
:100A80000F0F07030000000000000000000000003E
:100A9000000F0F0F0F0F0F00000F0F1F1F1F1F1E44
:100AA0001E1E1E1E1E1E1E1E1E1E1F1F1F1F1F0F70
:100AB0000000000000000000000000000000000036
:100AC0000000000000000000000000000000000026
:100AD0000000000000000000000000000000000016
:100AE0000000000000000000000000000000F0080E
:100AF0000404040418000000E0101010E00010F0DE
:100B0000201010E0201010E00010F0201010E00085
:100B100000E0101010E00010F0201010E000E05095
:100B20005050600010F0201010E00010FC1010E099
:100B30005050506000605090B00000000000000075
:100B400000000000000000000000000000000000A5
:100B50000000000000000000000000000000000095
:100B60000000000000000000000000000000000184
:100B7000020202020200000001020202010002035E
:100B8000020002030200000302101F120201000013
:100B9000000102020201000203020000030201023E
:100BA000020202000203020000030200010202012D
:100BB0000202020200030202010000000000000025
:100BC0000000000000000000000000000000000025
:100BD0000000000000000000000000000000000015
:100BE000000000000000000000000000000004FC05
:100BF000044444380010F020103000E0101010E0E1
:100C00000010FC1212E05050506000605090B00094
:100C100010F4000000E0101010E00010F0201010A0
:100C2000E00000A05050E00002FE0000E0505050F4
:100C30006000605090B00000000000000000000064
:100C400000000000000000000000000000000000A4
:100C50000000000000000000000000000000000094
:100C6000000000000000000000000000000002037F
:100C70000200000000020302000000010202020163
:100C8000000203020001020202020003020201004C
:100C9000020302000001020202010002030200003E
:100CA0000302000302020302020302000102020225
:100CB000020003020201000000000000000000002A
:100CC0000000000000000000000000000000000024
:100CD00000000000000000000000004368310043F5
:100CE00068320056657273696F6E20312E30004194
:100CF0006E616C697A61646F72204C6F6769636FB3
:100D000000507275656261203200436831004368AB
:100D100032004F7363696C6F73636F70696F205635
:100D200065722E20312E300050727565626120315F
:100D3000000011241FBECFE5D4E0DEBFCDBF10E020
:100D4000A0E6B0E0ECEBFEE102C005900D92A0360B
:100D5000B107D9F710E0A0E6B0E001C01D92A237BC
:100D6000B107E1F73ED0A8C84BC997B1987F97B9B2
:100D700097B1982B97B9369A3699FECF95B184E101
:100D8000989FC00111246FEF70E06FD8CB010895D8
:100D90000F931F9300E02FE34FE760E080E07CD5E6
:100DA0000AEB18E04FEFB80186E290E0E6D16FE081
:100DB00080E07ED287EC98E05FD44FEFB8018AE5FF
:100DC00095E0DBD163E28FE073D287EB98E054D4F7
:100DD0006DE28FE06DD282EA98E04ED41F910F91C0
:100DE0000895AF92BF92CF92DF92EF92FF920F934E
:100DF0001F93DF93CF9300D0CDB7DEB714BA8FE047
:100E000085BB80EE88BB82E083BF1A82198205C051
:100E100089819A8101969A83898389819A818859E7
:100E20009A43B0F380E0C4D586E891E00DD88BED0D
:100E300098E0E3D786EC9DE207D817E331E2F32E82
:100E400020E1C22EDD24D39496E8B92E80E6A82EA8
:100E50009FDF86B3807C803809F0B5C000E02FE3C7
:100E60004FE760E080E018D54FEF6AEB78E086E26C
:100E700090E083D16BE188E21BD288E29DE0FCD355
:100E8000EE24EA9406E02FE043E469E182E2B2D581
:100E90000FEF2FE34FE760E080E07BD62CE340E1EB
:100EA00068E080E19AD627E348E767E38AE095D6D1
:100EB00084E89EE1C9D700E022E149E468E18EE1DF
:100EC000EBD44FEF6AEB78E08AE595E056D162E02B
:100ED0008BE1EED182E19DE0CFD36AE281E0E8D1FF
:100EE0008EE09DE0C9D363E181E0E2D18AE09DE03C
:100EF000C3D3B6B8A7B8C092610054C0989BA8CF1E
:100F000085E033DF8093630090936400612F681B5A
:100F10004FEF80916100FBD390916100913168F0B7
:100F200080916300212F281B80916700612F681B2F
:100F30000FEF492F892F815050D6809163009091F7
:100F40006400909368008093670084E00EDF8093D4
:100F50006300909364006F2D681B4FEF80916100D8
:100F6000D6D390916100913168F0809163002F2D6C
:100F7000281B809165006F2D681B0FEF492F892F6B
:100F800081502BD68091630090916400909366000D
:100F9000809365008AEB90E057D7809161008F5F66
:100FA0008093610080916100883708F4A7CF00E04A
:100FB00023E148E663E281E16FD424E148E66DE095
:100FC00081E16AD498CF86B3807C803409F041CF28
:100FD00000E02FE34FE760E080E05ED44FEF6AEB84
:100FE00078E086E290E0C9D06BE188E261D181E0EF
:100FF0009DE042D3EE24EA9406E02FE043E469E169
:1010000082E2F8D40FEF2FE34FE760E080E0C1D534
:101010002CE340E168E080E1E0D527E348E767E3BF
:101020008AE0DBD584E89EE10FD700E022E149E4C5
:1010300068E18EE131D40FEF21E248E761E28AE016
:10104000CCD54FEF6AEB78E08AE595E096D062E088
:1010500080E22ED18FEE9CE00FD36BE08AE228D1A4
:1010600083EE9CE009D36AE281E022D18FED9CE01F
:1010700003D363E181E01CD18BED9CE0FDD2C092F3
:10108000610067C0989BE4CE86B38F638F3721F0F1
:1010900086B38F638F3389F480916200882331F4A3
:1010A0000FEF27E3492F6DE2892F97D54FEF6DE2C0
:1010B000809161002CD3D092620086B38F638F3F02
:1010C00021F086B38F638F3B69F480916200813099
:1010D00049F4809161000FEF27E3482F6DE27DD541
:1010E0001092620086B38F638F3B21F086B38F63CB
:1010F0008F3391F480916900882339F480916100E5
:101100000FEF21E2482F67E168D54FEF67E180914B
:101110006100FDD2D092690086B38F638F3F21F0CA
:1011200086B38F638F3769F480916900813049F409
:10113000809161000FEF21E2482F67E14ED51092B8
:1011400069008AEB90E080D6809161008F5F809388
:10115000610090916100983708F494CF00E029E095
:1011600048E66DE281E198D329E048E667E181E154
:1011700093D385CFFC01849108959093710080935F
:10118000700070936F0060936E0040936A00089542
:101190000F931F93082F8091700090917100E09140
:1011A0006E00F0916F0004960995182F80917000E1
:1011B00090917100E0916E00F0916F000596099595
:1011C000482F0117D8F0202F30E0812F90E0840FB6
:1011D000911D2817390794F4011B202F30E02A5F56
:1011E0003F4F8091700090917100E0916E00F091FE
:1011F0006F00820F931F09958F5F01C080E01F91E0
:101200000F9108950F931F93CF93DF938C01C0E04C
:10121000D0E005C00F5F1F4FBBDFC80FD11DF80125
:1012200080818823B9F7CE01DF91CF911F910F9173
:1012300008950F931F93CF93DF93EC0100E010E02C
:1012400006C02196F9018491A3DF080F111D9E01AC
:10125000FE0184918823A9F7C801DF91CF911F91E6
:101260000F910895DF93CF930F92CDB7DEB7982FEC
:10127000662319F4C498C39A04C0613011F4C3986A
:10128000C49AC098C1988FEF81BB92BBC29A0000EC
:1012900000000000C298198203C089818F5F898392
:1012A00089818A30D0F312BA0F90CF91DF910895DF
:1012B0001F9387FD80E0603408F060E080936B004E
:1012C00060936C0066956695669560936D008034BA
:1012D00010F460E002C0805461E08064C3DF1091CC
:1012E0006D00186B60E0812FBDDF61E0812FBADFF8
:1012F0001F9108951F93DF93CF930F92CDB7DEB761
:1013000012BA11BA90916B00903418F4C498C39A31
:1013100002C0C398C49A903429F4882319F061E07C
:1013200080E4A0DFC09AC19AC29A000000000000C9
:1013300010B3C298198203C089818F5F8983898124
:101340008A30D0F38FEF81BB60916C0080916B008D
:10135000AFDF8091600081111095812F0F90CF91A8
:10136000DF911F910895DF92EF92FF920F931F93E9
:10137000DF93CF930F92CDB7DEB7F82E80916B003D
:1013800087FD84C0803418F4C498C39A02C0C398FF
:10139000C49A803411F461E065DFC09AC1980FEF00
:1013A00001BB10916C00177009F458C0D8B281E0ED
:1013B000A1DF80E09FDFD8BA01BBEF2CFF24012F13
:1013C00010E09701002E02C0220F331F0A94E2F7AB
:1013D000982F922B809160008111909592BBC29AB8
:1013E000000000000000C298198203C089818F5F4D
:1013F000898389818A30D0F360916C00685F809125
:101400006B0056DF81E076DF80E074DFD8BA9FEFB3
:1014100091BB28E030E0201B310B02C0F594E7942B
:101420002A95E2F7282F2E298091600081112095BE
:1014300022BBC29A000000000000C298198203C0BB
:1014400089818F5F898389818A30D0F360916C00B4
:10145000685080916B008F5F2BDF17C08091600018
:101460008111F094F2BAC29A000000000000C29804
:10147000198203C089818F5F898389818A30D0F383
:1014800080916B008F5F80936B0012BA0F90CF91A9
:10149000DF911F910F91FF90EF90DF9008952F92B1
:1014A0003F924F925F926F927F928F929F92AF92F4
:1014B000BF92CF92DF92EF92FF920F931F93CF9341
:1014C000DF93082F8091700090917100E0916E0081
:1014D000F0916F0003960995C82E8091700090914D
:1014E0007100E0916E00F0916F0004960995182F3D
:1014F0008091700090917100E0916E00F0916F000A
:1015000005960995D82E50906B0020906C0001171D
:1015100008F49CC0202F30E0812F90E08D0D911DAC
:10152000281739070CF092C0E02EE11A00E010E015
:10153000FF24C6E0D0E008C0C9018C0F9D1F0995AB
:10154000080F111DF39421962091700030917100C5
:10155000E0916E00F0916F00FE1470F3CC2DD0E09E
:101560002796CE0143E0959587954A95E1F7279711
:10157000382EAC01409FC001419F900D509F900DAF
:101580001124CD2CDD2446E050E0C40ED51EC80E3B
:10159000D91E8E2D90E00696820F931F0995682E16
:1015A00098E0E92EF12CEC1AFD0A7724882488E0D3
:1015B000A82EB12C40C04E2C8601080D111D992477
:1015C00023C08091700090917100E0916E00F091C5
:1015D0006F00800F911F0995982FCA15DB0544F401
:1015E00090E0042C02C0959587950A94E2F7982F15
:1015F00080916A008F3F11F4892F02C0892F809556
:10160000B2DE93940F5F1F4F9614D8F280916A0058
:101610008F3F11F480E001C08FEFA5DE60916C0078
:10162000685F852D45DE7394860C88E090E0A80EF7
:10163000B91EE80EF91E731408F4BDCF5394622D41
:10164000852D860D35DE20E030E002C021E030E05F
:10165000C901DF91CF911F910F91FF90EF90DF9023
:10166000CF90BF90AF909F908F907F906F905F9042
:101670004F903F902F9008950F931F93CF93DF9338
:10168000EC0100916B0015C08A3089F410916C0058
:101690008091700090917100E0916E00F0916F0068
:1016A00003960995180F612F802F02DE01C0F7DE27
:1016B0002196FE018491882339F7DF91CF911F9104
:1016C0000F9108950F931F93CF93DF93EC01009137
:1016D0006B0015C08A3089F410916C008091700005
:1016E00090917100E0916E00F0916F000396099562
:1016F000180F612F802FDCDD01C0D1DE219688819B
:10170000882341F7DF91CF911F910F9108950F9397
:101710001F93162F042F687FCBDD81E0EBDD80E087
:10172000E9DD482F212F30E00F3F59F4277030704A
:1017300081E090E002C0880F991F2A95E2F7842B80
:101740000BC02770307081E090E002C0880F991FB5
:101750002A95E2F78095842306DE1F910F91089564
:10176000AF92BF92CF92DF92EF92FF920F931F93AF
:10177000CF93DF93B82EA42EE22EE394462F47702A
:10178000F62EF41ACE2DD0E0642F70E028E030E081
:10179000C901861B970BC817D9075CF42C1B3D0B9E
:1017A0008FEF90E002C0959587952A95E2F70E2D70
:1017B00003C008E0041B8FEF90E002C0880F991F60
:1017C0006A95E2F7D82E6F2D8B2D72DD10E0CD2CAF
:1017D000C09481E08FDD80E08DDD982F8C2D8923F2
:1017E00090959D21892BBFDD1F5FA11690F710C03A
:1017F00088E0F80E6F2D8B2D5BDD10E081E07ADD47
:1018000080E078DD8095AFDD1F5FA116B8F7085F37
:10181000202F30E0C90107968C179D074CF30E1559
:1018200008F5C21BD30B8FEF90E002C0880F991F01
:10183000CA95E2F7082F009588E0F80E6F2D8B2DE2
:1018400037DD10E0F02EF09481E054DD80E052DDD1
:10185000982F8F2D892390959023892B84DD1F5FEE
:10186000A11690F7DF91CF911F910F91FF90EF900C
:10187000DF90CF90BF90AF9008951F93182F809165
:101880006000811739F02FE34FE760E080E068DF08
:10189000109360001F9108959F92AF92BF92CF92D4
:1018A000DF92EF92FF920F931F93CF93DF93B82EA7
:1018B000942EE22EA02EE394462F4770F62EF41AB3
:1018C000CE2DD0E0642F70E028E030E0C901861B07
:1018D000970BC817D9075CF42C1B3D0B8FEF90E0DA
:1018E00002C0959587952A95E2F70E2D03C008E072
:1018F000041B8FEF90E002C0880F991F6A95E2F7F2
:10190000D82E6F2D8B2DD4DC10E0CD2CC09481E02F
:10191000F1DC80E0EFDC9FEFA91611F48D2901C006
:101920008C2121DD1F5F911690F70CC088E0F80E26
:101930006F2D8B2DBDDC10E08A2D15DD1F5F9116FC
:10194000D8F7085F202F30E0C90107968C179D0754
:101950006CF30E1508F5C21BD30B8FEF90E002C09D
:10196000880F991FCA95E2F7E82EE09498E0F90EE7
:101970006F2D8B2D9DDC10E0FE2CF09481E0BADC05
:1019800080E0B8DC9FEFA91611F48E2901C08F21E9
:10199000EADC1F5F911690F7DF91CF911F910F91B5
:1019A000FF90EF90DF90CF90BF90AF909F90089501
:1019B0000F9310926B0010926C0010926D00809348
:1019C00060008FE187BB60E08FE34CDC61E08FE378
:1019D00049DC60E080EC46DC61E080EC43DC00E068
:1019E0002FE34FE760E080E057DF60E080E060DCFD
:1019F0000F9108952F923F924F925F926F927F9234
:101A00008F929F92AF92BF92CF92DF92EF92FF920E
:101A10000F931F93DF93CF93CDB7DEB72C970FB6FD
:101A2000F894DEBF0FBECDBF8F83688749872A87B2
:101A3000C02EDD24C601880F991F22273327281BBB
:101A4000390B3E832D832D5F3F4F3C872B873F8093
:101A5000300E262E200E342F8F81380F3B83301B03
:101A60003C839A85960F9983901B9A83432C522C22
:101A7000632E792EAA24BB24882499241C2D022DA0
:101A80000C194E2D602F842D42DEF32CFC184E2DA8
:101A9000652D8F2D3CDE4E2D602F862D38DE0C817E
:101AA0000C0D4E2D652D802F32DEFA811F0F4E2D2D
:101AB000612F862D2CDE4E2D672D802F28DE4E2D9A
:101AC000612F842D24DE4E2D672D8F2D20DE2B855A
:101AD0003C8537FF07C02A5F3F4F280D391D3C87E3
:101AE0002B8715C08B859C850A969C878B87C501A3
:101AF0008C199D09880F991F880F991FEB85FC850C
:101B0000E80FF91FFC87EB870894C108D1080894F7
:101B1000A11CB11C4A945A946394739424E030E05D
:101B2000820E931ECA14DB040CF0A8CF1D81F98429
:101B3000F10E0E2D20E04F2D6885832DADDE20E0C7
:101B40004F2D6981832DA8DE3A85130F212F40E0A8
:101B5000622D8F81A1DE212F40E0622D8B819CDEE2
:101B60002C960FB6F894DEBF0FBECDBFCF91DF919C
:101B70001F910F91FF90EF90DF90CF90BF90AF90AB
:101B80009F908F907F906F905F904F903F902F909D
:101B90000895CF92DF92EF92FF920F931F93D82E6A
:101BA000F62EC42EE22E20E077DE6E2D6F0D20E0A3
:101BB0004C2D8D2D71DE2E2D40E06F2D8D2D6CDE88
:101BC0002E2D40E06F2D8C2D8D0D66DE1F910F9117
:101BD000FF90EF90DF90CF9008953F924F925F92E9
:101BE0006F927F928F929F92AF92BF92CF92DF922D
:101BF000EF92FF920F931F93CF93DF93C82ED62EB1
:101C0000E42EF22E802E841749F4261710F4F62EB7
:101C1000D22EFD18082D2F2D40E00AC0621761F466
:101C2000481710F4EC2CC42EEC18082D20E04E2D93
:101C30006D2D8C2D31DECEC0622F70E04D2D50E029
:101C40002E2D30E0281B3109CB01841B950B821708
:101C5000930734F4461B570B421753070CF45EC02E
:101C6000EC1430F48E2DEC2CC82E8F2DFD2CD82E9C
:101C70003E2C3C18EF2DF0E02D2D30E03F01621A94
:101C8000730AA32CBB2488EC90E0AC01649EC001D5
:101C9000659E900D749E900D1124B501FAD0EB0154
:101CA000ED2C992429014E1A5F0A892D90E08C9F12
:101CB00090018D9F300D9C9F300D1124C90168EC5F
:101CC00070E0E7D0162F1D0DC90168EC70E0E1D07F
:101CD0008436910514F01F5F05C05FEF8D399507BD
:101CE0000CF41150892D8C0D082D212F482F6E2DAD
:101CF00074DF6A147B042CF0DF1418F4E12EE394F3
:101D000009C04A145B042CF0FD1418F4E12EEA9487
:101D100001C0E12E9394391440F65CC0FD1428F400
:101D20008E2DEC2CC82EFD2CD62E3F2C3D18EE2DE2
:101D3000F0E02C2D30E03F01621A730AA32CBB2483
:101D400088EC90E0AC01649EC001659E900D749E8D
:101D5000900D1124B5019DD0EB01FC2C9924290193
:101D60004E1A5F0A892D90E08C9F90018D9F300D57
:101D70009C9F300D1124C90168EC70E08AD0162FA9
:101D80001C0DC90168EC70E084D08436910514F014
:101D90001F5F05C05FEF8D3995070CF41150692D59
:101DA0006D0D082D262F412F8F2D17DF6A147B0410
:101DB0002CF0CE1418F4F12EF39409C04A145B04ED
:101DC0002CF0EC1418F4F12EFA9401C0F12E939437
:101DD000391440F6DF91CF911F910F91FF90EF9052
:101DE000DF90CF90BF90AF909F908F907F906F903B
:101DF0005F904F903F9008950895EF92FF920F9358
:101E00001F93CF93DF938C01FF2414C0F801EC0FD4
:101E1000FD1FE4906F2D8C2F4BDA8E2DA4DA2196C6
:101E2000C038D10599F700581F4F88E0F80E80E4BC
:101E3000F81619F0C0E0D0E0E9CFDF91CF911F9103
:101E40000F91FF90EF900895AC0112BE20E030E0BA
:101E500008C008B600FEFDCF88B7816088BF2F5F3D
:101E60003F4F24173507A8F30895AA1BBB1B51E168
:101E700007C0AA1FBB1FA617B70710F0A61BB70BFA
:101E8000881F991F5A95A9F780959095BC01CD019F
:101E9000089597FB092E07260AD077FD04D0E5DFC9
:101EA00006D000201AF4709561957F4F0895F6F7DB
:0C1EB000909581959F4F0895F894FFCF06
:00000001FF
