:1000000009C016C094C08EC013C012C086C010C0F4
:100010000FC00EC011241FBECFE9CDBF10E0A0E677
:10002000B0E001C01D92A536B107E1F716D0E6C0D9
:10003000E7CF442400E081E28FBD81E083BF8FEFF2
:1000400086BF86E089BF80E185BB80E28ABF8BBF27
:1000500082E087BB18BA78940895EF92FF921F93BD
:10006000CF93DF93442400E081E28FBD81E083BF22
:100070008FEF86BF86E089BF80E185BB80E28ABFC3
:100080008BBF82E087BB18BA789410E280EFE82E2D
:1000900089E0F82EC0E5D4E08091640080FF35C08F
:1000A000809164008E7F80936400809162009091C3
:1000B00063008055944028F4D0936300C09362009D
:1000C0000BC08091620090916300815F994020F0A5
:1000D000F0926300E09262006091620070916300B0
:1000E00080E090E02FEF30E040E050E04CD0605BEB
:1000F0007B448440904020EA35E040E050E05CD012
:1001000029BD1ABF8BB780628BBF85B7806285BF60
:10011000889585B78F7D85BFBFCF2FB643940027C5
:100120002FBE18952FB643940FEF2FBE18952FB6FC
:100130002F933F934F935F93789442B7F894542D45
:10014000302F789430FF4095B49B05C050936100E8
:100150004093600012C02BB72F7D2BBF3091610000
:1001600020916000421B530B509363004093620048
:10017000209164002160209364005F914F913F9132
:100180002F912FBE1895FF27EE27BB27AA2760FFC8
:1001900004C0A20FB31FE41FF51F220F331F441F1B
:1001A000551F969587957795679589F700977607F8
:1001B00071F7CF01BD010895A1E21A2EAA1BBB1B46
:1001C000FD010DC0AA1FBB1FEE1FFF1FA217B30723
:1001D000E407F50720F0A21BB30BE40BF50B661F39
:1001E000771F881F991F1A9469F7609570958095FD
:1001F00090959B01AC01BD01CF010895F894FFCF0C
:00000001FF
