:100000000C9422030C943F030C943F030C943F0385
:100010000C943F030C943F030C943F030C943F0358
:100020000C943F030C943F030C943F030C943F0348
:100030000C943F030C943F030C943F030C943F0338
:100040000C943F030C943F030C943F030C943F0328
:100050000C943F03000000000000000000000000BE
:100060000000000000000000183C3C3C181800187C
:100070001800000000000000666666000000000036
:10008000000000000000000036367F3636367F362E
:1000900036000000000018183C666030180C066638
:1000A0003C18180000000070D8DA760C18306E5B2F
:1000B0001B0E000000000000386C6C38606F666634
:1000C0003B000000000000001818180000000000AD
:1000D00000000000000000000C18183030303030F4
:1000E00018180C00000000003018180C0C0C0C0C38
:1000F00018183000000000000000361C7F1C36007D
:100100000000000000000000000018187E18180011
:1001100000000000000000000000000000001C1CA7
:100120000C180000000000000000007E000000002D
:1001300000000000000000000000000000001C1C87
:100140000000000000000006060C0C18183030609B
:10015000600000000000001E333737333B3B331E86
:10016000000000000000000C1C7C0C0C0C0C0C0CA3
:10017000000000000000003C6666060C1830607E3F
:10018000000000000000003C6666061C0666663C37
:10019000000000000000003030363636667F06066C
:1001A000000000000000007E6060607C06060C78A5
:1001B000000000000000001C18307C666666663C8B
:1001C000000000000000007E060C0C1818303030D3
:1001D000000000000000003C6666763C6E66663CEF
:1001E000000000000000003C666666663E0C1838A1
:1001F0000000000000000000001C1C0000001C1C8F
:100200000000000000000000001C1C0000001C1C7E
:100210000C180000000000060C18306030180C06A6
:10022000000000000000000000007E007E000000D2
:10023000000000000000006030180C060C18306050
:10024000000000000000003C66660C18180018183A
:10025000000000000000007EC3C3CFDBDBCFC07F07
:1002600000000000000000183C6666667E66666658
:10027000000000000000007C6666667C6666667CA6
:10028000000000000000003C666660606066663C3E
:1002900000000000000000786C66666666666C7898
:1002A000000000000000007E6060607C6060607E96
:1002B000000000000000007E6060607C60606060A4
:1002C000000000000000003C666660606E66663EEE
:1002D00000000000000000666666667E6666666670
:1002E000000000000000003C181818181818183CEE
:1002F0000000000000001E0C0C0C0C0CCCCCCC78C8
:100300000000000000000066666C6C786C6C66662D
:100310000000000000000060606060606060607E5F
:10032000000000000000006363776B6B6B63636326
:10033000000000000000006363737B6F676363630A
:10034000000000000000003C666666666666663C6B
:10035000000000000000007C6666667C60606060F3
:10036000000000000000003C666666666666663C4B
:100370000C0600000000007C6666667C6C666666A3
:10038000000000000000003C666030180C06663C6F
:10039000000000000000007E18181818181818181F
:1003A0000000000000000066666666666666663CE1
:1003B00000000000000000666666666666663C181F
:1003C000000000000000006363636B6B6B36363621
:1003D0000000000000000066663418182C6666668F
:1003E00000000000000000666666663C18181818D9
:1003F000000000000000007E06060C183060607EE1
:10040000000000000000003C303030303030303030
:1004100030303C000000006060303018180C0C06D2
:10042000060000000000003C0C0C0C0C0C0C0C0C2A
:100430000C0C3C0000183C660000000000000000AE
:1004400000000000000000000000000000000000AC
:100450000000FF000038180C000000000000000041
:100460000000000000000000003C06063E66663EFC
:100470000000000000000060607C66666666667CC6
:100480000000000000000000003C66606060663C08
:100490000000000000000006063E66666666663ED6
:1004A0000000000000000000003C66667E60603CCA
:1004B000000000000000001E3030307E3030303050
:1004C0000000000000000000003E66666666663EB2
:1004D00006067C0000000060607C666666666666F4
:1004E0000000000000001818007818181818187E6E
:1004F0000000000000000C0C003C0C0C0C0C0C0C60
:100500000C0C7800000000606066666C786C6666B3
:100510000000000000000078181818181818187E3D
:100520000000000000000000007E6B6B6B6B6B63D3
:100530000000000000000000007C666666666666DB
:100540000000000000000000003C66666666663C35
:100550000000000000000000007C66666666667CA5
:100560006060600000000000003E66666666663EF1
:10057000060606000000000000666E7060606060A5
:100580000000000000000000003E60603C06067CA9
:100590000000000000000030307E30303030301E6F
:1005A0000000000000000000006666666666663EA9
:1005B00000000000000000000066666666663C18E9
:1005C000000000000000000000636B6B6B6B3636B0
:1005D00000000000000000000066663C183C6666F3
:1005E0000000000000000000006666666666663C6B
:1005F0000C18F00000000000007E060C1830607E31
:10060000000000000000000C1818183060301818A6
:10061000180C0000000000181818181818181818DE
:1006200018181800000000301818180C060C1818BC
:100630001830000000000071DB8E00000000000098
:100640000000000011241FBECFE5D8E0DEBFCDBF03
:1006500015E1A0E6B0E0EAE4F7E102C005900D92F2
:10066000AE38B107D9F715E1AEE8B5E101C01D928A
:10067000A239B107E1F70E9441030C94A30B0C943B
:1006800000000F931F938D9882B38FEF82BB84BBC2
:100690000E94350980E098EF0E94EE0884E190E026
:1006A00062E370E040E650E02FEF3FEF00E018EF2C
:1006B0000E94C00888EC90E068EC70E047E650E0EB
:1006C0002FEF3FEF0E94C008FFCF089508950895CF
:1006D00008952FEF24BB95BBC398C39A85BBC398DD
:1006E000C39A81E00895DF98C29A90E00E9469035E
:1006F00008950F931F938B01DE980E947303DF9A76
:10070000C29AC8010E946903DE9A1F910F91089551
:100710008D9882B38FEF82BBDE9880E00E947303D6
:10072000DF9AC39A14BAC29833B3C29AC29823B359
:10073000932F80E030E0282B392BC29ADE9A309339
:1007400091152093901585E42133380709F09DC059
:1007500080E061E070E00E94790380E168E276E089
:100760000E94790382E166E070E00E94790383E1F0
:1007700062E37AE00E94790381E160E470E00E9424
:10078000790385E160E570E00E94790382E166E12A
:1007900070E00E94790380E160E676E50E947903CB
:1007A00083E16EE47AE20E94790381E060E071E027
:1007B0000E94790382E060E073E00E94790383E0A5
:1007C00060E370E10E94790388E062E072E00E94D9
:1007D00079038AE060E070E00E94790380E360E0E2
:1007E00070E00E94790381E362E074E00E94790383
:1007F00082E366E071E00E94790383E360E077E0E2
:100800000E94790384E364E071E00E94790385E348
:1008100061E073E00E94790386E367E077E00E947D
:10082000790387E365E073E00E94790388E368E079
:1008300072E00E94790389E36BE07FE00E94790314
:1008400081E462E070E00E94790380E660E077E294
:100850000E94790381E661E070E00E94790380E9FB
:1008600069E171E00E94790382E96AE071E00E9427
:10087000790383E964E070E00E94790380EA60E034
:1008800071E00E94790380EA04C12052334909F0E3
:1008900004C185EE60E070E80E94790380E061E0C9
:1008A00070E00E94790381E060E071E00E947903CA
:1008B00082E060E077E00E94790383E060E370E12A
:1008C0000E94790384E060E070E00E94790388E090
:1008D00062E072E00E94790389E060E070E00E94CB
:1008E00079038AE060E070E00E9479038CE060E0C8
:1008F00070E00E9479038DE060E070E00E9479036F
:100900008FE060E070E00E94790380E160E070E0D9
:100910000E94790381E160E070E00E94790382E146
:1009200060E070E00E94790383E160E070E00E9483
:10093000790380E160EB77E10E94790381E167E36D
:1009400071E00E94790382E169E371E00E9479031A
:1009500083E160E07DE10E94790389E263E170E078
:100960000E94790380E260E070E00E94790381E2F6
:1009700060E070E00E94790380E366E070E00E942E
:10098000790381E361E071E00E94790382E363E02F
:1009900070E00E94790385E366E071E00E947903CC
:1009A00086E362E07BE00E94790387E362E073E024
:1009B0000E94790388E367E077E00E94790389E386
:1009C00067E070E00E9479038CE360E076E00E94CB
:1009D00079038DE36BE072E00E94790380E560E0CB
:1009E00070E00E94790381E56FEE70E00E94790368
:1009F00082E560E070E00E94790383E56FE371E0D7
:100A00000E94790380E660E077E20E94790381E644
:100A100061E070E00E9479038AE660E070E00E9485
:100A2000790380E860E070E00E94790381E860E08B
:100A300070E00E94790382E860E070E00E94790330
:100A400083E860E070E00E94790384E860E070E091
:100A50000E94790385E860E070E00E94790380E9F4
:100A600060E170E00E94790382E960E070E00E943A
:100A7000790383E963E070E00E94790385E960E12E
:100A800071E00E94790387E960E070E00E947903D9
:100A900088E960E070E00E94790383E068E370E138
:100AA0000E94790387E063E771E00E94790308956B
:100AB00080E560E070E00E94790381E56FEE70E010
:100AC0000E94790382E560E070E00E94790383E58B
:100AD0006FE371E00E94790308950F931F938C01D7
:100AE00080E20E9479036FE371E0601B710B81E289
:100AF0000E947903DE9882E20E94730380918E1532
:100B000090918F15DF9AC29A0E946903DE9A1F9115
:100B10000F91089590938F1580938E15089590935B
:100B20008C1580938B150895EF92FF920F931F936E
:100B3000CF93DF93EC010E94580580E260E070E003
:100B40000E94790381E260E070E00E947903DE9800
:100B500082E20E947303DF9AEE24FF248701CE0114
:100B60000E9469030894E11CF11C011D111D80E025
:100B7000E8168CE2F80681E0080780E0180779F7AC
:100B8000DE9ADF91CF911F910F91FF90EF90089522
:100B9000CF92DF92EF92FF920F931F93CF93DF9349
:100BA0007B016A0100E311E0081B190B80E50E943C
:100BB0007903B701695E7F4F81E50E94790382E581
:100BC000B8010E947903B801615F7F4F83E50E94FD
:100BD000790380E2B7010E94790381E2B8010E94A3
:100BE0007903DE9882E20E947303DF9A00E010E04E
:100BF00081E0E82EF12C27C0C7010C2E02C0880F1F
:100C0000991F0A94E2F7F601208131818223932310
:100C1000892B29F480918B1590918C1504C08091BB
:100C20008E1590918F150E9469032197FFEFCF3F9A
:100C3000DF0711F70F5F1F4F0831110539F082E010
:100C400090E0C80ED91ECFE0D0E0D6CFDE9ADF917B
:100C5000CF911F910F91FF90EF90DF90CF9008956B
:100C60009B01BC01660F771F680F791F53E0660F69
:100C7000771F5A95E1F7405280E3489FA001112465
:100C800045575F4FC90124E0880F991F2A95E1F766
:100C90000E94C8050895CF92DF92EF92FF920F93C2
:100CA0001F93CF93DF936C01EB017A010E945805EB
:100CB0000BC08E010F5F1F4F0894E11CF11CC60191
:100CC000BE010E943006E801F7014081442389F704
:100CD000DF91CF911F910F91FF90EF90DF90CF9018
:100CE00008950F931F938C010E945805C80160E07E
:100CF00070E046E750E00E944B061F910F91089567
:100D00004F925F926F927F928F929F92AF92BF921B
:100D1000CF92DF92EF92FF920F931F93CF93DF93C7
:100D20005B016A012901EE24FF24E81AF90A80E434
:100D300091E0E80EF91EE41AF50A80E50E947903B5
:100D4000B501695E7F4F81E50E94790382E5B701B5
:100D50000E9479033601089461087108B3016E0D91
:100D60007F1D83E50E9479030C9D40010D9D900C31
:100D70001C9D900C1124892C99248694869480E2E1
:100D8000B5010E94790381E2B7010E947903DE98E0
:100D900082E20E947303DF9AC0E0D0E015C08301B5
:100DA00010C00815190528F080918B1590918C15AD
:100DB00004C080918E1590918F150E946903015097
:100DC000104017FFEECF2196C415D50540F3DE9AEB
:100DD000DF91CF911F910F91FF90EF90DF90CF9017
:100DE000BF90AF909F908F907F906F905F904F904B
:100DF00008956F927F928F929F92AF92BF92CF92FF
:100E0000DF92EF92FF920F931F93CF93DF937B01BB
:100E10006A013901480100271127081B190B005CE2
:100E20001E4F041B150B80E50E947903B70161502A
:100E30007040660D771D81E50E94790382E5B80157
:100E40000E947903B60161507040600F711F83E505
:100E50000E94790380E2B7010E94790381E2B80120
:100E60000E947903DE9882E20E947303DF9A08945D
:100E7000C108D1089601220F331F0894C11CD11C50
:100E800086010F5F1F4F000F111F020F131FC601B6
:100E9000880F991F081B190B820E931EAA24BB24CE
:100EA00016C07401C0E0D0E00AC0F70180819181D2
:100EB0002EEF3FEFE20EF31E0E9469032196CC1540
:100EC000DD0598F30894A11CB11C800E911EA61498
:100ED000B70438F3DE9ADF91CF911F910F91FF9005
:100EE000EF90DF90CF90BF90AF909F908F907F90CA
:100EF0006F9008956F927F928F929F92AF92BF9260
:100F0000CF92DF92EF92FF920F931F93CF93DF93D5
:100F10006B015A014901780100271127081B190BA1
:100F2000005C1E4F041B150B80E50E947903B6017F
:100F300061507040680D791D81E50E94790382E55A
:100F4000B8010E947903B50161507040600F711FB4
:100F500083E50E94790380E2B6010E94790381E271
:100F6000B8010E947903DE9882E20E947303DF9A3F
:100F70008A9C80018B9C100D9A9C100D11240150AD
:100F80001048000F111F0E0D1F1DCC24DD24C501BC
:100F9000880F991F66247724681A790A12C0F7010E
:100FA000808191812EEF3FEFE20EF31E0E946903D4
:100FB0002196CA15DB0598F3060D171D0894C11C70
:100FC000D11CC814D90420F47801C0E0D0E0F1CFDE
:100FD000DE9ADF91CF911F910F91FF90EF90DF90FC
:100FE000CF90BF90AF909F908F907F906F9008951B
:100FF0000F931F938C01C29ADF98DE98C39A81E009
:1010000090E00E94650315BB81E090E00E946503BB
:10101000C398C39A81E090E00E94650305BB81E01C
:1010200090E00E946503C398DE9A1F910F91089586
:101030001F93182FC29ADF9ADE98C39A95BB81E05E
:1010400090E00E946503C398C39A81E090E00E94FB
:10105000650315BB81E090E00E946503C398DE9AAA
:101060001F910895AF92BF92CF92DF92FF920F939C
:101070001F93CF93DF93182F5B016A0182E290E008
:101080000E94F807C12FD0E044E0CC0FDD1F4A9545
:10109000E1F7CC5AD140FF24FE01049110E007FF94
:1010A00002C0C50101C0C6010E9418081F5F1830A8
:1010B00011F0000FF4CFF3942196F0E1FF1661F7E1
:1010C000DF91CF911F910F91FF90DF90CF90BF9054
:1010D000AF9008950F931F938B010E94F807C801EA
:1010E0000E9418081F910F9108950F931F939C0160
:1010F0008B0180E290E0B9010E946A0881E290E0F1
:10110000B8010E946A081F910F910895AF92BF9293
:10111000CF92DF92EF92FF920F931F938C015B01AE
:101120006A017901E61AF70A87E391E0E80EF91EF1
:10113000C801B7010E94750880E590E0B8010E94DF
:101140006A08015010400C0D1D1D81E590E0B801AA
:101150000E946A0868E371E06A197B0982E590E001
:101160000E946A0883E590E0B7010E946A081F9117
:101170000F91FF90EF90DF90CF90BF90AF900895C8
:10118000AF92BF92CF92DF92EF92FF920F931F9395
:10119000CF93DF937C015B01EA01690111C0C501B6
:1011A000B7014FE050E028E030E00E9486088991C6
:1011B000B601A8010E94320888E090E0E80EF91E0E
:1011C0008881882361F7DF91CF911F910F91FF9064
:1011D000EF90DF90CF90BF90AF9008950F931F9343
:1011E0008C0180E290E060E070E00E946A0881E299
:1011F00090E060E070E00E946A0880E590E060E0C6
:1012000070E00E946A0881E590E06FEE70E00E9455
:101210006A0882E590E060E070E00E946A0883E579
:1012200090E06FE371E00E946A0882E290E00E9421
:10123000F807C29ADF9ADE9880E090E0A0E0B0E084
:10124000C39A15BBC398C39A05BBC3980196A11D49
:10125000B11D80302CE2920721E0A20720E0B20706
:1012600079F7DE9A1F910F9108958E9AD69AD79AA0
:10127000BB9ABA9AB99AC19884E690E00E94660334
:10128000C19A84E690E00E94660383EE90E068E0F5
:1012900070E30E946A0887EE90E062E170E00E94CD
:1012A0006A088FEE90E061E372E10E946A0880E0D4
:1012B00090E061E070E00E946A0881E090E060E008
:1012C00070E00E946A0882E090E060E077E00E94AF
:1012D0006A0883E090E068E170E10E946A0884E0B7
:1012E00090E060E070E00E946A0888E090E064E0CE
:1012F00074E00E946A0889E090E060E070E00E947B
:101300006A088AE090E060E070E00E946A0880E18C
:1013100090E060E870E00E946A0881E190E067E098
:1013200070E00E946A0882E190E060E070E00E9454
:101330006A0883E190E060E070E00E946A0887E05C
:1013400090E061E070E00E946A0880ED97E00E9402
:10135000660380E190E060E975E10E946A0881E13E
:1013600090E067E272E00E946A0888EE93E00E94D3
:10137000660382E190E06EE170E00E946A0888EE08
:1013800093E00E94660383E190E060E075E10E94D3
:101390006A0889E290E068E270E00E946A088BE2E5
:1013A00090E06FE070E00E946A0884EF91E00E9494
:1013B000660380E290E060E070E00E946A0881E2EB
:1013C00090E06FE371E00E946A0880E390E067E0DC
:1013D00070E00E946A0881E390E067E077E00E9495
:1013E0006A0882E390E067E071E00E946A0885E3A2
:1013F00090E066E072E00E946A0886E390E066E0B2
:1014000074E00E946A0887E390E061E071E00E9466
:101410006A0888E390E061E071E00E946A0889E36D
:1014200090E067E072E00E946A088CE390E064E07C
:1014300075E00E946A088DE390E066E078E00E9423
:101440006A0880E590E060E070E00E946A0881E54B
:1014500090E06FEE70E00E946A0882E590E060E044
:1014600070E00E946A0883E590E06FE371E00E94FB
:101470006A0880E690E060E077E20E946A0881E610
:1014800090E061E070E00E946A088AE690E060E027
:1014900070E00E946A0880E890E060E070E00E94DE
:1014A0006A0881E890E060E070E00E946A0882E8E3
:1014B00090E060E070E00E946A0883E890E060E0FD
:1014C00070E00E946A0884E890E060E070E00E94AA
:1014D0006A0885E890E060E070E00E946A0880E9B0
:1014E00090E060E170E00E946A0882E990E060E0CC
:1014F00076E00E946A0883E990E063E070E00E9471
:101500006A0885E990E060E171E00E946A0887E975
:1015100090E060E070E00E946A0888E990E060E096
:1015200070E00E946A0887E090E063E771E00E9443
:101530006A0880E090E00E94EE0880ED97E00E944B
:101540006603969A0895AF92BF92CF92DF92EF9280
:10155000FF920F931F9380E290E060E070E00E94A2
:101560006A0881E290E060E070E00E946A08EE2480
:10157000FF24870180E590E060E070E00E946A0847
:1015800081E590E06FEE70E00E946A0882E590E0ED
:1015900060E070E00E946A0883E590E06FE371E02C
:1015A0000E946A0882E290E00E94F807AA24BB2405
:1015B0006501E114F1040105110529F48FE190E0C2
:1015C0000E9418081FC081E0E816F104010511050A
:1015D00029F480E098EF0E9418081DC082E0E81608
:1015E000F1040105110529F480EE97E00E94180826
:1015F0001BC083E0E816F1040105110519F48FEF13
:1016000097E01AC084E0E816F1040105110519F409
:101610008FE198EF11C085E0E816F104010511058E
:1016200019F480EE9FEF08C086E0E816F10401058A
:10163000110521F480E090E00E9418080894A11C94
:10164000B11CC11CD11C80E0A8168CE2B80681E058
:10165000C80680E0D80609F0ACCF84E690E00E948E
:1016600066030894E11CF11C011D111D87E0E816BA
:10167000F1040105110509F07DCF1F910F91FF9035
:10168000EF90DF90CF90BF90AF900895EF92FF92D0
:101690000F931F939C018B017A0180E290E0B901C6
:1016A0000E946A0881E290E0B8010E946A0882E222
:1016B00090E00E94F807C7010E9418081F910F913F
:1016C000FF90EF900895AF92BF92CF92DF92FF927A
:1016D0000F931F93CF93DF93FC01CB01F42E59019D
:1016E0006801BF014FE050E028E030E00E9486082A
:1016F00082E290E00E94F807CF2DD0E054E0CC0FBA
:10170000DD1F5A95E1F7CC5ADE4F00E0FE01F49060
:1017100010E0F7FE02C0C50101C0C6010E94180812
:101720001F5F183011F0FF0CF4CF0F5F21960031CE
:1017300069F7DF91CF911F910F91FF90DF90CF90CC
:0A174000BF90AF900895F894FFCF1A
:10174A00486F6C612121006570662053757065725F
:10175A00736F6E6963002020202020202020202023
:10176A00202020202020202020200000000000002F
:10177A00000000000000000000000000000000005F
:10178A00000000000000000000000000000000004F
:10179A00000000000000000000000000008001803E
:1017AA000180018001800180018001800180018027
:1017BA000180018001800100000000800180010099
:1017CA00000000000000000000000000000000CC43
:1017DA0000CC00CC00CC00CC00CC00000000000003
:1017EA0000000000000000000000000000000000EF
:1017FA0000000000000000000000000000000000DF
:10180A0000000000000000600C600C600C30063024
:10181A0006FE1FFE1F300638071803FE1FFE1F189C
:10182A000318038C018C018C01000000008000E089
:10183A0003F80F9C0E8C1C8C188C009800F801E0A1
:10184A0007800E801C8C188C189C18B80CF00FE0BE
:10185A00038000800000000000000000000000007B
:10186A00000E181B0C110C11061106110311039B13
:10187A00018E01C038C06C60446044304430441862
:10188A0044186C0C380000000000000000E001F071
:10189A00033807180618063003F001F000F8009C18
:1018AA00310E33061E061C061C063FFC73F021008F
:1018BA000000000000000000000000000000000C12
:1018CA00000C000C000C000C000C000000000000D2
:1018DA0000000000000000000000000000000000FE
:1018EA0000000000000000000000000000000200EC
:1018FA00038001C000C0006000600030003000308A
:10190A00003000300030003000300060006000C05D
:10191A0000C00080010003000200000000200060F7
:10192A0000C00080018001000300030006000600D9
:10193A0006000600060006000600060003000380F3
:10194A00018001C0006000200000000000000000CB
:10195A0000000000000000C000C000D806F807E040
:10196A0001300338070000000000000000000000FA
:10197A00000000000000000000000000000000005D
:10198A0000000000000000800180018001800180C9
:10199A0001FC3FFC3F800180018001800180010041
:1019AA00000000000000000000000000000000002D
:1019BA00000000000000000000000000000000001D
:1019CA00000000000000000000000000008001800C
:1019DA00010001000180000000000000000000007A
:1019EA0000000000000000000000000000000000ED
:1019FA00000000E007E0070000000000000000000F
:101A0A0000000000000000000000000000000000CC
:101A1A0000000000000000000000000000000000BC
:101A2A0000000000000000000000000000C000C02C
:101A3A0000000000000000000000000000000C0090
:101A4A000C00060006000600030003000380038062
:101A5A000180018001C000C000C000600060000079
:101A6A0000000000000000000000000000E003F099
:101A7A0007380E180C0C180C180C180C180C180C2B
:101A8A00180C180C180C18180C380EF007E0030084
:101A9A0000000000000000000000000000000180BB
:101AAA0001C001F001980188018001800180018054
:101ABA000180018001800180018001800180010094
:101ACA0000000000000000000000000000E003F831
:101ADA000F180C0C180C1800180018000C0006003F
:101AEA00038001C000600030001800FC1FFC1F00CA
:101AFA0000000000000000000000000000E001F803
:101B0A0007180E0C0C0C0C000C0006C003C00700D2
:101B1A000C001800180C180C18180CF807E0030031
:101B2A0000000000000000000000000000000C009F
:101B3A000E000F000F800DC00C600C600C300C18EA
:101B4A000C0C0CFC3FFC3F000C000C000C000C00C1
:101B5A0000000000000000000000000000F80FF87C
:101B6A000F180018000C00EC03FC071C0E001C00E8
:101B7A0018001800180C181C0C180EF807E00300BF
:101B8A0000000000000000000000000000C007F094
:101B9A000F381C181818000C00CC03EC0F3C0E1C54
:101BAA001C0C180C180C18181C380EF007E003004F
:101BBA0000000000000000000000000000FC1FFC04
:101BCA001F000C00060006000380038001C001C04C
:101BDA0000E000600060007000300030003000005B
:101BEA0000000000000000000000000000E003F018
:101BFA0007380E180C180C180C3806F007F00718DE
:101C0A000C0C180C180C180C18380CF80FE0030000
:101C1A0000000000000000000000000000E003F0E7
:101C2A0007380E1C0C0C180C180C181C1C381EF843
:101C3A001BE0190018000C000C1C0EF807F001003C
:101C4A00000000000000000000000000000000008A
:101C5A000000000000000080018001000000000078
:101C6A000000000000000000000000800180010068
:101C7A00000000000000000000000000000000005A
:101C8A000000000000000080018001000000000048
:101C9A000000000000000000000000800180010038
:101CAA0001000180000000000000000000000000A8
:101CBA0000000000000000000000000010001C806E
:101CCA000FE003F8001800F800E003800F001C0082
:101CDA0010000000000000000000000000000000EA
:101CEA000000000000000000000000F81F000000D3
:101CFA00000000F81F0000000000000000000000C3
:101D0A0000000000000000000000000000000000C9
:101D1A00000000000000000000000008003800F089
:101D2A0001C007001F0018001FC007F00138000893
:101D3A0000000000000000000000000000E003F8BE
:101D4A000F180C0C180C180018000C000600038061
:101D5A0001C000C000C00000000000C000C00000B8
:101D6A00000000000000000000000000000000E089
:101D7A000718180420C229224A11440944094409AF
:101D8A004409221113E20C024004201818E007004B
:101D9A000000000000000000000000000080038036
:101DAA0003C006C006C006600C600C30183018303C
:101DBA0018F83FF83F1C700C600C6006C006C000A3
:101DCA0000000000000000000000000000FC03FC0E
:101DDA000F0C0C0C180C180C180C0CFC07FC0F0C34
:101DEA00180C300C300C300C300C18FC1FFC07009F
:101DFA0000000000000000000000000000C007F022
:101E0A001F38381C300C70066006000600060006F3
:101E1A00000600060006600C701C30F01FE0070088
:101E2A0000000000000000000000000000FE03FEA9
:101E3A000F060E061806180630063006300630065B
:101E4A00300630063006180618060EFE0FFE03008E
:101E5A0000000000000000000000000000FC3FFC41
:101E6A003F0C000C000C000C000C00FC1FFC1F0CAB
:101E7A00000C000C000C000C000C00FC3FFC3F00A6
:101E8A0000000000000000000000000000F83FF819
:101E9A003F18001800180018001800F81FF81F183B
:101EAA000018001800180018001800180018000080
:101EBA0000000000000000000000000000E00FF831
:101ECA003F3C780E6006E007C00300030003FE03F0
:101EDA00FE03C007C006C00EC03CF0F83FE00F008A
:101EEA00000000000000000000000000000C300CA0
:101EFA00300C300C300C300C300C30FC3FFC3F0CFA
:101F0A00300C300C300C300C300C300C300C3000F3
:101F1A0000000000000000000000000000800180B6
:101F2A00018001800180018001800180018001809F
:101F3A00018001800180018001800180018001000F
:101F4A000000000000000000000000000000060081
:101F5A000600060006000600060006000600060047
:101F6A000600060006180618063807F003E0010006
:101F7A00000000000000000000000000000630061B
:101F8A0018060C060606038601C60066007600DE01
:101F9A00008E0106030606060C06180630066000C7
:101FAA0000000000000000000000000000180018F7
:101FBA000018001800180018001800180018001857
:101FCA000018001800180018001800F81FF81F0061
:101FDA00000000000000000000000000000EE01EEB
:101FEA00F01EF01EF036D836D836D836D866CC660B
:101FFA00CC66CCC6C6C6C6C6C6C6C686C386C30017
:10200A00000000000000000000000000000C301C6E
:10201A00303C303C306C306C30CC30CC308C310CB5
:10202A00330C330C360C360C3C0C3C0C380C3000A0
:10203A0000000000000000000000000000E007F8B7
:10204A001F1C380E70066003C003C003C003C00320
:10205A00C003C003C006600E701C38F81FE00700FA
:10206A0000000000000000000000000000FC0FFC5F
:10207A001F0C380C300C300C300C300C18FC1FFCC8
:10208A00070C000C000C000C000C000C000C0000EB
:10209A0000000000000000000000000000E007F857
:1020AA001F1C380E70066003E003C003C003C003A0
:1020BA00C003C007E006630E3F1C3CF83FE0F70090
:1020CA00C0000000000000000000000000FE0FFE3B
:1020DA001F06380630063006300638FE1FFE070691
:1020EA00030606060C0618061806300630066000B7
:1020FA0000000000000000000000000000E003F8FB
:10210A000F1C0C0C180C180C001C00F803E00F0034
:10211A001E0038063006300E301C1CF80FE007008F
:10212A0000000000000000000000000000FE7FFE2A
:10213A007F8001800180018001800180018001800F
:10214A0001800180018001800180018001800100FD
:10215A00000000000000000000000000000C300C2D
:10216A00300C300C300C300C300C300C300C300C85
:10217A00300C300C300C300C301818F81FE0070007
:10218A0000000000000000000000000000036006DC
:10219A0030063006300C180C180C18180C180C38AD
:1021AA000E30063006700760036003C001C00100EC
:1021BA00000000000000000000000000000360C3EF
:1021CA0061C361C3616633663366336633663366F9
:1021DA00336C1B6C1B6C1B2C1A3C1E380E380E0001
:1021EA00000000000000000000000000000FE00CEA
:1021FA007018303018700C600EC00780038003C05E
:10220A0003E006700C301C18180C300E6007E00052
:10221A000000000000000000000000000003C006EB
:10222A00600C301C383818300C6006E007C0038098
:10223A00018001800180018001800180018001000C
:10224A0000000000000000000000000000FC7FFC0D
:10225A007F006000300018000C000600038001C0F7
:10226A00006000300018000C000600FE7FFE7F00B0
:10227A0000000000000000000000000000E003E091
:10228A000360006000600060006000600060006041
:10229A000060006000600060006000600060006034
:1022AA000060006000E003E003000000003000303E
:1022BA0000600060006000C000C000C000C0018073
:1022CA0001800180010003000300030006000600EC
:1022DA0000000000000000000000000000E003E031
:1022EA0003000300030003000300030003000300CC
:1022FA0003000300030003000300030003000300BC
:10230A000300030003E003E003000000000000C034
:10231A0001C00160036003600330063006180C1820
:10232A000C00000000000000000000000000000097
:10233A000000000000000000000000000000000093
:10234A000000000000000000000000000000000083
:10235A0000000000000000000000000000FFFFFF76
:10236A00FF0000000000000000000000000C000C4C
:10237A00000C000C000C000C000000000000000023
:10238A000000000000000000000000000000000043
:10239A000000000000000000000000000000000033
:1023AA0000000000000000F003F8071C0C0C0C00F1
:1023BA000FF00FF80C0C0C0C0C1C0FF80FF0180097
:1023CA0000000000000000000000000000180018D3
:1023DA0000180018001800D803F80F380C1818183D
:1023EA00181818181818181818380CF80FD80300E5
:1023FA0000000000000000000000000000000000D3
:10240A0000000000000000C003F007300E180C188E
:10241A0000180018001800180C300EF007C003004E
:10242A00000000000000000000000000000018008A
:10243A0018001800180018C01BF01F301C181818B4
:10244A00181818181818181818301CF01FC01B0074
:10245A000000000000000000000000000000000072
:10246A0000000000000000C003F00F300C1818F83C
:10247A001FF81F180018003818301CF00FC007008A
:10248A0000000000000000000000000000800FC0F3
:10249A000FC000C000C000F007F007C000C000C0B5
:1024AA0000C000C000C000C000C000C000C00000E2
:1024BA000000000000000000000000000000000012
:1024CA0000000000000000E00DF80F180E0C0C0CC4
:1024DA000C0C0C0C0C0C0C0C0C180EF80FE00D006C
:1024EA000C0C0C1C06F807F001000000001800187C
:1024FA0000180018001800D807F80F381C18181808
:10250A001818181818181818181818181818180059
:10251A0000000000000000000000000000C000C031
:10252A0000000000000000C000C000C000C000C0E1
:10253A0000C000C000C000C000C000C000C0000051
:10254A0000000000000000000000000000C000C001
:10255A0000000000000000C000C000C000C000C0B1
:10256A0000C000C000C000C000C000C000C000C061
:10257A0000C000C000F8007800000000000C000C49
:10258A00000C000C000C000C0C0C060C038C01CC8B
:10259A00006C00FC009C018C030C030C060C0C0064
:1025AA0000000000000000000000000000C000C0A1
:1025BA0000C000C000C000C000C000C000C000C011
:1025CA0000C000C000C000C000C000C000C00000C1
:1025DA0000000000000000000000000000000000F1
:1025EA00000000000000007C3CFF7EC7E383C1833B
:1025FA00C183C183C183C183C183C183C183C10034
:10260A0000000000000000000000000000000000C0
:10261A00000000000000009807F80F381C1818186E
:10262A001818181818181818181818181818180038
:10263A000000000000000000000000000000000090
:10264A0000000000000000C003F00F300C1818183A
:10265A00181818181818181818300CF00FC003009A
:10266A000000000000000000000000000000000060
:10267A0000000000000000D803F80F380C181818E2
:10268A00181818181818181818380CF80FD803182A
:10269A0000180018001800180000000000000000D0
:1026AA0000000000000000C01BF01F301C181818A2
:1026BA00181818181818181818301CF01FC01B0002
:1026CA001800180018001800180000000000000088
:1026DA0000000000000000B007F003700030003076
:1026EA000030003000300030003000300030000090
:1026FA0000000000000000000000000000000000D0
:10270A0000000000000000E003F003380E180C3847
:10271A0000F003C007000C180C380EF007E00300A5
:10272A00000000000000000000000000000000801F
:10273A0000C000C000C000F007F007C000C000C021
:10274A0000C000C000C000C000C000C00780070071
:10275A00000000000000000000000000000000006F
:10276A000000000000000018181818181818181887
:10277A00181818181818181818381CF01FE019001B
:10278A00000000000000000000000000000000003F
:10279A00000000000000000C18180C180C180C306F
:1027AA000630063006600360036003C001C0010002
:1027BA00000000000000000000000000000000000F
:1027CA0000000000000000C141C141C361636363AE
:1027DA006363633636363636361C1C1C1C1C1C00DA
:1027EA0000000000000000000000000000000000DF
:1027FA00000000000000001C38381C300C6006C0C5
:10280A0003C003C003C0036006300C381C1C380028
:10281A0000000000000000000000000000000000AE
:10282A0000000000000000183030183018701860DE
:10283A000C600CE00CC006C0068003800380038095
:10284A00018001C001F000700000000000000000DB
:10285A0000000000000000FC1FFC1F000C00060026
:10286A00038001C000600030001800FC1FFC1F003C
:10287A0000000000000000000000000000000380CB
:10288A0001C000C000C000C000C000C000600060FD
:10289A0000300060004000C000C000C000C000C09E
:1028AA0000C00080010003000000000000800180D9
:1028BA000180018001800180018001800180018006
:1028CA0001800180018001800180018001800180F6
:1028DA00018001800180018001000000006000C0C9
:1028EA0000C0018001800180018001800100030095
:1028FA00030006000300018001800180018001803D
:10290A00018001C00060000000000000000000001B
:10291A000000000000000000000000F010F81F088E
:10292A000F0000000000000000000000000000008E
:10293A00000000000000000000000000000000008D
:10294A00000000000000000000000000000000007D
:10295A00000000000000000000000000000000006D
:10296A00000000000000000000000000000000005D
:10297A000000000000C003300C08100420042002EC
:10298A004002400240024002400420042008103065
:10299A000CC003000000000000000000000000005E
:1029AA000000000000C003F00FF81FFC3FFC3FFED0
:1029BA007FFE7FFE7FFE7FFE7FFC3FFC3FF81FF01D
:1029CA000FC003000000000000000000000000002B
:1029DA00000000000000000000E007F00F181818BF
:1029EA00181818181818181818F00FE0070000001F
:1029FA0000000000000000000000000000000000CD
:102A0A00000000000000000000E007F00FF81FF8C7
:102A1A001FF81FF81FF81FF81FF00FE0070000004B
:102A2A00000000000000000000000000000000009C
:102A3A00000000000000000000000000000000008C
:102A4A000000008001C0036006300C18181818F83E
:102A5A001FF81F0000000000000000000000000036
:102A6A00000000000000000000000000000000005C
:102A7A000000008001C003E007F00FF81FF81FF8FC
:102A8A001FF81F0000000000000000000000000006
:102A9A00000000F81FF81F18181818300C6006C03C
:102AAA000380010000000000000000000000000098
:102ABA00000000000000000000000000000000000C
:102ACA00000000F81FF81FF81FF81FF00FE007C0FA
:102ADA000380010000000000000000000000000068
:102AEA0000000000000000000000000000000000DC
:102AFA00000000000000000000E001F00198018CD5
:102B0A0001860186018C019801F001E001000000B4
:102B1A0000000000000000000000000000000000AB
:102B2A00000000000000000000E001F001F801FCD4
:102B3A0001FE01FE01FC01F801F001E001000000C4
:102B4A00000000000000000000000000000000007B
:102B5A000000000000000000008007800F8019803C
:102B6A00318061806180318019800F800700000008
:102B7A00000000000000000000000000000000004B
:102B8A000000000000000000008007800F801F8006
:102B9A003F807F807F803F801F800F80070000007A
:102BAA0000000000000000000000000000C001203A
:102BBA000220024001300608080808080808080828
:102BCA000808080808200220022002200220022009
:102BDA0002200220022002200200000000C001E0C0
:102BEA0003E003C001F007D80DD80DD80DD80DD8D1
:102BFA000DD80DD80D6003600360036003600360A5
:102C0A0003600360036003600300000000C001204A
:102C1A0002200240013006080808080808041002C9
:102C2A00200220400120022002100408080808049B
:102C3A0010041004200440000000000000C001E05D
:102C4A0003E003C001F007D80DD80DD80DCC19C682
:102C5A0031C261C001600360037006380C180C0CA5
:0E2C6A00180C180C300C6000000000FFFF007A
:00000001FF
