:020000020000FC
:0200000019C025
:02001A002EC0F6
:1000340000E80093610001E00093610004E800938C
:1000440066000FEF0DBF02E00EBF0FEF04B900E032
:100054000AB975D0F2E0E6EC92D030E498D0F2E040
:10006400EEEC8DD001E003BF0FEF302E2ED00ED07A
:1000740035D0FACF00E005BD00938100C0E0D1E0A7
:1000840006B51AEF019F09921882189500E00093B3
:100094008000009381000093820004BD05BD06BD6D
:1000A40001EF009385000AE50093840001E00093CA
:1000B4006F0007E005BD04E0009381007894889503
:1000C400F89400E000936F00089504E6309E8001E8
:1000D4002FEF30E0E3D0DBD06DD00895C0E0D1E065
:1000E40009911881BBD07FD00895022F0295007F1B
:1000F40005B92A982B9A2B980895012F0295007F11
:1001040005B92A9A2B9A2B9808950FEF04B904B9CC
:100114002F9322952F70E9DF8AD02F912F70E5DF7E
:1001240087D008950FEF04B904B91F9312951F7077
:10013400E4DF7DD01F911F70E0DF7AD008950AE0DC
:1001440086D00A95E9F723E0D0DF81D080D023E080
:10015400CCDF6ED06DD06CD023E0C7DF69D022E055
:10016400C4DF66D028E2D1DF63D026E0CEDF60D0E2
:100174002CE0CBDF5DD021E0C8DF69D00895059085
:10018400002021F0102DCEDF53D0F9CF0895232F76
:100194002068BBDF4DD008951F93107F129500E3B4
:1001A400100FC0DF45D01F911F7000E3100FBADF9E
:1001B4003FD008950F931F933CE0E9DF39D0112F0E
:1001C4001A3032F0EEEDF2E0DADF1F910F9109C040
:1001D40010E2A8DF2DD01F91E7DF1F91E5DF15E2C4
:1001E400A1DF26D0089536E4D2DF22D01F2D1123BB
:1001F40049F00F2D007F002311F0CEDF03C01F70E4
:10020400D3DF05C01E2D107F112341F002C01E2D27
:10021400107F1295C9DF1EE285DF0AD01E2D1F70E4
:10022400C3DF1D2DB9DFF2E0E6EDA9DF08950895DF
:100234000F9300E004BD05BD04E706BD01E005BB66
:1002440005BDA89BFECF00E005BD0F9108950F9357
:1002540002E3EEDF0A95E9F70F91089520E1FF2408
:10026400EE24DD24FF27000F111FDD1CEE1CFF1CF4
:100274002A9509F40895E0E132913D5F33FD30831E
:100284003081305D37FD3083ED30B1F7ECCF11278D
:100294000A5010F01395FCCF065F0895EE24FF1862
:1002A40041E1001F111F4A9509F40895EE1CFF1C3B
:1002B400E21AF30A20F4E20EF31E8894F2CF0894B3
:1002C400F0CF47617365733A00005265763A2000B7
:1002D40000002072706D20200000313030250000B5
:00000001FF
