:1000000019C033C032C031C030C02FC02EC02DC087
:100010002CC02BC0E1C147C128C02FC126C025C0BC
:1000200076C123C056C15FC120C067C11EC01DC0BC
:100030001CC01BC011241FBECFEFD2E0DEBFCDBF5E
:1000400011E0A0E0B1E0E2E1F5E002C005900D9220
:10005000A831B107D9F711E0A8E1B1E001C01D92C4
:10006000A332B107E1F702D052C2CACF94D1FFCF79
:100070009093C5008093C40088E18093C1008CE018
:100080008093C2000895982F8091C00085FFFCCF17
:100090009093C60008958091C00087FFFCCF8091A7
:1000A000C600089502C08091C6008091C00087FDFF
:1000B000FACF0895FC0107C08091C00085FFFCCFF6
:1000C00031969093C60090819923B1F708952FB788
:1000D000F894982F907F95B92B9A91E0392F3A9503
:1000E000F1F72B9832E03A95F1F78295807F85B948
:1000F0002B9A9A95F1F72B982FBF8AE68A95F1F7FC
:1001000008952FB7F894982F907F946095B92B9A03
:1001100091E0392F3A95F1F72B9832E03A95F1F7C3
:100120008295807F846085B92B9A9A95F1F72B98F8
:100130002FBF8AE68A95F1F7089515B880E395E711
:100140000197F1F798E395B921E0822F8A95F1F7AD
:1001500080E385B9E8E0F0E23197F1F795B9322F05
:100160003A95F1F785B9E8ECF0E03197F1F795B9F8
:10017000922F9A95F1F785B99AE6892F8A95F1F72A
:1001800088E285B92A95F1F780E285B99A95F1F769
:10019000089588E29CDF86E09ADF8CE098DF81E0BA
:1001A00096DF80ED9CE00197F1F70895CF93DF9300
:1001B000EC0102C02196A5DF88818823D9F7DF9161
:1001C000CF910895623031F0633031F0613029F41D
:1001D000805C03C08C5E01C08C5A806878DF089513
:1001E0008FB7F89420918400309185008FBFC901AA
:1001F00008952FB7F89490938500809384002FBFC3
:10020000089508959C0140E050E06BE177EB80E0B9
:1002100090E040D1C90153E0220F331F5A95E1F716
:10022000880F991F280F391FC9010895BC0184E860
:100230009EE11CD1CB01089580911A01882379F4A5
:100240002FB7F89481E090E090938500809384002C
:100250002FBF8FEF86BB81E080931A0108956091D4
:1002600018017091190184E89EE100D170931C017E
:1002700060931B0110921A0108951F920F920FB6FE
:100280000F9211248F9380911A01882331F01092DC
:100290001C0110921B0110921A018F910F900FBE3A
:1002A0000F901F9018951F920F920FB60F92112466
:1002B0008F9380911A01882331F010921C011092C3
:1002C0001B0110921A018F910F900FBE0F901F907B
:1002D00018951F920F920FB60F9211240F900FBE18
:1002E0000F901F9018951F920F920FB60F92112426
:1002F0000F900FBE0F901F9018951F920F920FB680
:100300000F9211240F900FBE0F901F9018951F92FF
:100310000F920FB60F9211240F931F932F933F93B9
:100320004F935F936F937F938F939F93AF93BF93FD
:10033000EF93FF9380E060E045DF80E091E036DFFF
:1003400080E061E03FDF87E091E030DF86E061E060
:1003500039DF0DE111E080911B0190911C01B80182
:100360004AE050E05FD0C80121DF8CE091E01EDF61
:10037000FF91EF91BF91AF919F918F917F916F917D
:100380005F914F913F912F911F910F910F900FBE51
:100390000F901F90189584E8809366008EEF84B9C3
:1003A000CCDEF7DE85E085BD81E080936E008FE4D2
:1003B00092E1909389008093880078948FB7F894A5
:1003C00010928500109284008FBF83E280936F00AB
:1003D00085EC8093810008958F939F938091860090
:1003E00090918700909319018093180180911A01D0
:1003F000882349F480938500809384008FEF86BB27
:1004000080931A010CC08091180190911901FADEB5
:1004100090931C0180931B01882780931A019F9160
:100420008F911895FB019F0142306CF045325CF4CE
:10043000642F77271BD0805D8A330CF0895D819310
:10044000CB010097A9F71082C90100C0DC01FC01B3
:10045000672F71917723E1F7329704C07C916D93F8
:1004600070836291AE17BF07C8F30895AA1BBB1B28
:1004700051E107C0AA1FBB1FA617B70710F0A61BA4
:10048000B70B881F991F5A95A9F780959095BC01C5
:10049000CD01089597FB092E05260ED057FD04D0F7
:1004A00014D00AD0001C38F4509540953095219511
:1004B0003F4F4F4F5F4F0895F6F790958095709599
:1004C00061957F4F8F4F9F4F0895A1E21A2EAA1B6F
:1004D000BB1BFD010DC0AA1FBB1FEE1FFF1FA217F4
:1004E000B307E407F50720F0A21BB30BE40BF50BF1
:1004F000661F771F881F991F1A9469F7609570957A
:10050000809590959B01AC01BD01CF010895F894B1
:02051000FFCF1B
:1005120047617365733A005265763A002072706DD6
:08052200202020202020000011
:00000001FF
