:100000000C9434000C9446000C9446000C9446006A
:100010000C9446000C9446000C9446000C94460048
:100020000C9446000C9446000C9446000C94460038
:100030000C9446000C9446000C9446000C94460028
:100040000C9446000C9446000C9446000C94460018
:100050000C9446000C9446000C9446000C94460008
:100060000C9446000C94460011241FBECFEFD4E040
:10007000DEBFCDBF11E0A0E0B1E001C01D92A13014
:10008000B107E1F70E9448000C9479000C9400003D
:100090008FEF84B966B18CE090E070E00E9452006E
:1000A00065B9F8CF97FB092E07260AD077FD04D053
:1000B0000CD006D000201AF4709561957F4F0895FA
:1000C000F6F7909581959F4F0895AA1BBB1B51E1B0
:1000D00007C0AA1FBB1FA617B70710F0A61BB70BB8
:1000E000881F991F5A95A9F780959095BC01CD015D
:0600F0000895F894FFCF13
:00000001FF
