:1000000019C033C032C031C030C02FC02EC02DC087
:100010002CC02BC02AC029C028C027C026C025C09C
:1000200024C023C022C021C020C01FC01EC01DC0CC
:100030001CC01BC011241FBECFEFD2E0DEBFCDBF5E
:1000400011E0A0E0B1E0EAE2F1E002C005900D921B
:10005000AC31B107D9F711E0ACE1B1E001C01D92BC
:10006000A232B107E1F712D027C0CACF1F93182FD1
:100070008A3011F48DE0FADF8091C00085FFFCCF5B
:100080001093C60080E090E01F9108951092C50083
:1000900083E38093C400E0ECF0E080818D7F808377
:1000A0008EE091E090931F0180931E0180E091E02B
:1000B00005D080E090E00895F89435C00F931F9329
:1000C000CF93DF938C01E0911E01F0911F0183819A
:1000D00081FF21C0C0E0D0E00DC0E0911E01F09191
:1000E0001F0120853185BF01F9010995892B11F088
:1000F000CFEFDFEFF80181918F01882371F7E09155
:100100001E01F0911F01208531858AE0BF01F901B0
:100110000995892B11F0CFEFDFEFCE01DF91CF9161
:0A0120001F910F910895F894FFCF8E
:10012A0048656C6C6F2C20776F726C64210000003C
:0C013A0000020000000036000000000081
:00000001FF
