:1000000012C02CC02BC02AC029C028C027C026C0BF
:1000100025C024C023C069C13DC120C03DC01EC051
:100020001DC01CC01BC011241FBECFE5D4E0DEBF25
:10003000CDBF10E0A0E6B0E0E4E4F4E002C005903B
:100040000D92AC37B107D9F710E0ACE7B0E001C0D2
:100050001D92AA38B107E1F702D0F2C1D1CF6DD01D
:100060000BD083E390E007D185B7806885BF889582
:1000700085B78F7785BFF8CF8FEA86B980E687B9D5
:10008000089585B1089524B145B1942F80E030E002
:10009000282B392BC90108951F920F920FB60F928A
:1000A00011240F931F932F933F934F935F936F935D
:1000B0007F938F939F93AF93BF93EF93FF9395B1EC
:1000C0009093820084E6989FC00111246FEF70E046
:1000D0006CD1CB0160937E0090937F0003E810E029
:1000E000B8014AE050E088D18CE060E0B6D0C801A9
:1000F000A8D080E690E0A5D0FF91EF91BF91AF919D
:100100009F918F917F916F915F914F913F912F912F
:100110001F910F910F900FBE0F901F90189512BE58
:10012000089593E0899F90011124C901089598ECE6
:10013000899F90011124C90108958DE981BF8FEF36
:1001400087BB82BB45D070D080E060E086D084E67B
:1001500090E077D080E061E080D08BE690E071D0D5
:10016000789408952FB7F894982F907F98BBC39AEE
:1001700091E0392F3A95F1F7C39832E03A95F1F7CB
:100180008295807F88BBC39A9A95F1F7C3982FBF59
:100190008AE68A95F1F708952FB7F894982F907F03
:1001A000946098BBC39A91E0392F3A95F1F7C398C0
:1001B00032E03A95F1F78295807F846088BBC39ADC
:1001C0009A95F1F7C3982FBF8AE68A95F1F70895BB
:1001D00018BA80E395E70197F1F798E398BB21E01F
:1001E000822F8A95F1F780E388BBE8E0F0E231974F
:1001F000F1F798BB322F3A95F1F788BBE8ECF0E0C5
:100200003197F1F798BB922F9A95F1F788BB9AE650
:10021000892F8A95F1F788E288BB2A95F1F780E269
:1002200088BB9A95F1F7089588E29CDF86E09ADF13
:100230008CE098DF81E096DF80ED9CE00197F1F79C
:100240000895CF93DF93EC0102C02196A5DF88814A
:100250008823D9F7DF91CF910895623031F0633070
:1002600031F0613029F4805C03C08C5E01C08C5A8F
:10027000806878DF089590BD89B988E98AB98EEAE7
:1002800080BD10927D000895FC018CB180838BB1FC
:10029000847008951F920F920FB60F9211248F93BE
:1002A00080917C00813059F0813028F0823059F003
:1002B000833091F40EC085E68CB981E007C080E7F9
:1002C0008CB982E003C086E68CB983E080937C0021
:1002D00006C0809182008CB910927C0055988F9155
:1002E0000F900FBE0F901F9018951F920F920FB690
:1002F0000F9211241F932F933F934F935F936F930C
:100300007F938F939F93AF93BF93EF93FF931CB112
:100310005A9B05C085E061E0A0DF8AE204C085E069
:1003200061E09BDF80E238DF80917D00813059F011
:10033000813028F0823059F0833019F50EC015361F
:1003400011F581E007C01037E1F482E003C01636F2
:10035000C1F483E080937D0016C0812FE8DE909386
:1003600081008093800063E870E04AE050E044D070
:1003700083E890E066DF80E790E063DF559A1092B3
:100380007C0010927D00FF91EF91BF91AF919F9102
:100390008F917F916F915F914F913F912F911F911D
:1003A0000F900FBE0F901F90189597FB092E0726F0
:1003B0000AD077FD04D00CD006D000201AF4709536
:1003C00061957F4F0895F6F7909581959F4F089519
:1003D000AA1BBB1B51E107C0AA1FBB1FA617B7076B
:1003E00010F0A61BB70B881F991F5A95A9F7809587
:1003F0009095BC01CD010895FB019F0142306CF046
:1004000045325CF4642F7727E3DF805D8A330CF09C
:10041000895D8193CB010097A9F71082C90100C0C3
:10042000DC01FC01672F71917723E1F7329704C05B
:100430007C916D9370836291AE17BF07C8F30895E6
:04044000F894FFCF5E
:100444002520200047617365733A005265763A00AF
:0C0454002072706D20202020202000006D
:00000001FF
