:1000000019C033C032C031C030C02FC02EC02DC087
:100010002CC02BC02AC029C028C027C026C025C09C
:1000200024C023C022C021C020C01FC01EC01DC0CC
:100030001CC01BC011241FBECFEFD4E0DEBFCDBF5C
:1000400011E0A0E0B1E0EAEEF8E002C005900D9208
:10005000AE33B107D9F712E0AEE3B1E001C01D92B3
:10006000A634B107E1F70ED03EC4CACFBC0186E387
:1000700091E045E050E029D49C0180E0232B09F475
:1000800081E00895DF92EF92FF920F931F93DF9329
:10009000CF93CDB7DEB76E970FB6F894DEBF0FBE25
:1000A000CDBF80E880936100109261008AE090E00B
:1000B000EDD3209A529828988AE090E0E7D3289AC6
:1000C00088EC90E0E3D38CE291E0EBD184E190E026
:1000D000DDD3219A299A579A5F9884E166E774E004
:1000E00028D184E190E0D2D329988CE291E062E3B8
:1000F00071E0C2D2DD24D3947E010894E11CF11C8E
:100100008AEF90E06EE371E05FD18C010097C1F35C
:10011000DD2019F0299ADD2403C02998DD24D39429
:100120008EE391E0602FC8D2882329F08EE391E01E
:10013000602F86D3E5CF8EE391E0602FD8D288235D
:10014000F9F280915501813049F480916001883045
:10015000B9F68EE391E0602F59D3D2CF813181F689
:1001600080916201843061F680916301803B41F6A9
:1001700010916501185088E691E078DF882359F4E2
:100180003CC09F5FE92FF0E0E25CFE4F82A58C321D
:1001900019F49F5F03C090E0911798F3923068F0D4
:1001A000E92FF0E0812F90E00297E817F9072CF48F
:1001B000E25CFE4F83A58D3321F0C70160E071E062
:1001C0001FC082A58437A9F4E4A5E13311F45F9A36
:1001D00008C0E03311F45F9808C0EF3351F45F9B1F
:1001E00004C0C70169E071E00BC0C7016DE071E0B8
:1001F00007C0C70161E171E003C0C7016FE171E0B1
:100200005DD3F70101900020E9F73197EE19FF095E
:100210008EE391E0B7014E2F20EB34E0B1D270CFE6
:100220002A98962F9F71982B9EBD0DB407FEFDCF87
:100230001EBC0DB407FEFDCF67FF04C01EBC0DB48D
:1002400007FEFDCF2A9A8EB508952A986F71682B04
:100250006EBD0DB407FEFDCF4EBD0DB407FEFDCF44
:100260002A9A0895AC01FB012A988AE38EBD0DB449
:1002700007FEFDCF9A01DF0108C01EBC0DB407FECA
:10028000FDCF215030408EB58D9321153105A9F752
:10029000E40FF51F10822A9A08959C01FB012A9809
:1002A0008AE78EBD0DB407FEFDCF08C080818EBDEC
:1002B0000DB407FEFDCF2150304031962115310598
:1002C000A9F72A9A08951F93CF93DF93182FC82F69
:1002D000D0E0C076D0708091390290E0C817D9077D
:1002E00081F080EA6FE143E0B0DF85E0D595C79506
:1002F0008A95E1F780E86FE14C2FA7DF1076109325
:100300003902DF91CF911F9108951F93182FDBDFE2
:1003100080E0612F85DF1F9108950F931F93182FA1
:10032000062FD1DF80E4612F402F8FDF1F910F91C7
:1003300008950F931F93982F162F072F84ED692F81
:10034000ECDF86ED612FE9DF87ED602FE6DF18E255
:1003500003C0812F8A95F1F78AEED7DF80FDF9CFB0
:100360001F910F91089582E7D0DF0895EF92FF92D9
:100370000F931F938C017B0182E06FEFCEDF83E050
:1003800069E1CBDF602F615086E0C7DF9801215023
:10039000364E87E0632FC1DF8AE760E040E055DF3B
:1003A000C801B7017ADF80E86FE148E04EDF8CE1F9
:1003B000ACDF81FF04C080EA6FE148E046DF1F91B7
:1003C0000F91FF90EF900895AF92BF92CF92DF927E
:1003D000EF92FF920F931F93CF93DF936C015B011A
:1003E00089E393DF882319F400E010E04EC06091A8
:1003F0003A0210913B0280E090DF81E0612F8DDFB7
:100400008AE360E00DDF182F8AE360E009DF382F10
:1004100020E0C12FD0E0C22BD32BD0933B02C0935E
:100420003A028AE360E0FCDEE82E8AE360E0F8DE70
:10043000F82E8AE360E0F4DE082F10E08AE360E043
:10044000EFDE382F20E0202B312B27FD03C000E00A
:1004500010E011C00E2D10E09F2D80E0082B192B0D
:10046000C6010197045010408017910708F48C01D1
:10047000C801B501F7DE8CE06C2F4FDF8DE06D2FEA
:100480004CDF80E86EE140E4E0DEC801DF91CF910F
:100490001F910F91FF90EF90DF90CF90BF90AF90A2
:1004A00008950F931F938C01229A2A9A84B18C622B
:1004B00084B924982A9A2B982D9880E58CBD8DB507
:1004C00081608DBD8FEF60E04FEFBFDE82E390E093
:1004D000DDD110923B0210923A0288E060E01DDF0D
:1004E00089E060E01ADF8CE060E017DF8DE060E01B
:1004F00014DF8AE06EEF11DF8BE069E10EDF84E04C
:100500006FEF0BDF85E069E108DF86E06FEF05DF65
:1005100087E06FE102DF88E360EBFFDE88E26FE3F4
:10052000FCDE89E260E3F9DE80E369EFF6DE81E379
:1005300067EFF3DE80EC6DE0F0DE81EC60E0EDDE95
:1005400080E862EC42E381DE86EC62E1E6DE87EC85
:100550006CE0E3DE84EC62E1E0DE8AEC64EFDDDE99
:100560008BEC61E0DADE84EEF8016081D6DE85EEA8
:10057000F8016181D2DE82EEF8016281CEDE83EE87
:10058000F8016381CADE80EEF8016481C6DE81EE87
:10059000F8016581C2DE80E160E071E0CADE8FE1D2
:1005A00092DE80E86BE140EC50DE80E86FE144E0F1
:1005B0004CDE1F910F910895EF92FF920F931F93BE
:1005C000CF93DF937C01413061F4685070409B0110
:1005D00040E050E0685F7F4F2F5E3F4F4F4F5F4FCF
:1005E00012C0423029F020E030E040E050E00BC083
:1005F000685070409B0140E050E0685F7F4F2A5F89
:100600003F4F4F4F5F4FE7018B010FC0F881E0E094
:10061000898190E08E2B9F2BA0E0B0E0280F391F3E
:100620004A1F5B1F2296025010400230110570F7DE
:10063000FB01EE7FEE0DFF1D60FF0DC0908180E09D
:10064000AA2797FDA095BA2F02C040705070280FBE
:10065000391F4A1F5B1FCA01AA27BB270097A105A4
:10066000B10599F720953095C901DF91CF911F9180
:100670000F91FF90EF900895AC0120E030E0F90178
:10068000EE5BFD4FDB01A20FB31F8C9180832F5FC8
:100690003F4F2430310599F720E030E0F901E45C68
:1006A000FD4FDA01A20FB31F8C9180832F5F3F4F64
:1006B0002630310599F70895FC016932B0F0848540
:1006C000883099F48585863081F4DF019696E2E4DE
:1006D000F2E09C918081981741F41196319682E066
:1006E000E634F807B1F781E0089580E00895FC0151
:1006F0006A32B8F084858830A1F48585882389F42E
:10070000DF01E2E4F2E05E969C915E9780819817AB
:1007100041F41196319682E0E634F807A1F781E0C2
:10072000089580E00895FC01ACE3B2E08681808307
:100730008D918683319682E0A234B807B9F7089587
:10074000CF93DF93EC01FC01A2E4B2E0828D868FAF
:100750008D91828F319682E0A634B807B9F7188E52
:10076000198E80E48C8B1D8A8E8BCE010E9664E1EF
:1007700070E040E021DF988F898FDF91CF9108955D
:10078000DF92EF92FF920F931F93CF93DF93EC01D1
:100790007B01142FD22E032FC6DF1D3D08F01CED68
:1007A000188A145E198BCE01CBDF8AA18CA38BA192
:1007B0008DA30AA3DBA21EA214511FA3185018A6D2
:1007C00019A6DE019A9620E030E007C0F701E20F9B
:1007D000F31F80818D932F5F3F4F2117B8F3012FB7
:1007E00010E0005F1F4FCE014A96B80141E0E4DE01
:1007F00098A789A7C8014A96BE01B8DDDF91CF91BD
:100800001F910F91FF90EF90DF9008951F93CF936A
:10081000DF93EC01162F87DFCE0192DF1AA28CA1A5
:10082000883F18F08DA18F5F8DA38CA1885F8CA36A
:10083000812F90E0BE019ADDDF91CF911F91089545
:10084000CF93DF93EC016FDF1C8A82E08D8BFE017A
:10085000ACE3B2E0868980A38D91868B319682E0ED
:10086000A234B807B9F7FE017C96A2E4B2E0808119
:1008700082878D91819382E0A634B807C1F78AE21E
:1008800090E0BE0173DDDF91CF91089520E837E05D
:1008900004C0F9013197F1F701970097D1F7089556
:1008A0002FE088E190E00FB6F894A895809360005F
:1008B0000FBE209360000895A8950895FB01DC0108
:1008C00001900D920020E1F70895FB01DC014150F9
:1008D000504030F08D910190801919F40020B9F743
:0A08E000881B990B0895F894FFCFD0
:1008EA00653D6E6F5F636D6400743D3100743D3029
:1008FA0000653D6E6F5F737563685F636D64006565
:10090A003D696E76616C69645F7077005455581062
:0E091A0000240A000018736563726574000003
:00000001FF
