:020000040000FA
:0400000007EF0AF00C
:0400080020EF14F0E1
:0400180020EF14F0D1
:02002A000000D4
:04002C00FDEC07F0F0
:100030000101560E836F06EC08F00101200E836F5C
:1000400006EC08F001013D0E836F06EC08F001019B
:10005000200E836F06EC08F0010135A107D00101E5
:100060002B0E836F06EC08F03BEF00F001012D0E24
:10007000836F06EC08F0010136B1A5EF00F036B34E
:100080000AEF01F036B560EF01F0010111515BECB0
:1000900012F001019C510101836F06EC08F001018F
:1000A0002E0E836F06EC08F0010110515BEC12F08C
:1000B00001019C510101836F06EC08F001010F5111
:1000C0005BEC12F001019C510101836F06EC08F01A
:1000D00001010E515BEC12F001019C510101836F93
:1000E00006EC08F001010D515BEC12F001019C518E
:1000F0000101836F06EC08F001010C515BEC12F07A
:1001000001019C510101836F06EC08F001010B51C4
:100110005BEC12F001019C510101836F06EC08F0C9
:1001200001010A515BEC12F001019C510101836F46
:1001300006EC08F0200E0101836F06EC08F0560E65
:100140000101836F06EC08F01200010112515BEC13
:1001500012F001019C510101836F06EC08F00101CE
:100160002E0E836F06EC08F0010111515BEC12F0CA
:1001700001019C510101836F06EC08F0010110514F
:100180005BEC12F001019C510101836F06EC08F059
:1001900001010F515BEC12F001019C510101836FD1
:1001A00006EC08F001010E515BEC12F001019C51CC
:1001B0000101836F06EC08F001010D515BEC12F0B8
:1001C00001019C510101836F06EC08F001010C5103
:1001D0005BEC12F001019C510101836F06EC08F009
:1001E00001010B515BEC12F001019C510101836F85
:1001F00006EC08F001010A515BEC12F001019C5180
:100200000101836F06EC08F00101560E836F06ECC6
:1002100008F0120001012E0E836F06EC08F00101B8
:1002200012515BEC12F001019C510101836F06EC4D
:1002300008F0010111515BEC12F001019C51010128
:10024000836F06EC08F0010110515BEC12F0010124
:100250009C510101836F06EC08F001010F515BEC2A
:1002600012F001019C510101836F06EC08F00101BD
:100270000E515BEC12F001019C510101836F06EC01
:1002800008F001010D515BEC12F001019C510101DC
:10029000836F06EC08F001010C515BEC12F00101D8
:1002A0009C510101836F06EC08F00101200E836F61
:1002B00006EC08F00101560E836F06EC08F0120000
:1002C00001012E0E836F06EC08F0010113515BEC67
:1002D00012F001019C510101836F06EC08F001014D
:1002E00012515BEC12F001019C510101836F06EC8D
:1002F00008F0010111515BEC12F001019C51010168
:10030000836F06EC08F0010110515BEC12F0010163
:100310009C510101836F06EC08F001010F515BEC69
:1003200012F001019C510101836F06EC08F00101FC
:100330000E515BEC12F001019C510101836F06EC40
:1003400008F001010D515BEC12F001019C5101011B
:10035000836F06EC08F00101200E836F06EC08F0B5
:100360000101560E836F06EC08F0120002EC08F053
:10037000490E0101836F06EC08F00101200E836F26
:1003800006EC08F001013D0E836F06EC08F0010158
:10039000200E836F06EC08F0010135A107D00101A2
:1003A0002B0E836F06EC08F0DBEF01F001012D0E40
:1003B000836F06EC08F0010136B15FD036B3B7D0D9
:1003C00036B510D101010E515BEC12F001019C51C8
:1003D0000101836F06EC08F001012E0E836F06EC1D
:1003E00008F001010D515BEC12F001019C5101017B
:1003F000836F06EC08F001010C515BEC12F0010177
:100400009C510101836F06EC08F001010B515BEC7C
:1004100012F001019C510101836F06EC08F001010B
:100420000A515BEC12F001019C510101836F06EC53
:1004300008F0010109515BEC12F001019C5101012E
:10044000836F06EC08F0010108515BEC12F001012A
:100450009C510101836F06EC08F00101300E836F9F
:1004600006EC08F00101200E836F06EC08F0010194
:10047000410E836F06EC08F01200010112515BEC93
:1004800012F001019C510101836F06EC08F001019B
:100490002E0E836F06EC08F0010111515BEC12F097
:1004A00001019C510101836F06EC08F0010110511C
:1004B0005BEC12F001019C510101836F06EC08F026
:1004C0000F515BEC12F001019C510101836F06ECAE
:1004D00008F001010E515BEC12F001019C51010189
:1004E000836F06EC08F001010D515BEC12F0010185
:1004F0009C510101836F06EC08F001010C515BEC8B
:1005000012F001019C510101836F06EC08F001011A
:10051000280E836F06EC08F00101410E836F06EC94
:1005200008F00101290E836F06EC08F012000101AA
:1005300013515BEC12F001019C510101836F06EC39
:1005400008F001012E0E836F06EC08F00101125134
:100550005BEC12F001019C510101836F06EC08F085
:10056000010111515BEC12F001019C510101836FFB
:1005700006EC08F0010110515BEC12F001019C51F6
:100580000101836F06EC08F001010F515BEC12F0E2
:1005900001019C510101836F06EC08F001010E512D
:1005A0005BEC12F001019C510101836F06EC08F035
:1005B00001010D515BEC12F001019C510101836FAF
:1005C00006EC08F00101280E836F06EC08F001012B
:1005D000410E836F06EC08F00101290E836F06ECD3
:1005E00008F01200010114515BEC12F001019C5162
:1005F0000101836F06EC08F001012E0E836F06ECFB
:1006000008F001010D515BEC12F001019C51010158
:10061000836F06EC08F001010C515BEC12F0010154
:100620009C510101836F06EC08F001010B515BEC5A
:1006300012F001019C510101836F06EC08F00101E9
:100640000A515BEC12F001019C510101836F06EC31
:1006500008F0010109515BEC12F001019C5101010C
:10066000836F06EC08F0010108515BEC12F0010108
:100670009C510101836F06EC08F00101300E836F7D
:1006800006EC08F00101200E836F06EC08F0010172
:10069000410E836F06EC08F01200FDEC07F001013B
:1006A000200E836F06EC08F00101200E836F06EC2C
:1006B00008F00101460E836F06EC08F00101750E8B
:1006C000836F06EC08F00101650E836F06EC08F0FD
:1006D00001016C0E836F06EC08F001013D0E836F83
:1006E00006EC08F00101FF0E0D15D8B482EF03F0FF
:1006F00001010D515BEC12F001019C510101836F6E
:1007000006EC08F001010C515BEC12F001019C5168
:100710000101836F06EC08F001010B515BEC12F054
:1007200001019C510101836F06EC08F001012E0EBE
:10073000836F06EC08F001010A515BEC12F0010135
:100740009C510101836F06EC08F0010109515BEC3B
:1007500012F001019C510101836F06EC08F00101C8
:1007600008515BEC12F001019C510101836F06EC12
:1007700008F00101250E836F06EC08F00101200E40
:10078000836F06EC08F00101200E836F06EC08F081
:1007900012000101156B02EC08F00101200E836FBD
:1007A00006EC08F00101200E836F06EC08F0010151
:1007B000200E836F06EC08F00101200E836F06EC1B
:1007C00008F00101280E836F06EC08F00101FF0E0E
:1007D0000B15D8B4F8EF03F001010B515BEC12F0EC
:1007E00001019C510101836F06EC08F001011581A4
:1007F000010115B102EF04F00101FF0E0A15D8B492
:100800000EEF04F001010A515BEC12F001019C5162
:100810000101836F06EC08F001011581010115B19A
:1008200018EF04F00101FF0E0915D8B424EF04F00D
:10083000010109515BEC12F001019C510101836F30
:1008400006EC08F001011581010108515BEC12F082
:1008500001019C510101836F06EC08F00101159123
:100860000101200E836F06EC08F001016D0E836F0D
:1008700006EC08F00101410E836F06EC08F001015F
:10088000680E836F06EC08F00101290E836F06ECF9
:1008900008F00101200E836F06EC08F00101200E24
:1008A000836F06EC08F00101200E836F06EC08F060
:1008B00012000101156AFDEC07F00101200E836FA3
:1008C00006EC08F00101200E836F06EC08F0010130
:1008D000200E836F06EC08F00101460E836F06ECD4
:1008E00008F0750E836F06EC08F0650E836F06EC5A
:1008F00008F06C0E836F06EC08F0200E836F06EC98
:1009000008F0550E836F06EC08F0730E836F06EC4B
:1009100008F0650E836F06EC08F0640E836F06EC3A
:1009200008F03A0E836F06EC08F0200E836F06EC99
:1009300008F0200E836F06EC08F0200E836F06ECA3
:1009400008F002EC08F00101200E836F06EC08F0BD
:10095000200E836F06EC08F0200E836F06EC08F083
:100960000101FF0E1115D8B4C2EF04F001011151BD
:100970005BEC12F001019C510101836F06EC08F061
:1009800001011581010115B1CCEF04F00101FF0E49
:100990001015D8B4D8EF04F0010110515BEC12F03F
:1009A00001019C510101836F06EC08F001011581E2
:1009B000010115B1E2EF04F00101FF0E0F15D8B4EB
:1009C000EEEF04F001010F515BEC12F001019C51BC
:1009D0000101836F06EC08F001011581010115B1D9
:1009E000F8EF04F00101FF0E0E15D8B402EF05F088
:1009F00001010E515BEC12F001019C510101836F6A
:100A000006EC08F001010D515BEC12F001019C5164
:100A10000101836F06EC08F00101159101012E0E12
:100A2000836F06EC08F001010C515BEC12F0010140
:100A30009C510101836F06EC08F001010B515BEC46
:100A400012F001019C510101836F06EC08F00101D5
:100A50000A515BEC12F001019C510101836F06EC1D
:100A600008F0010109515BEC12F001019C510101F8
:100A7000836F06EC08F00101200E836F06EC08F08E
:100A800001016D0E836F06EC08F00101410E836FCA
:100A900006EC08F00101680E836F06EC08F0010116
:100AA000200E836F06EC08F00101200E836F06EC28
:100AB00008F00101200E836F06EC08F0120002EC32
:100AC00008F0530E836F06EC08F0740E836F06EC8B
:100AD00008F0610E836F06EC08F0720E836F06EC6F
:100AE00008F0740E836F06EC08F0650E836F06EC59
:100AF00008F0640E836F06EC08F0550E836F06EC69
:100B000008F06E0E836F06EC08F0640E836F06EC3F
:100B100008F0650E836F06EC08F0720E836F06EC2A
:100B200008F0430E836F06EC08F0680E836F06EC46
:100B300008F0670E836F06EC08F0640E836F06EC16
:100B400008F01200FDEC07F0430E836F06EC08F08E
:100B5000680E836F06EC08F0610E836F06EC08F0F8
:100B6000720E836F06EC08F0670E836F06EC08F0D8
:100B7000690E836F06EC08F06E0E836F06EC08F0CA
:100B8000670E836F06EC08F0200E836F06EC08F00A
:100B9000440E836F06EC08F06F0E836F06EC08F0CE
:100BA0006E0E836F06EC08F0650E836F06EC08F09E
:100BB000200E836F06EC08F0200E836F06EC08F021
:100BC000200E836F06EC08F0120002EC08F0500EC5
:100BD000836F06EC08F0750E836F06EC08F0730E59
:100BE000836F06EC08F0680E836F06EC08F0200EA9
:100BF000836F06EC08F0530E836F06EC08F0310E9D
:100C0000836F06EC08F0200E836F06EC08F0660E8A
:100C1000836F06EC08F06F0E836F06EC08F0720E1F
:100C2000836F06EC08F0200E836F06EC08F04E0E82
:100C3000836F06EC08F0650E836F06EC08F0780E03
:100C4000836F06EC08F0740E836F06EC08F0120058
:100C5000FDEC07F0440E836F06EC08F0690E836F1D
:100C600006EC08F0730E836F06EC08F0630E836FDA
:100C700006EC08F06F0E836F06EC08F06E0E836FC3
:100C800006EC08F06E0E836F06EC08F0650E836FBD
:100C900006EC08F0630E836F06EC08F0740E836FA9
:100CA00006EC08F0200E836F06EC08F04A0E836F06
:100CB00006EC08F0500E836F06EC08F0320E836FDE
:100CC00006EC08F0200E836F06EC08F0200E836F10
:100CD00006EC08F0120002EC08F0430E836F06ECFD
:100CE00008F06F0E836F06EC08F06E0E836F06EC53
:100CF00008F06E0E836F06EC08F0740E836F06EC3E
:100D000008F04A0E836F06EC08F0500E836F06EC75
:100D100008F0310E836F06EC08F02C0E836F06ECA2
:100D200008F0500E836F06EC08F0750E836F06EC2A
:100D300008F0730E836F06EC08F0680E836F06EC04
:100D400008F0200E836F06EC08F0530E836F06EC5C
:100D500008F0310E836F06EC08F0120002EC08F088
:100D6000420E836F06EC08F0610E836F06EC08F00C
:100D7000740E836F06EC08F0740E836F06EC08F0B7
:100D8000650E836F06EC08F0720E836F06EC08F0B8
:100D9000790E836F06EC08F0560E836F06EC08F0B0
:100DA000200E836F06EC08F03C0E836F06EC08F013
:100DB000200E836F06EC08F0300E836F06EC08F00F
:100DC0002E0E836F06EC08F0370E836F06EC08F0EA
:100DD000350E836F06EC08F0560E836F06EC08F0B4
:100DE0001200FDEC07F0200E836F06EC08F0500EA9
:100DF000836F06EC08F0650E836F06EC08F0610E59
:100E0000836F06EC08F0730E836F06EC08F0650E36
:100E1000836F06EC08F0200E836F06EC08F0570E87
:100E2000836F06EC08F0610E836F06EC08F0690E24
:100E3000836F06EC08F0740E836F06EC08F0200E4A
:100E4000836F06EC08F02E0E836F06EC08F02E0E72
:100E5000836F06EC08F02E0E836F06EC08F02E0E62
:100E6000836F06EC08F0120002EC08F0200E836F8E
:100E700006EC08F0490E836F06EC08F06E0E836FE7
:100E800006EC08F0690E836F06EC08F0740E836FB1
:100E900006EC08F0690E836F06EC08F0610E836FB4
:100EA00006EC08F06C0E836F06EC08F0690E836F99
:100EB00006EC08F07A0E836F06EC08F0690E836F7B
:100EC00006EC08F06E0E836F06EC08F0670E836F79
:100ED00006EC08F02E0E836F06EC08F02E0E836FE2
:100EE00006EC08F02E0E836F06EC08F01200FDEC05
:100EF00007F0430E836F06EC08F06F0E836F06EC6D
:100F000008F06E0E836F06EC08F06E0E836F06EC31
:100F100008F0650E836F06EC08F0630E836F06EC35
:100F200008F0740E836F06EC08F0200E836F06EC59
:100F300008F0420E836F06EC08F0610E836F06EC3A
:100F400008F0740E836F06EC08F0740E836F06ECE5
:100F500008F0650E836F06EC08F0720E836F06ECE6
:100F600008F0790E836F06EC08F03A0E836F06ECFA
:100F700008F0120002EC08F02B0E836F06EC08F06C
:100F8000560E836F06EC08F0200E836F06EC08F017
:100F9000740E836F06EC08F06F0E836F06EC08F09A
:100FA000540E836F06EC08F0500E836F06EC08F0C9
:100FB000390E836F06EC08F02C0E836F06EC08F0F8
:100FC000500E836F06EC08F0750E836F06EC08F088
:100FD000730E836F06EC08F0680E836F06EC08F062
:100FE000200E836F06EC08F0530E836F06EC08F0BA
:100FF000310E836F06EC08F012000101800E836F42
:1010000009D81200C00E836F05D81200FAD8D88014
:10101000B4D81200F6D8D890B0D812000000000062
:10102000000000000000836A8C6A16EC09F016ECE0
:1010300009F08386838C838E83848382838016EC7D
:1010400009F016EC09F083948392839016EC09F072
:1010500016EC09F00F0EC16E0101FF0E816FFF0E3D
:10106000826FDAD8812FFBD70101200E836FD890D1
:1010700064D80101FF0E816F0101FF0E826FCCD891
:101080000101812FF9D70101200E836FD89055D827
:101090000101FF0E826FC0D80101800E836FD890CE
:1010A0004CD80101FF0E826FB7D80101000E836F8B
:1010B000D89043D8C00E836FD8903FD80101FF0E5F
:1010C000826FAAD80101000E836FD89036D8100E17
:1010D000836FD89032D80101FF0E826F9DD86BECE0
:1010E00009F06BEC09F06BEC09F06BEC09F0010115
:1010F000000E836FD89021D8200E836FD8901DD812
:101100000101FF0E826F88D86BEC09F06BEC09F0DF
:101110006BEC09F06BEC09F06BEC09F06BEC09F08F
:101120006BEC09F001014E0E836F6BD8D88025D887
:101130000101FF0E826F70D81200D8A08390D8B042
:1011400083808392929092929294929600000000F3
:10115000838483AF809683BF808683AD809483BD74
:10116000808483AB809283BB808283A9809083B983
:1011700080800000000083941200DFDF0101833BC8
:10118000DCDF833B12009280928292849286D8A008
:101190008390D8B0838083820000000083840000A5
:1011A00000000000000080A6849F80B6848F80A489
:1011B000849D80B4848D80A2849B80B2848B80A027
:1011C000849980B0848983940000000000000000AE
:1011D000000000000000000083840000000080A6E2
:1011E000849780B6848780A4849580B4848580A207
:1011F000849380B2848380A0849180B0848183941E
:1012000012007EEC09F07EEC09F012000001D8908B
:10121000BADF84BFF6D71200822FFED71200010179
:10122000826B0000822F11EF09F012000FEC09F021
:101230000FEC09F00FEC09F00FEC09F00FEC09F0DE
:101240000FEC09F00FEC09F00FEC09F00FEC09F0CE
:101250000FEC09F00FEC09F00FEC09F00FEC09F0BE
:101260000FEC09F00FEC09F00FEC09F00FEC09F0AE
:101270000FEC09F00FEC09F00FEC09F00FEC09F09E
:101280000FEC09F00FEC09F00FEC09F00FEC09F08E
:101290000FEC09F00FEC09F00FEC09F00FEC09F07E
:1012A0000FEC09F00FEC09F00FEC09F00FEC09F06E
:1012B0000FEC09F00FEC09F00FEC09F00FEC09F05E
:1012C0000FEC09F00FEC09F00FEC09F00FEC09F04E
:1012D0000FEC09F012000FEC09F00FEC09F00FEC25
:1012E00009F00FEC09F00FEC09F00FEC09F00FEC2E
:1012F00009F00FEC09F00FEC09F012000FEC09F007
:0A1300000FEC09F00FEC09F01200E9
:06130A002020204D696364
:10131000726F63686970202020204675656C2047D5
:10132000617567652044656D6F2020426174746546
:10133000727920496E2D5573652020313730206D2C
:1013400041482C20332E3756202042617474657238
:1013500079566F6C742E3C35302553313A20666FC8
:1013600072204368617267696E6720556E646572AA
:10137000204368617267696E672053313A20537465
:101380006F704368617267696E67446973636F6EFB
:101390006E656374204A50322026436F6E6E744A25
:1013A00050312C50757368205331446973636F6EEC
:1013B0006E656374204A50312026436F6E6E744A06
:1013C00050322C5075736820533153323A312E35D8
:1013D0005620204261747465727953333A4C6950D7
:1013E0006F6C792C3137306D41484141412C312EA1
:1013F00035562C313530306D41484675656C526537
:101400006D616E556E6B6E6F776E000000000000B0
:1014100000000000000000000000000000000000CC
:1014200000000000000000000000000000000000BC
:1014300098EC0FF082EC10F03CEC0DF03CEC0DF071
:101440000EEC08F0000000000000000000000000AA
:10145000000000000000000000000000000000008C
:101460000101766BD06A170ED06E050EF16EF80E84
:10147000F06EF80EF26E01017A6B00000101000EB1
:10148000166F0CEC0DF00101100E166F25EC0DF02F
:1014900052EC10F046EC0DF046EC0DF046EC0DF081
:1014A0000101756B0101800E166F0CEC0DF001014E
:1014B000900E166F25EC0DF046EC0DF046EC0DF09D
:1014C00001017A6B01017AADFDD70101756B7A6B71
:1014D00077EC07F0BAEC07F001017A6B01017AAD05
:1014E000FDD701017A6B0101C00E166F0CEC0DF0F7
:1014F0000101D00E166F25EC0DF001017A6B010190
:10150000756B0101FF0E7517D8B48DEF0AF001015C
:101510007681ACEF0AF00101756B01017AA381EFCE
:101520000AF00101766B0101756B97EF0AF000007C
:101530000101200E166F0CEC0DF0000000000101FF
:10154000E00E166F25EC0DF046EC0DF046EC0DF0BC
:1015500046EC0DF0C3EF0AF000000101200E166FFB
:101560000CEC0DF0000000000101300E166F25ECB0
:101570000DF046EC0DF046EC0DF046EC0DF00101DF
:10158000756BC3EF0AF0F1EC06F034EC07F0F7EFFF
:101590000AF00101AA0E676F000E686F000E696FF6
:1015A0000101000E6D6F610E6E6F7A0E6F6F240E6B
:1015B000706F000E716F000E726FF7EF0AF001018D
:1015C000E80E676F030E686F000E696F0101000E71
:1015D0006D6FA40E6E6F930E6F6FD60E706F000E50
:1015E000716F000E726FF7EF0AF00F01948C838613
:1015F0000101756B52EC10F0000000000101476B17
:101600000101736B746B0101756B01017C6B01014E
:101610008C0E336F366B010136B108D036B30AD069
:1016200036B50CD00101339133930CD001013381D5
:10163000339308D001013391338304D00101338106
:10164000338300D0838C01013481B1EC10F0839C92
:10165000EDEC10F0839C01012DC130F12EC131F170
:101660002FC132F1C1EC0DF0DDEC0DF0EFEC0DF01F
:1016700075EC0EF046EC0DF046EC0DF0010176A194
:1016800001D010D001017E6BB2EC0EF001017EA101
:1016900088EF0BF0AEEC06F092EC10F052EC10F08C
:1016A00088EF0BF001017BB158EF0BF05CEF0BF012
:1016B00022EC0FF007EF0BF001017CA162EF0BF0C1
:1016C00074EF0BF001017C8173EC0FF001017FB12D
:1016D00070EF0BF00101808101017F6B74EF0BF063
:1016E0000101806B01017F6B01017D6B8EEC0EF0BF
:1016F00001017DA388EF0BF0D8EC0EF0F2EC0EF0B8
:101700000108D8A488EF0BF008EC0FF088EF0BF07D
:10171000010137C148F138C149F139C14AF13AC133
:101720004BF13BC14CF13CC14DF1010137C14EF1D0
:1017300038C14FF139C150F13AC151F13BC152F1B9
:101740003CC153F1FF0E01014717D8B4A2EF0BF0D3
:101750000101406B0101472FB0EF0BF0C1EF0BF01F
:10176000010137C148F138C149F139C14AF13AC1E3
:101770004BF13BC14CF13CC14DF104EC14F0AAEF2C
:101780000BF0010135A1E4EF0BF000D0010155C1D0
:1017900048F156C149F157C14AF158C14BF159C1FD
:1017A0004CF15AC14DF104EC14F001014EC155F158
:1017B0004FC156F150C157F151C158F152C159F1C1
:1017C00053C15AF125EF0CF009EF0CF001014EC1A5
:1017D0008BF14FC18CF150C18CF151C18CF152C1D0
:1017E0008CF153C190F10101000E856F610E866F7F
:1017F0007A0E876F240E886F000E896F000E8A6F35
:10180000AAEC12F0D8B007EF0CF009EF0CF025EFBE
:101810000CF001016DC148F16EC149F16FC14AF18F
:1018200070C14BF171C14CF172C14DF104EC14F077
:1018300001014EC16DF14FC16EF150C16FF151C147
:1018400070F152C171F153C172F10101240E3D6F6B
:10185000000E3E6F000E3F6F010155C120F156C1D1
:101860001FF157C11EF158C11DF159C11CF15AC1D8
:101870001BF1A9EC13F00101026B036B046B056B08
:10188000066B076B01013CC107F13BC106F13AC190
:1018900005F139C104F138C103F137C102F123EC7C
:1018A00010F059EC04F046EC0DF046EC0DF001019F
:1018B00076A107EF0BF000D0010180A16FEF0CF0D3
:1018C0000101F00E166F0CEC0DF05FEC05F046EC2C
:1018D0000DF046EC0DF00000000007EF0BF00101E9
:1018E0006DC185F16EC186F16FC187F170C188F15C
:1018F00071C189F172C18AF1010155C18BF156C1E3
:101900008CF157C18DF158C18EF159C18FF15AC177
:1019100090F1AAEC12F0D8B090EF0CF092EF0CF02E
:101920009FEF0CF0010185C15BF186C15CF187C1BD
:101930005DF188C15EF189C15FF18AC160F1010189
:10194000800E3D6FEE0E3E6F360E3F6F5BC120F195
:101950005CC11FF15DC11EF15EC11DF15FC11CF1D3
:1019600060C11BF1A9EC13F0010137C161F138C16D
:1019700062F139C163F13AC164F13BC165F13CC127
:1019800066F1010161C123F162C122F163C121F15C
:101990000101010E246F860E276FA00E2A6F79ECCD
:1019A00013F0010167C13DF168C13EF169C13FF12A
:1019B000A9EC13F00101026B036B046B056B066B62
:1019C000076B01013CC107F13BC106F13AC105F1CA
:1019D00039C104F138C103F137C102F123EC10F031
:1019E0004DEC03F00101026B036B046B056B066B9E
:1019F000076B010161C102F162C103F163C104F12E
:101A000023EC10F0C9EC03F046EC0DF046EC0DF0C1
:101A10000000000007EF0BF0FDEC07F00101100ED5
:101A2000176F000EF86E130EF76E0A0EF66E0101B8
:101A30001651F626E86AF722F8220900F5CF83F15D
:101A400006EC08F0172FF9D7120002EC08F0100E80
:101A5000176F000EF86E130EF76E0A0EF66E165123
:101A6000F626E86AF722F8220900F5CF83F106ECA2
:101A700008F0172FF9D712000101FF0E186FFF0EA3
:101A8000196F182FFED7192FFCD712000101FF0E76
:101A9000186F196F0A0E1A6F182FFED7192FFCD75F
:101AA0001A2FFAD71200839601017AADFCD77A6B10
:101AB00012000101756B8396FF0E7517D8B4FBD722
:101AC0000101756B120001012D1F2E1F2F1F2F3FCB
:101AD0006EEF0DF02E3F6EEF0DF02D3F1200000166
:101AE000320EB4EC0DF081B077EF0DF0010C000C6C
:101AF0000001320EB4EC0DF00F0181B277EF0DF062
:101B0000010C000C0001320EB4EC0DF00F0181B499
:101B100077EF0DF0010C000C0001320EB4EC0DF06B
:101B20000F0181B877EF0DF0010C000C0001320EAF
:101B3000B4EC0DF00F0181BA77EF0DF0010C000C41
:101B40000001320EB4EC0DF00F0181BC77EF0DF007
:101B5000010C000C0001320EB4EC0DF00F0181BE3F
:101B600077EF0DF0010C000C0101776B320E786FEE
:101B7000796B792FB9EF0DF0782FB9EF0DF07781F0
:101B800012000101216B226B236B0101356B0101F6
:101B90002DB304D001013581D1EF0DF0359163EC07
:101BA0000DF001012DB121812EC122F12FC123F1B0
:101BB0000101348123EC13F0120001011BC107F174
:101BC0001CC106F11DC105F11EC104F11FC103F1C5
:101BD00020C102F123EC10F016EC00F0120001011C
:101BE0008F0E336F0101366B368536B103EF0EF081
:101BF00036B308EF0EF036B50DEF0EF0010133915C
:101C0000339312EF0EF001013381339312EF0EF094
:101C100001013391338312EF0EF0010133813383DD
:101C200012EF0EF0838C01013491B1EC10F0839C23
:101C3000EDEC10F0839C10D00101010E2D6FFF0E12
:101C40002E6FFF0E2F6F2CEF0EF00101000E2D6F87
:101C5000010E2E6F2C0E2F6F0101216B226B236B57
:101C60000101356B01012DB303D035813BEF0EF03F
:101C7000359163EC0DF001012DB121812EC122F1CE
:101C80002FC123F10101349123EC13F001011BC199
:101C900007F11CC106F11DC105F11EC104F11FC1F0
:101CA00003F120C102F10101000E3F6F000E3E6FF3
:101CB000040E160E0F0E0A0E3D6F0101000E3F6F4F
:101CC0003A0E3E6F980E3D6F0101000E3F6F270EDA
:101CD0003E6F100E3D6F0101000E3F6F340E3E6FE0
:101CE000BC0E3D6FA9EC13F012000101026B036BF7
:101CF000046B056B066B076B01013CC107F13BC12F
:101D000006F13AC105F139C104F138C103F137C117
:101D100002F123EC10F0B6EC01F012000101856B2A
:101D2000866B876B32C188F131C189F130C18AF18C
:101D30000101000E8B6F8C6F8D6FFF0E8E6F8F6F9A
:101D4000000E906FAAEC12F00101856B866B876B19
:101D5000886B896B8A6BD8A003D001017D8301D089
:101D60007D6B12000101856B866B876B32C188F138
:101D700031C189F130C18AF10101000E8B6F8C6F86
:101D80008D6FC00E8E6F5D0E8F6F000E906FAAEC80
:101D900012F00101856B866B876B886B896B8A6B90
:101DA000D8A003D001017E81120001017E6B1200D8
:101DB00001017A9D0101400E166F0CEC0DF001013E
:101DC000500E166F25EC0DF0120001017A9D0101F5
:101DD000E00E166F0CEC0DF00101500E166F25ECA5
:101DE0000DF0120074EC10F03CEC0DF052EC10F021
:101DF00046EC0DF046EC0DF00101000E186F0101EC
:101E0000182F01D0000C01017AADFFEF0EF0010C8C
:101E100001017B6B7B810F01948C0101A00E166F79
:101E20000CEC0DF00101B00E166F25EC0DF046EC38
:101E30000DF046EC0DF001017A6B01017AADFDD792
:101E400001017A6B52EC10F001017A9D0101600EE4
:101E5000166F0CEC0DF00101700E166F25EC0DF0F5
:101E600046EC0DF046EC0DF073EC0FF001017FA194
:101E70003CEF0FF04AEF0FF00101000E186F010167
:101E8000182F02D072EF0FF001017AAD3FEF0FF083
:101E900067EF0FF001017B910101806B0F01949CB2
:101EA000828C00EC10F092EC10F001017A6AA2EC46
:101EB00005F0E5EC05F053EC0DF052EC10F028ECD9
:101EC00006F06BEC06F053EC0DF067EF0FF00F012E
:101ED000949C828C01017B6B01017A9D92EC10F045
:101EE00052EC10F012000101856B866B876B32C1DA
:101EF00088F131C189F130C18AF10101000E8B6F87
:101F00008C6F8D6F8E6FF40E8F6F010E906FAAEC39
:101F100012F00101856B866B876B886B896B8A6B0E
:101F2000D8A003D001017F6B120001017F81120054
:101F30000F01476B0F01806A896A000E926ECE0E08
:101F4000806E0F01816A8A6AFF0E936E816A8A6AC7
:101F50000F01826A8B6AD10E946E826A949C828C85
:101F60000F01836A8C6A000E956E836A8C6AFF0E7D
:101F7000836E0F01846A8D6AFF0E966ED86AF26ACC
:101F8000F16AF06A9E6AA16A9D6AA06AD06A9F6A35
:101F9000A26A070E0F01B46E0F01F26A0F0E0F0155
:101FA000C16EF16A0F01FF0ED36E050ECA6E9380EB
:101FB0009382840ED56EF29452EC10F001014E6BB8
:101FC0004F6B506B516B526B536B0101486B496BFC
:101FD0004A6B4B6B4C6B4D6B0101026B036B046BDB
:101FE000056B066B076B01017C6B0F01949C828C67
:101FF00001017B6B01017A6B01017D6B0101806B3B
:102000000101AA0E676F000E686F000E696F010173
:10201000000E6D6F610E6E6F7A0E6F6F240E706F13
:10202000000E716F000E726F0101556B566B576B8E
:10203000586B596B5A6B0101556B566B576B586B4C
:10204000596B5A6B120043EC10F0300E0101006F17
:102050000101023703370437053706370737010117
:1020600001EE08F001010D0E016FEF36F60EEF24C0
:10207000D8B0EF6EEE500101012F35EF10F0002FB8
:1020800028EF10F012000101086B096B0A6B0B6B53
:102090000C6B0D6B0E6B0F6B106B116B126B136B6C
:0420A000146B1200AB
:0C20A4000F01CA940F01829412000F017A
:1020B000070ECA6E580ECB6E0F010C0EBD6E0F01CF
:1020C000300EBE6EF28ECA8412000F01070ECA6E69
:1020D000580E670ECB6E0F010C0EBD6E0F01300E49
:1020E000BE6EF28ECA8412000F01070ECA6E710E08
:1020F000CB6E0F010C0EBD6E0F01300EBE6EF28E58
:10210000CA8412000F01070ECA6EFA0ECB6E0F01C1
:102110000C0EBD6E0F01200EBE6E3CEC0DF0F28E6B
:10212000CA8412000F01070ECA6E710E960ECB6E96
:102130000F010C0EBD6E0F01300EBE6E3CEC0DF0AB
:10214000970ECB6E3CEC0DF0980ECB6E46EC0DF07E
:10215000C80ECB6E3CEC0DF03CEC0DF0F28ECA8458
:102160001200B5EC11F0F1EC11F0F1EC11F0FCEC17
:1021700011F0F1EC11F0FCEC11F0010134A1C7EF0A
:1021800010F0F1EC11F0F1EC11F0CBEF10F0FCECF1
:1021900011F0FCEC11F0FCEC11F09BEC11F00101E2
:1021A000A6B1B1EF10F00101080EA86F010133379D
:1021B000D8A0DFEF10F0F1EC11F0E1EF10F0FCEC43
:1021C00011F0A82FD6EF10F09BEC11F00101A6B191
:1021D000B1EF10F0DCEC11F012000101A76B838C61
:1021E000B5EC11F0839CF1EC11F0F1EC11F0FCEC8A
:1021F00011F0F1EC11F0FCEC11F034A106EF11F04C
:10220000F1EC11F0F1EC11F00AEF11F0FCEC11F02F
:10221000FCEC11F0F1EC11F09BEC11F0A6B1EDEF3C
:1022200010F00F01809A899A809889989298928AE2
:10223000809A899A01012D6B2E6B2F6B010101EEA3
:102240002DF00101030EA96F0101080EA86F0F0107
:102250008098000000000000000000000000000066
:1022600000008088D89080AA37EF11F0D880EF3630
:10227000D8900101A82F27EF11F0EE28D890000088
:102280008098000007EC12F00101A92F24EF11F053
:1022900001010101010EA86F899A809A928A8098A3
:1022A0000000000000000000000000000000808826
:1022B00080AA5DEF11F05FEF11F00101A78101012C
:1022C000070EA86F809800000000000000000000CA
:1022D00000000000000080880101A82F62EF11F0CB
:1022E0000000809800007DEF11F00101A7A107EC2C
:1022F00012F00101A7A148EF11F00101080EA86F2B
:102300000F018098000000000000000000000000A5
:102310000000000080880101A82F80EF11F000006C
:102320008098000094EF11F0DCEC11F00101A7A1FE
:10233000EDEF10F012000101A66B809A899A928A43
:10234000809800000000000080880000000000006D
:1023500080BAA68180980F01929A809A809A899A71
:10236000000000000000000012009298929A8088FD
:1023700000000000808A50EC12F00000000080880D
:102380000000000050EC12F000000000809A0000F5
:10239000000000000000000000000000000000003D
:1023A0000000809A00000000000000000000000013
:1023B0008098000000001200809A899A929A809872
:1023C000809A000000000000808800000000808AE1
:1023D00000000000000000000000928A809A899AA4
:1023E00012009298929A808A000000000000808873
:1023F00000000000809812009298929A809A000043
:1024000000000000808800000000809812000F018A
:10241000809A899A80988998929A809A8998899ABC
:1024200080980000809A0000808800000000000072
:1024300080980F01809A899A928A928A809A809ACB
:10244000899A000000000000000000000000120057
:10245000809A899A80988998929A809A8998899A7C
:1024600080980000809A0000808800000000000032
:10247000808A0000000000008098809A899A928AE1
:10248000809A899A809A00000000000000000000F5
:102490000000120000000000000000000000120018
:1024A000000000000000000000000000000000002C
:1024B00000000000120001019E6B9D6B9C6F640E7A
:1024C0009C5DD8A003D09C6F9E2BF9D70A0E9C5D13
:1024D000D8A003D09C6F9D2BF9D79E51300A9E6FD8
:1024E0009D51300A9D6F9C51300A9C6F000C010178
:1024F0009F390F0BF00FA26FA227E20FA36F320FCD
:10250000A56F9F510F0BA327A327A527E90FA46F42
:10251000A427A427A0390F0BA427A527A437A537E4
:10252000A51FA537A0510F0BA527A237070EA16F36
:102530000A0EA407A527D8A0FCD7A307A427D8A0D4
:10254000FCD7A207A327D8A0FCD7A107A227D8A011
:10255000FCD7000C0101D8908B51855FD8B0CCEF2F
:1025600012F0010E865FD8B0CCEF12F0010E875F3B
:10257000D8B0CCEF12F0010E885FD8B0CCEF12F0DB
:10258000010E895FD8B0CCEF12F0010E8A5FD8B08F
:10259000CCEF12F0D88012008C51865FD8B0E7EFF4
:1025A00012F0010E875FD8B0E7EF12F0010E885FDE
:1025B000D8B0E7EF12F0010E895FD8B0E7EF12F064
:1025C000010E8A5FD8B0E7EF12F0D88012008D516B
:1025D000875FD8B0FDEF12F0010E885FD8B0FDEF35
:1025E00012F0010E895FD8B0FDEF12F0010E8A5F84
:1025F000D8B0FDEF12F0D88012008E51885FD8B0AD
:102600000EEF13F0010E895FD8B00EEF13F0010E3C
:102610008A5FD8B00EEF13F0D88012008F51895F17
:10262000D8B01AEF13F0010E8A5FD8B01AEF13F08A
:10263000D880120090518A5FD8B021EF13F0D88073
:102640001200D8901200010136B140EF13F036B3FA
:1026500053EF13F036B566EF13F0010134A108D043
:102660000101000E246F7A0E276F120E2A6F41D0DF
:102670000101000E246F3D0E276F090E2A6F39D01D
:10268000010134A108D00101020E246F620E276FF0
:102690005A0E2A6F2ED00101010E246F310E276FC2
:1026A0002D0E2A6F26D0010134A108D001010B0E96
:1026B000246FEB0E276FC20E2A6F1BD00101050E8F
:1026C000246FF50E276FE10E2A6F13D0010134A19C
:1026D00008D001013B0E246F9A0E276FCA0E2A6F95
:1026E00008D001011D0E246FCD0E276F650E2A6FD5
:1026F00000D001011B6B1C6B1D6B1E6B1F6B206BD5
:102700000101180E916F0101243327332A33D8A019
:1027100096EF13F0010123511D272251D8B0223D1D
:102720001C272151D8B0213D01011B2701011B337A
:102730001C331D330101243327332A3324C11EF1F6
:1027400027C11FF12AC120F10101912F87EF13F05A
:1027500012000101300E9B6F010120C192F11FC1D7
:1027600093F11EC194F11DC195F11CC196F11BC1DD
:1027700097F10101376B386B396B3A6B3B6B3C6BF4
:1027800001019A6B996B986BD8900101923793373E
:102790009437953796379737983799379A37010195
:1027A0003F5101019A5DD8A40AD001013E510101B7
:1027B000995DD8A404D001013D510101985DD8A0D4
:1027C00017D001013D510101985FD8B006D0010139
:1027D00099079951FF0AD8B49A0701013E510101A6
:1027E000995FD8A09A0701013F5101019A5FD880F3
:1027F00001013737383739373A373B373C37010132
:102800009B2FC4EF13F012000101546B01014851DA
:102810004E274951D8B0493D4F274A51D8B04A3D7B
:1028200050274B51D8B04B3D51274C51D8B04C3D5F
:1028300052274D51D8B04D3D5327D8B05481120086
:102840000101456FD8CF44F1E0CF46F1FACF43F113
:1028500000C042F1F2A406D0F2AA04D00101472B35
:10286000F294ABD0F2A24DEF14F0F292F2A84DEF39
:1028700014F081B04AEF14F06FEC0DF00108D8A409
:102880004AEF14F00101752B83960F0181A045EFEB
:1028900014F08386F292DDEF14F0F0A069EF14F0EB
:1028A000F0A669EF14F081B263EF14F078EC0DF04C
:1028B0000108D8A463EF14F001017A8383960F0115
:1028C00081A25EEF14F083860F01F090F092DDEFAD
:1028D00014F00F01F0A287EF14F0F0A887EF14F0C6
:1028E00081B482EF14F0839682EC0DF00108D8A435
:1028F00082EF14F001017A8583960F0181A47DEFA8
:1029000014F083960F01F090F092DDEF14F0F2A036
:10291000DDEF14F0F2A6DDEF14F081BC9EEF14F0B1
:10292000A0EC0DF00108D8A4A1EF14F001017A8DFC
:1029300083960F0181AC99EF14F08386F290DDEF5E
:1029400014F081BEB2EF14F0AAEC0DF00108D8A487
:10295000B5EF14F001017A8F83960F0181AEADEFD0
:1029600014F08386F290DDEF14F081B8C6EF14F016
:102970008CEC0DF00108D8A4C9EF14F001017A899C
:1029800083960F0181A8C1EF14F08386F290DDEFEA
:1029900014F081BADAEF14F096EC0DF00108D8A427
:1029A000DAEF14F001017A8B83960F0181AAD5EF3B
:1029B00014F08386F290DDEF14F046C1E0FF456F1E
:0A29C00044C1D8FF42C100F011002D
:020000040030CA
:010001000BF3
:0100020017E6
:010003001EDE
:010005008179
:010006008178
:00000001FF
