:1000000019C028C027C026C025C024C023C022C0D4
:1000100021C020C01FC01EC01DC01CC01BC01AC0F4
:1000200019C018C017C016C015C014C013C012C024
:1000300011C010C011241FBECFEFD2E0DEBFCDBF74
:1000400011E0A0E0B1E001C01D92A130B107E1F7DD
:1000500002D01AC0D5CF1F9381E08093000108D051
:1000600011E0109300010AD01092000107D0F9CFDF
:100070002F93209100012AB92F9108952F93209159
:0C00800000012BB92F910895F894FFCFD8
:00000001FF
